:1000000000308A00CB280000FF00030E8301A1000E
:100010007F08A0000A08A8008A01A00E0408A20018
:100020007708A3007808A4007908A5007A08A6003C
:100030007B08A700831383128C308400801E222843
:100040008C1A4128220884002308F7002408F800AD
:100050002508F9002608FA002708FB0028088A006E
:10006000210E8300FF0E7F0E09008C1E3528180814
:10007000A9001A08F800A91C3F2818121816000039
:10008000422835287808AA00AB08031D4E282A0804
:100090007F3C031D4E280130AB00AC012B0B7D28AB
:1000A0002E302C0784002A0880002C08133C0318EB
:1000B000AC0A2C08033C031D7D282E087F3C031D41
:1000C0007A283008FF3A2F02031D7A28AD08031D55
:1000D0006C280130C3007D28AD08031976282F084D
:1000E0002D02031D76280130C3007928AB01AC0135
:1000F000C3017D28AB01AC01C301C2018C128A117E
:1001000022284E3084000008031995280130F80099
:10011000F701F70B8928F80B88285230F700F70B06
:100120008F2800000000800B86280034D001861143
:100130000830F800000000000000F817B728F81396
:100140004F08D006CF0C03188615031C86117817AC
:10015000B7287813F80BA028000000000000501CFE
:10016000861550188611F816B728F812861504302F
:10017000F7008401840BBA28F70BB9286630840095
:10018000840BC02800000000F81B9F28781BA928BA
:10019000F81AB5288D2903081F3983005730F70056
:1001A0002030840083138001840AF70BD328F801E0
:1001B000F901FA01FB01FC01FD01FE015030F700DD
:1001C000A030840083138001840AF70BE328A00188
:1001D00084011F3083051A30831699002630980059
:1001E00090308312980086151A30831699002630B5
:1001F000980090308312980007309F00A901831661
:100200000108C73908388100831290010030F800D6
:1002100092000030831692000130650003306600C2
:100220008C16C03083128B04061686168511851035
:100230000511C301AB01C501AD01C30803192B2989
:100240004908023C03182B29FF3A031D2A294808B4
:10025000E83C031C3829061C33298615C80A0319F3
:10026000C90A851037298611C901C80185141D29BD
:10027000851005150230CE008120C20A42080A3CD2
:10028000031C4629C301C901C8013A290511C60149
:100290002C08C7003108093C03196229310B512988
:1002A00062293108023C031962293108033C031911
:1002B00062293108113C0319622931080A3C0319EB
:1002C0006229D8292E304607840000087F3C031D90
:1002D000DC29013046072E3E84000008D0000230A1
:1002E00046072E3E84000008FF3A5002031DDC2919
:1002F000851583168C12831286162130CE0081203C
:100300004608C40044084702031C92292E304407C3
:1003100084000008CE00CF0096282130CE00812036
:10032000C40A822986128511CD01CC014D084E3CAC
:10033000031CAC29031DA0294C081F3C031CAC293D
:100340001030F700F70BA22900000000051CAD29B2
:10035000CC0A0319CD0A9629CB290515AD08031D32
:10036000B729013046072E3E84000008AD00CD01BC
:10037000CC014D08073C031CCB29031DC3294C08A5
:10038000CF3C031CCB290518C729CD01CC01CC0AD1
:100390000319CD0AB9298616C5080319D829C5013C
:1003A0000630C6000B30C700C830CE00812062295D
:1003B000051183168C168312C201AB01C4014408D7
:1003C000133C031CE9292E30440784008001C40A31
:0603D000DF291D29630076
:02400E00293F48
:00000001FF
;PIC16F628A
