:020000040000FA
:10000000A5EF01F0FFFFFFFF84EF02F0000000000A
:1000100000000000000000008CEF02F010004164BE
:10002000762B2042746C64722056312E320D0A00F9
:1000300057616974696E672E2E2E00000D0A54698F
:100040006D656F75742E2041626F72740000090037
:10005000F55213E0F6CF4FF0F7CF50F0F8CF51F054
:10006000F5500E0136A9FED7996E4FC0F6FF50C06D
:10007000F7FF51C0F8FF0001EAD712000E0136A9C0
:10008000FED7996E000112000E0136ABFED79CCF51
:1000900006F098CF01F006A202D09C989C8800013F
:1000A000C6EF00F0836B846B845101082BE382C0A0
:1000B00003F081C0E9FF82C0EAFFEF50400810E280
:1000C0008351100DF3CF85F082C003F081C0E9FFAA
:1000D00082C0EAFFEF508525BF0F0A0F836F0CD057
:1000E0008351100DF3CF85F081C0E9FF82C0EAFF94
:1000F000EF508525D00F836F8451842B812BD8B48A
:10010000822BD2D783C001F01200F250036EF29E10
:1001100077840F01550E786EAA0E786E77820000F4
:100120000350F21200011200F6507F0B006E800E99
:10013000F6160A007DC001F0006607D0EECFF5FF8D
:10014000015204E00F00010603D000060B000C0072
:100150007F0EF6147F0AF0E17788D7DFD6DF0166DD
:10016000EBD7F86A94EF01F04F92556A546A4FB298
:10017000E2D0076A036A0750080FE96E000E0320F9
:10018000EA6EEACF80F0E9CF7FF07ED780C0EAFF49
:100190007FC0E9FF01C0EFFF0750072A036A080F7D
:1001A000E96E000E0320EA6EEF500D0803E00750E1
:1001B0004008E0E2130E62DF4F8008503A08D8A4EE
:1001C000B3D0826B090E816F6DDF01C05CF0826B72
:1001D0000B0E816F67DF01C07DF0826B0D0E816FAA
:1001E00061DF7DC053F001C052F0826B0F0E816F52
:1001F00059DF01C051F054C058F055C059F052C0F9
:1002000056F053C057F0506A010E5B6E030E075C48
:100210005B5C14E2036A5B50080F016E000E032260
:1002200001C07DF003C07EF003C082F001C081F008
:1002300039DF01505026020E5B26E8D7FF0ED8802A
:100240005054010F506E030E075C036A080F016ED5
:10025000000E032201C07DF003C07EF003C082F0D7
:1002600001C081F01FDF0150505C02E04F905CD074
:10027000512C02D04F8258D05150040811E1826BAA
:10028000110E816F0FDF01C07DF0826B130E816F45
:1002900009DF01C07EF07DC055F001C054F044D0AC
:1002A000515242E1595205E1585203E157500408B6
:1002B0003BE2595239E15850010836E3090E5B6EB2
:1002C0005A6A030E075C5B5C23E25A505A2A036A9F
:1002D0005D0F016E000E032201C07DF003C07EF0B1
:1002E000036A5B50080F016E000E032201C07FF00D
:1002F00003C080F003C082F001C081F0D3DE7EC075
:10030000EAFF7DC0E9FF01C0EFFF020E5B26D9D7EF
:1003100058C0F8FF57C0F7FF56C0F6FFEA6A5D0EF7
:10032000E96E5CC07DF000D74FA002D0060EA6DEBD
:10033000110EA4DE1CD7060EA1DE110E9FDEFF00FB
:10034000A3EF01F011D755EF02F0778E779CF86A92
:10035000D09E0E01550E0D01EF6FAA0EEF6FEF91BB
:10036000090EF16F1E0EF26F170E0E010F6F0C0EBD
:10037000686F550E0D01EF6FAA0EEF6FEF81E80E5B
:10038000006E0E0E016E020EE96E000EEA6EEE6A4F
:10039000002EFDD7012EFBD70E01486B456B476B36
:1003A000496B700E436F066A9E86810E9A6E000E30
:1003B0009B6EA60E9D6E900E9C6E496A486A926B6B
:1003C0009A6BA76BAF6BB46BBC6BD26BD36BD16BFF
:1003D000D06B4A6AF2CF4FF0F29E030E756E7468CE
:1003E000779C779E77807650779C778E4FBEF28E83
:1003F0004A6EDC0E846E84848CA403D082888AA822
:1004000002D07F0E4A6E4A507F08D8A472D01E0ECA
:10041000F66E000EF76E000EF86E000118DE300E5C
:10042000F66E000EF76E000EF86E11DE070E26DE79
:10043000F250006EF29E030E756E7468766A779CB9
:10044000779E77840F01550E786EAA0E786E7782AC
:1004500077B2FED77794779C778E0050F2124E6A6F
:100460004D6A4C6A4B6A0E0136BB1BD0010E4B26FF
:10047000D8B04C2AD8B44D2AD8B44E2A4E5211E1E5
:100480004D5016080EE307E14C50E3080AE303E180
:100490004B505F0806E30400100E006E002EFED7DE
:1004A000E3D736AB04D000014DD722D00E013C0E6D
:1004B000F66E000EF76E000EF86E0001C8DDF25009
:1004C000006EF29E030E756E7468010E766E779C58
:1004D000779E77840F01550E786EAA0E786E77821C
:1004E00077B2FED77794779C778E0050F212000196
:1004F0000E01000105D80300FFFFFFFFFFFFFFFF14
:1005000099EF6DF0FFFFFFFF046ED8CF05F0E0CF4D
:1005100006F00001E9CF0CF0EACF07F0E1CF08F0D8
:10052000E2CF09F0D9CF0AF0DACF0BF0F3CF12F017
:10053000F4CF13F0FACF14F0F5CF15F0F6CF16F094
:10054000F7CF17F0F8CF18F0FBCF19F000C00EF07E
:1005500001C00FF002C010F003C011F00E0129A17C
:10056000B5EF02F033B1D7EF03F029A3BBEF02F0F0
:1005700033B3F7EF03F029A5C1EF02F033B500EF75
:1005800004F029A7C7EF02F033B715EF04F029AB49
:10059000CDEF02F033BB04EF03F02CABD3EF02F04E
:1005A00036BBECEF06F02EA1D9EF02F038B1ADEF7B
:1005B00004F00EC000F00FC001F010C002F011C036
:1005C00003F00CC0E9FF07C0EAFF078E08C0E1FF97
:1005D00009C0E2FF0AC0D9FF0BC0DAFF12C0F3FF67
:1005E00013C0F4FF14C0FAFF15C0F5FF16C0F6FFE4
:1005F00017C0F7FF18C0F8FF19C0FBFF045006C072
:10060000E0FF05C0D8FF10000001878488998FB4EF
:10061000888988B90AD088BB08D088BD06D088BF31
:1006200004D08DB102D0888B67D088AB09D08E2BD7
:100630008E51030804E2889B888F8E6B8F6B5CD091
:1006400088AF15D08E2B8E51070810E28F2B8F515B
:10065000080806E388B902D0D89001D0D88090333A
:100660008E6B8F51080802E2889F8D8145D08DA145
:1006700003D08D91888D40D088AD3ED08E2B8E5189
:1006800007083AE28E6B889D90BF04D090AD02D0EF
:1006900090C091F090AF0AD090BD08D090C095F076
:1006A00091C096F00101686B676B000190AF24D098
:1006B00090AD22D0903D01D01FD090510F0B020180
:1006C0001C6F000190A903D00101F88902D001013B
:1006D000F89902011C5304E10101C12D0BD0020164
:1006E000000188870101666B656B020158A103D088
:1006F0000101CB9F0201000189A803D0652BD8B46A
:10070000662B6851665D07E303E16551675D03E2AF
:100710005E9A666B656B6E51070807E303E16D51E6
:10072000CA0803E36D2BD8B46E2B6D51CB0804E1DE
:100730006E51070801E12C926A51070807E303E1B3
:100740006951CF0803E3692BD8B46A2B69511F089C
:1007500015E16A5313E10201338D8EAE06D07E9E01
:100760000101F881050EF96F02018EAC06D07E9C66
:100770000101F883050EF96F020100016951D008EB
:1007800011E16A5107080EE12CA201D02B6A86B54F
:1007900003D086B701D07A860201339D0101F8911A
:1007A000F89300010E01339B0001D9EF02F0000124
:1007B0006A6B696B2B5204E10101DE89DE9700014F
:1007C000010E2B6E7A96020133AD0CD0339DCAB167
:1007D00005D00101C151030804E10201338F010179
:1007E000F96B02010E0133910001D9EF02F0000113
:1007F0006E6B6D6B2C820E0133930001D9EF02F00A
:1008000000017F5306E1805304E17E6B7D6B846BB6
:10081000836B7F2BD8B4802B7EC084F07DC083F0A7
:100820000E0133950001D9EF02F00001735306E188
:10083000745304E1766B756B786B776B732BD8B45C
:10084000742B76C078F075C077F00E0133970001F5
:10085000D9EF02F0D8B204D0090EEA6E390EE96E73
:10086000006A016A026A036A0901396B3A6B3B6BE1
:100870003C6B38513711361135112CE0200E3D6F8D
:10088000D890313732373337343739373A373B3707
:100890003C3738513C5D08E137513B5D05E136514D
:1008A0003A5D02E13551395D0FE33551395F36511B
:1008B000D8A0363D3A5F3751D8A0373D3B5F38511D
:1008C000D8A0383D3C5FD88000360136023603366A
:1008D0003D2FD6D739C9EFFF3AC9ECFF3BC9ECFF32
:1008E0003CC9ECFF0001120009012F51016A2E5D85
:1008F00003E22EC900F00CD0006A080E306F2E37CC
:1009000000362F51005CD8B0006E0136302FF7D77B
:1009100000011200016A026A006A036A090130518B
:1009200002E12F5118E0100E316FD8902D372E377D
:10093000003603363051035C02E12F51005C07E3BF
:100940002F51005ED8A003063051035ED8800136D7
:100950000236312FEAD7000112000001CD50CECF70
:1009600003F009012D6FCECF2EF9B00E2D273C0ECE
:100970002E232EC9CEFF2DC9CDFF0001752BD8B473
:10098000762B7D2BD8B47E2B6B2BD8B46C2B01012E
:10099000612BD8B4622B632BD8B4642BC15303E111
:1009A000652BD8B4662B672BD8B4682B010E0601D3
:1009B000CE27D8B0CF2BD8B4D02BD8B4D12BD88257
:1009C000090EEA6E2D0EE96ED1C634F9D0C633F9A0
:1009D000CFC632F9CEC631F90901386B376B366BA9
:1009E000640E356F000136DF30C934F92FC933F991
:1009F0002EC932F92DC931F9090131532BE1325396
:100A000029E1335327E1345325E1010E0601D227B2
:100A1000D8B0D32BD8B4D42BD8B4D52B000186B5FD
:100A200002D086A705D08AA602D07A9601D07A860F
:100A30000101F55301E0F507F9530BE0F907F9530C
:100A400008E1F8A102D0F8917E8EF8A302D0F893C5
:100A50007E8C090100018A5301E08A076B510A0864
:100A6000D8A464D16C53D8A461D12CA401D02D2A70
:100A700002013B2BD8B43C2B01016D2BD8B46E2B5B
:100A8000020144AD03D0022BD8B4032B2CA608D00E
:100A90002E3C03D02F3C01D003D02E2AD8B42F2ACD
:100AA0002CAA08D0323C03D0333C01D003D0322AE8
:100AB000D8B4332A2CAE08D0363C03D0373C01D012
:100AC00003D0362AD8B4372A3AA208D03B3C03D008
:100AD0003C3C01D003D03B2AD8B43C2A3AA609D0EA
:100AE0003F3C03D0403C01D004D03F2AD8B4402A38
:100AF00002D0406A3F6A3AA809D0413C03D0423C48
:100B000001D004D0412AD8B4422A02D0426A416AB4
:100B10003AAA08D0433C03D0443C01D003D0432A36
:100B2000D8B4442A3AAE08D0473C03D0483C01D060
:100B300003D0472AD8B4482A4BA208D04C3C03D053
:100B40004D3C01D003D04C2AD8B44D2A4BA608D036
:100B5000503C03D0513C01D003D0502AD8B4512A84
:100B60005EA003D05C2AD8B45D2A1DA116D01DA3B7
:100B700014D01E2BD8B41F2B1F51160805E2FF0AF4
:100B800008E11E51700805E30101FB51010803E271
:100B900002011D85010104D002011F6B1E6B0101C2
:100BA00002011DA904D0242BD8B4252B02D0256B1B
:100BB000246B1DAB04D0262BD8B4272B02D0276B77
:100BC000266B2551010808E2FF0A03E1245157086A
:100BD00003E21D8D256B246B2751010808E2FF0AF3
:100BE00003E12651570803E21D8D276B266B30A1C8
:100BF00004D02C2BD8B42D2B02D02D6B2C6B30A312
:100C000004D02E2BD8B42F2B02D02F6B2E6B2D514E
:100C1000010808E2FF0A03E12C51570803E230857E
:100C20002D6B2C6B2F51010808E2FF0A03E12E51B6
:100C3000570803E230852F6B2E6B4BAA03D0562A40
:100C4000D8B4572A4BAC03D0582AD8B4592A4BAE43
:100C500003D05A2AD8B45B2A575203E156501D08D4
:100C600003E2000186850201595203E158501D0834
:100C700005E24BBA03D00001868702015B5203E113
:100C80005A501D0803E20001868D02015B5203E108
:100C90005A50630803E20001878102010001855375
:100CA00040E00101CC2BD8B4CD2B0601C52D1DD0C1
:100CB000C6531BE10101C2510A0DF3CF2DF9090101
:100CC000C3C12EF9060E2F6F00010EDE015009017F
:100CD0002D250101CDBF07D0CD5302E1CC5D03E34B
:100CE000CD6BCC6BCB831CD006018C0E09012E6F13
:100CF000A00E2D6FECC130F9EBC12FF900010ADE17
:100D000002C003F001500101CDBF0AD00350CD5DF8
:100D100007E303E10150CC5D03E3CD6BCC6BCB83E8
:100D200000016C6B6B6B0101DE91000101016151EF
:100D3000700810E1625117080DE15F2BD8B4602BE9
:100D4000626B616B5E2B5E510E0804E25E6B00010C
:100D50008D890101645106080AE2FF0A03E163512B
:100D6000CF0805E2646B636B000188950101665151
:100D700000080DE2FF0A03E16551F30808E2010EE5
:100D8000666FF40E656F000188970101F89968514C
:100D900000080FE2FF0A03E16751F3080AE2010EBF
:100DA000686FF40E676F0001889702011C6B0101E8
:100DB000F8990E0138910001D9EF02F00E0136AB1F
:100DC000FED79CCF22F098CF01F022A202D09C98AF
:100DD0009C880001EEEF06F00001F0D701C0D3F0CF
:100DE0000601C4C603F0C351C32BD8B4C42B0901F8
:100DF0002D6FCF0E2D25E96E040E0320EA6ED3C0B1
:100E0000EFFF0601C451000807E2FF0A03E1C351E6
:100E1000F30802E2C46BC36B020144870E01369BE8
:100E20000001D9EF02F09BEF10F007016E6B6D6BC4
:100E30006C6B6B6B6A6B69516A5D26E2070E706FB3
:100E40006B0E6F6F6A516F25016E000E7021036E7D
:100E50000150E96E03C0EAFF6A516725716F000E09
:100E60006821726FF2CF73F7F29E72C775FF71C778
:100E700074FF779C779E77807650779C778E73BFD0
:100E8000F28EEF6E6A2BD7D76BC700F06CC701F0FC
:100E90006DC702F06EC703F0000112000801AC51EB
:100EA000AE03F3CF01F0F4CF00F0AF03F350002610
:100EB000AD51AE03F3500020026E00011200070195
:100EC000546B536BF2CF58F7F29E030E756EEF0E14
:100ED000746E779C779E77807650779C778E58BF1C
:100EE000F28E556F576B57510F0844E3EF0E57259D
:100EF000586F030E596FD894D8B0592B310E5A6FD2
:100F00005B6BF2CF5CF7F29E59C775FF58C774FF51
:100F1000779C779E77807650779C778E5CBFF28E39
:100F2000566F5551565D1AE3555303E1563D01D0B6
:100F300015D0D8905735440F586F596BD8B0592BEE
:100F400059C768F7676F020E696F00016EDF01C055
:100F500054F700C053F757C75DF107015651555D6F
:100F600007E2555303E1563D01D002D056C755F76D
:100F7000572BB9D753C701F054C702F00001120034
:100F80000701766B756B786B010E776F735302E117
:100F9000745330E073510F0B006E036A796F03C016
:100FA0007AF778C7ADF877C7ACF803C0AFF8E8CFE9
:100FB000AEF8000173DF0150070175270250762358
:100FC00078C7ADF877C7ACF80801AF6B0A0EAE6F03
:100FD000000164DF02C078F701C077F707017433BE
:100FE00073337433733374337333743373330F0E57
:100FF0007417CCD775C701F076C702F00001120054
:101000000801A76BA66BA96B010EA86FA45302E1A0
:10101000A55343E01B6AF2BE1B8EF29EA5C82EF9B3
:10102000A4C82DF90901306B0A0E2F6F000172DC84
:101030001BBEF28E00C0AAF803C0ABF8A9C8ADF879
:10104000A8C8ACF803C0AFF800C0AEF8000126DFB6
:1010500001500801A6270250A723A837A937A837AF
:10106000A937A837A937A837A937F00EA8171B6AE0
:10107000F2BE1B8EF29EA5C82EF9A4C82DF9090157
:10108000306B0A0E2F6F000145DC1BBEF28E02C0D2
:10109000A5F801C0A4F80801B9D7A6C801F0A7C8EF
:1010A00002F00001120007017A6B79517A5D32E299
:1010B0007A5173257B6F000E74217C6F070E7E6F53
:1010C000750E7D6F7A517D25016E000E7E21036EB7
:1010D0000150E96E03C0EAFFEFCF7DF7F250006EDA
:1010E000F29E7CC775FF7BC774FF7DC776FF779C38
:1010F000779E77840F01550E786EAA0E786E7782F0
:1011000077B2FED77794779C778E0050F212070162
:101110007A2BCBD7000112000701BD6BBE91BF6BCC
:10112000C06BC26BC16BC56BC66BBE93BD518D25C9
:10113000E96E000E8E21EA6E8AC7EFFFC52BBD2B2C
:10114000BD518D25E96E000E8E21EA6E8BC7EFFF33
:10115000C52BBD2BC52BBD2BBD518D25E96E000EBA
:101160008E21EA6E8CC7EFFFC52BBD2BBD518D259F
:10117000E96E000E8E21EA6E8FC7EFFFC52BBD2BE7
:10118000BD518D25E96E000E8E21EA6E90C7EFFFEE
:10119000C52BBD2BBD518D25E96E000E8E21EA6E4B
:1011A00091C7EFFFC52B8FA10AD0BD2BBD518D2557
:1011B000E96E000E8E21EA6E92C7EFFFC52B010E7D
:1011C000C66FC6510308D8A09DD1C651010A0001BF
:1011D00005E0030A09E0010A0CE011D0010E070145
:1011E000C36F080EC46F0CD00701C36B070EC46F2A
:1011F00007D00701C36B060EC46F02D000010701C0
:10120000C3C7C0F7C451C05DD8B04DD1C62D48D0BA
:101210008FC700F0C051016E04E0D8900032012E5B
:10122000FCD7BE9100B0BE81BEA13AD0C051010A28
:1012300000010DE0030A10E0010A13E0070A16E0BE
:10124000010A19E0030A1CE0010A1FE023D094C739
:10125000C2F793C7C1F722D096C7C2F795C7C1F7A7
:101260001DD098C7C2F797C7C1F718D09AC7C2F761
:1012700099C7C1F713D09CC7C2F79BC7C1F70ED05F
:101280009EC7C2F79DC7C1F709D0A0C7C2F79FC7C5
:10129000C1F704D00701C26BC16B00010701BF2B6E
:1012A000C651020848E190C700F0C051016E04E049
:1012B000D8900032012EFCD7BE9100B0BE81BEA1F5
:1012C0003AD0C051000A00010DE0010A10E0030A03
:1012D00013E0010A16E0070A19E0010A1CE0030AFC
:1012E0001FE023D0A2C7C2F7A1C7C1F722D0A4C76D
:1012F000C2F7A3C7C1F71DD0A6C7C2F7A5C7C1F7DC
:1013000018D0A8C7C2F7A7C7C1F713D0AAC7C2F79A
:10131000A9C7C1F70ED0AEC7C2F7ADC7C1F709D094
:10132000ACC7C2F7ABC7C1F704D00701C26BC16B32
:1013300000010701BF2BC65103085AE191C700F015
:10134000C051016E04E0D8900032012EFCD7BE914E
:1013500000B0BE81BEA133D0C051000A00010BE035
:10136000010A0EE0030A11E0010A14E0070A17E07F
:10137000010A1AE01ED0B2C7C2F7B1C7C1F71DD02B
:10138000B4C7C2F7B3C7C1F718D0B6C7C2F7B5C75D
:10139000C1F713D0B8C7C2F7B7C7C1F70ED0BAC7E5
:1013A000C2F7B9C7C1F709D0BCC7C2F7BBC7C1F7FD
:1013B00004D00701C26BC16B00010701BF2BBF53F3
:1013C00017E0BEA115D0BE91BD2BBD518D25E96E94
:1013D000000E8E21EA6EC2C7EFFFC52BBD2BBD519B
:1013E0008D25E96E000E8E21EA6EC1C7EFFFC52B79
:1013F000C62D01D003D0C651020851E1BF534FE0C2
:10140000BEA14DD0BE91BF51010B2DE0BD2BBD51F2
:101410008D25E96E000E8E21EA6EC2C700F0003AFB
:10142000F00E00160050F00BC96FC151F00B006EAA
:10143000003A0F0E00160050C911EF6EC52BBD2BE0
:10144000BD518D25E96E000E8E21EA6EC1510F0B44
:10145000006E003AF00E001600C0EFFFBE830601DA
:10146000DF951ED00701BD518D25E96E000E8E213E
:10147000EA6EC2510F0BEF10EF6E0601DFB503D01D
:101480000701C52B06010701BD2BBD518D25E96E56
:10149000000E8E21EA6EC1C7EFFFC52BBE93060179
:1014A0000701C02BAFD6BEA30ED0BD518D25E96E6E
:1014B000000E8E21EA6EEF50F00BEF6EC52B060189
:1014C000DF850701BE93C65102081AE190AF18D01C
:1014D000B0C7C2F7AFC7C1F7BD2BBD518D25E96EAF
:1014E000000E8E21EA6EC2C7EFFFC52BBD2BBD518A
:1014F0008D25E96E000E8E21EA6EC1C7EFFFC52B68
:10150000C62B5FD6C5C701F000016CEF0BF00801D8
:10151000A869A769AA6BA651A607000A25E0AA51E7
:10152000AA2BA425E96E000EA521EA6EEF50A71B99
:10153000A96BA951070817E3A751010B006E036AB5
:10154000005003100BE0D890A831AC6FA731AB6FFF
:10155000010AA76FAC51A00AA86F03D0D890A83396
:10156000A733A92BE6D7D7D7A7C801F0A8C802F0A0
:10157000000112000E0136A9FED7996E000112007B
:10158000016603D0026602D007D0022A00C0EEFF37
:10159000012EFCD7022EFAD71200030E07017E257A
:1015A000E96E000E7F21EA6EEF50036A806F03C080
:1015B00081F7805114080FE181530DE1040E7E255F
:1015C000E96E000E7F21EA6EEF50F0090101B515BA
:1015D0000701826F08D0040E7E25E96E000E7F2180
:1015E000EA6EEFCF82F7050E7E25E96E000E7F21B1
:1015F000EA6EEF50DC0B836F060E7E25E96E000E5F
:101600007F21EA6EEFCF84F7800E8B6F010E8A6F19
:1016100080C78CF7060E8E6FE40E8D6F82C78FF732
:1016200083C790F784C791F745C292F746C293F7F4
:1016300047C294F748C295F749C296F74AC297F74E
:101640004BC298F74CC299F74DC29AF74EC29BF71E
:101650004FC29CF750C29DF751C29EF752C29FF7EE
:1016600053C2A0F754C2A1F755C2A2F756C2A3F7BE
:1016700057C2A4F758C2A5F759C2A6F75AC2A7F78E
:101680005BC2A8F75CC2A9F75DC2AAF75EC2ABF75E
:101690005FC2ACF760C2ADF761C2AEF762C2AFF72E
:1016A00063C2B0F764C2B1F765C2B2F766C2B3F7FE
:1016B00067C2B4F768C2B5F769C2B6F76AC2B7F7CE
:1016C0006BC2B8F76CC2B9F76DC2BAF76EC2BBF79E
:1016D0006FC2BCF7000120D501C085F7070EEA6E86
:1016E000160EE96E060EE26EE40EE16E07018551FC
:1016F000016E04E0E6CFEEFF012EFCD780517808A2
:10170000D8A4B1D08153D8A4AED0866B0101F8AF74
:1017100008D0CBA106D0C151010803E30701868F91
:101720000101F8AF0AD0CBBF02D0CBB903D0C15171
:10173000020803E10701868D0101000EF8B9010ED0
:10174000006E003A0036E00E0016005007018613C6
:1017500000018539006EF00E001600500701861357
:101760000101855317E0000E8EBF010E006E00369A
:1017700000360036F80E0016005007018613000EE2
:1017800001018EB7010E006ED8900036005007019F
:1017900086130101000E8EB9010E006E0036003670
:1017A000FC0E00160050070186130101E95302E107
:1017B000EA5306E0000EE6B3010E070186130101AD
:1017C000036A07018551160FE96E070E0320EA6EC2
:1017D00086C7EFFF852B1CC286F70101FFAF03D040
:1017E0000701868F0101036A07018551160FE96E13
:1017F000070E0320EA6E86C7EFFF852B036A85512B
:10180000160FE96E070E0320EA6E000E0101E6B521
:10181000010E006E07018C6BE8B08C8F000E010189
:101820008FA3010E006E003A00360036C00E00167F
:10183000005007018C13000E0101CBB5010E07010A
:101840008E6F000E0101CBB7010E07018E11006EE5
:10185000003A0036E00E001600508C11000189118C
:10186000EF6E0701852B85C718F7070E0801A56FD6
:10187000160EA46F85C7A6F8000149DE02C088F7DE
:1018800001C087F7036A07018551160FE96E070E3D
:101890000320EA6E87C7EFFF852B036A8551160F79
:1018A000E96E070E0320EA6E88C7EFFF896B895146
:1018B000855D0FE3036A8951160FE96E070E032059
:1018C000EA6EEFCF8AF78A51000154DE0701892BB7
:1018D000EED7060EEA6EE40EE96E006A026A320E78
:1018E000016E00014DDE070EEA6E160EE96E006A0B
:1018F000026A320E016E44DE12000701746B756BD2
:10190000766B776B786B796B7A6B7B6B7C6B7D6BB3
:101910007351040A000120E0050A2DE0090A3BE0AA
:101920000A0A49E0010A57E0060A64E0030AD8B44B
:1019300070D0010AD8B47DD00E0AD8B48BD0030A77
:10194000D8B498D0010AD8B4A5D0070AD8B4B4D076
:10195000010AD8B4C4D0D3D0020E0701776F010EAC
:10196000786F796B810E7A6F070E7F6F740E7E6FC2
:10197000000113DEC4D0020E0701776F010E786FED
:10198000040E796F810E7A6F070E7F6F740E7E6F73
:10199000000103DEB4D0020E0701776F010E786FED
:1019A000F70E796FBF0E7A6F070E7F6F740E7E6F22
:1019B0000001F3DDA4D0020E0701776F010E786FEE
:1019C000800E796F810E7A6F070E7F6F740E7E6FB7
:1019D0000001E3DD94D0020E0701776F010E786FEE
:1019E000796B830E7A6F070E7F6F740E7E6F000126
:1019F000D4DD85D0020E0701776F010E786F796B09
:101A00009D0E7A6F070E7F6F740E7E6F0001C5DD2D
:101A100076D0020E0701776F010E786F400E796F56
:101A2000810E7A6F070E7F6F740E7E6F0001B5DD39
:101A300066D0020E0701776F010E786FDAC679F76C
:101A40000701A10E7A6F070E7F6F740E7E6F000183
:101A5000A4DD55D0020E0701776F010E786F040EDA
:101A6000796F810E7A6F070E7F6F740E7E6F0001A3
:101A700094DD45D0020E0701776F010E786FC40E1A
:101A8000796FBF0E7A6F070E7F6F740E7E6F000145
:101A900084DD35D0020E0701776F0101B551F10BDE
:101AA0000701786F796B810E7A6F070E7F6F740E66
:101AB0007E6F000172DD23D0020E0701776F0101F6
:101AC000B551F00B0701786FC40E796FBF0E7A6FB6
:101AD000070E7F6F740E7E6F00015FDD10D0020E67
:101AE0000701776F010E786F840E796F810E7A6F20
:101AF000070E7F6F740E7E6F00014FDD00D0120065
:101B000070C763F26FC762F20601C52D18D0C653C5
:101B100016E10101A3510201635DD8B002D00601B4
:101B20000ED008E162510101A25DD8A002D00601E9
:101B300006D00201A3C163F2A2C162F20601C5533D
:101B400018E1C65316E10101A5510201635DD8B049
:101B500002D006010ED008E162510101A45DD8A0B7
:101B600002D0060106D00201A5C163F2A4C162F24F
:101B7000060102016251375D03E16351385D10E0F7
:101B80000701746B640E736F786B776B63C276F7C3
:101B900062C275F7020E796F000153EC08F0020182
:101BA00063C238F262C237F263C274F762C273F77B
:101BB0000001C0EC07F002C024F001C023F01B6A52
:101BC000F2BE1B8EF29E26C02EF925C02DF909010A
:101BD000306B0A0E2F6F00018AEC04F01BBEF28EF0
:101BE00002C074F701C073F724C0ADF823C0ACF88D
:101BF00002C0AFF801C0AEF800014EEC07F002C021
:101C000024F001C023F01B6AF2BE1B8EF29E24C09A
:101C10002EF923C02DF90901306B640E2F6F0001DE
:101C20008AEC04F01BBEF28E02C024F001C023F047
:101C300024C031F023C030F026C035F025C034F088
:101C40000701712D05D0020E736F000156DE0701EA
:101C5000725308E138C2C9F637C2C8F663C2E2F16E
:101C600062C2E1F1000112006AC76FF269C76EF249
:101C700002016E51395D03E16F513A5D34E00701B5
:101C8000746B660E736F786B776B6FC276F76EC28C
:101C900075F7020E796F000153EC08F0020158BD90
:101CA0001ED0588DF250006EF29E756A0E0E746E44
:101CB000010E766E779C779E77840F01550E786EB5
:101CC000AA0E786E778277B2FED77794779C778E5C
:101CD0000050F212040E0601DA6F04D00201040E65
:101CE0000601DA6F02016FC23AF26EC239F26FC2B8
:101CF00074F76EC273F70001C0EC07F002C036F251
:101D000001C035F20201448307016B2D05D0070E97
:101D1000736F0001F2DD0701000112000101852D42
:101D200001D006D08551020803E08551030802E185
:101D30008E8101D08E91865307E1875305E1885348
:101D400003E1895301E18E918551040802E18E83FC
:101D500001D08E93000112000701576B57510C08F8
:101D600042E36A0E5725586F596BD8B0592B59C7A3
:101D700068F7676F040E696F000115EC07F003C088
:101D800056F702C055F701C054F700C053F70101E0
:101D90005B510701565D24E314E101015A5107012B
:101DA000555D1EE30EE1010159510701545D18E331
:101DB00008E153510101585DD8A002D0070110D0AD
:101DC000070156C75BF155C75AF154C759F153C7BC
:101DD00058F1573101015C6F5C333F0E5C1707010E
:101DE000040E5727BBD7000149EF14F0F2CF53F789
:101DF000F29E756A180E746E779C779E7780765087
:101E0000779C778E070153BFF28E016E0101AA9174
:101E100001B0AA81F2CF53F7F29E756A190E746E63
:101E2000779C779E77807650779C778E070153BF9B
:101E3000F28E016E0101AA9301B0AA83F2CF53F78B
:101E4000F29E756A1A0E746E779C779E7780765034
:101E5000779C778E070153BFF28E016E0101AA9520
:101E600001B0AA85F2CF53F7F29E756A200E746E08
:101E7000779C779E77807650779C778E070153BF4B
:101E8000F28E016E0101AA9701B0AA87F2CF53F733
:101E9000F29E756A1B0E746E779C779E77807650E3
:101EA000779C778E070153BFF28E0101AB6FF2CFA3
:101EB00053F7F29E756A1C0E746E779C779E77803E
:101EC0007650779C778E070153BFF28E0101AC6F7D
:101ED000F2CF53F7F29E756A1D0E746E779C779E53
:101EE00077807650779C778E070153BFF28E010181
:101EF000AD6FAAA155D0AF6B800EAE6FB26BAB5178
:101F0000B25D48E2D890B235036A730F016E020EDB
:101F1000032201C053F7070103C054F7AFC168F7AC
:101F2000AEC167F7020E696F000115EC07F054C7E8
:101F3000EAFF53C7E9FF00C0EFFF01C0ECFFD890F4
:101F40000101B235036A730FE96E020E0320EA6ED7
:101F5000ECCF54F7ED52EFCF53F70701545135084A
:101F600012E2FF0A03E1535100080DE2D89001018B
:101F7000B235036A730FE96E020E0320EA6EEC6A53
:101F8000ED52EF6A0701020E0101AE27000EAF23EA
:101F9000B22BB5D7D890AB310201726F70890101B5
:101FA000AAA333D0AF6BA80EAE6FB26BAC51B25DCB
:101FB00024E2D890B235036AA00F016E020E03220C
:101FC00001C053F7070103C054F7AFC168F7AEC1B2
:101FD00067F7020E696F000115EC07F054C7EAFFBE
:101FE00053C7E9FF00C0EFFF01C0ECFF020E010183
:101FF000AE27000EAF23B22BD9D702019D89D8900E
:102000000101AC3102019F6F0101AAA538D0AF6B6D
:10201000D00EAE6FADC1D4F2AD51050DF3CFADF121
:102020000201D0890101B26BAD51B25D28E2036AB1
:10203000B2C102F0D890023603360250D50F016EBD
:10204000020E032201C053F7070103C054F7AFC1CA
:1020500068F7AEC167F7020E696F000115EC07F073
:1020600054C7EAFF53C7E9FF00C0EFFF01C0ECFF10
:10207000020E0101AE27000EAF23B22BD5D7AAA7BF
:1020800004D002014485CA810101010EAF6FCA0E5E
:10209000AE6FAFC168F7AEC167F7020E0701696F97
:1020A000000115EC07F001C0CCF200C0CBF2020E2B
:1020B0000101AE27000EAF23AFC168F7AEC167F7CD
:1020C000020E0701696F000115EC07F001C0CEF2A6
:1020D00000C0CDF2020E0101AE27000EAF23AFC14A
:1020E00068F7AEC167F7010E0701696F000115ECD3
:1020F00007F00201CF9100B0CF81010E0101AE27A0
:10210000000EAF23AFC168F7AEC167F7010E07013C
:10211000696F000115EC07F00201CF9300B0CF8387
:10212000000164EF14F095699669856B826B816B91
:102130003A8213EF07F0F2CF53F7F29E756A0D0E55
:10214000746E779C779E77807650779C778E0701A8
:1021500053BFF28E016E0101AA9B01B0AA8BF2CF90
:1021600053F7F29E756A100E746E779C779E778097
:102170007650779C778E070153BFF28E016E010176
:10218000AA9F01B0AA8FF2CF53F7F29E756A1E0E76
:10219000746E779C779E77807650779C778E070158
:1021A00053BFF28E016E0101BD9901B0BD89F2CF1E
:1021B00053F7F29E756A110E746E779C779E778046
:1021C0007650779C778E070153BFF28E016E010126
:1021D000BD9501B0BD85F2CF53F7F29E756A120E20
:1021E000746E779C779E77807650779C778E070108
:1021F00053BFF28E016E0101BD9701B0BD87010E84
:102200000701686FD60E676F020E696F000115EC4B
:1022100007F001C0B8F100C0B7F1F2CF53F7F29E5A
:10222000756A0A0E746E779C779E77807650779CDD
:10223000778E070153BFF28E0601C66BC56FF2CFD2
:1022400053F7F29E756A220E746E779C779E7780A4
:102250007650779C778E070153BFF28E0101B66FDF
:10226000F2CF53F7F29E756A240E746E779C779EB8
:1022700077807650779C778E070153BFF28E0101ED
:10228000C46FC45301E0BD8BC451020801E1BD8F8E
:10229000F2CF53F7F29E010E756ED80E746E779CD6
:1022A000779E77807650779C778E070153BFF28EAA
:1022B0000101C46FF2CF53F7F29E010E756ED90E75
:1022C000746E779C779E77807650779C778E070127
:1022D00053BFF28E0101C56FF2CF53F7F29E756ABC
:1022E0002C0E746E779C779E77807650779C778ED5
:1022F000070153BFF28E016E0101C09901B0C08980
:10230000F2CF53F7F29E756A0C0E746E779C779E2F
:1023100077807650779C778E070153BFF28E016EDF
:1023200001018F9101B08F81F2CF53F7F29E756A50
:10233000260E746E779C779E77807650779C778E8A
:10234000070153BFF28E01018D6F010E0701686F07
:10235000DA0E676F020E696F000115EC07F001C01D
:10236000A1F100C0A0F1010E0701686FDC0E676FDC
:10237000020E696F000115EC07F001C09DF100C06D
:102380009CF1010E0701686FDE0E676F020E696F28
:10239000000115EC07F001C09FF100C09EF1F2CFE3
:1023A00053F7F29E756A270E746E779C779E77803E
:1023B0007650779C778E070153BFF28E0101C26F72
:1023C000F2CF53F7F29E756A280E746E779C779E53
:1023D00077807650779C778E070153BFF28E01018C
:1023E000C36F010E0701686FEA0E676F020E696F17
:1023F000000115EC07F001C0ECF100C0EBF1010E9B
:102400000701686FD00E676F020E696F000115EC4F
:1024100007F001C0D3F100C0D2F1010E0701686FCF
:10242000D20E676F020E696F000115EC07F001C054
:10243000D5F100C0D4F1F2CF53F7F29E756A290EA0
:10244000746E779C779E77807650779C778E0701A5
:1024500053BFF28E266A256E26C0ADF825C0ACF8B3
:102460000801AF6B0A0EAE6F00014EEC07F002C020
:1024700026F001C025F0F2CF53F7F29E756A2A0EBE
:10248000746E779C779E77807650779C778E070165
:1024900053BFF28E0101C16F010E0701686FE00E9C
:1024A000676F020E696F000115EC07F001C0D1F1F2
:1024B00000C0D0F1F2CF53F7F29E756A2B0E746E06
:1024C000779C779E77807650779C778E070153BFF5
:1024D000F28E0101E36F010E0701686FE20E676F74
:1024E000020E696F000115EC07F001C0E8F100C0B1
:1024F000E7F1010E0701686FE40E676F020E696F66
:10250000000115EC07F001C0EAF100C0E9F1060195
:10251000C52D31D0C6532FE10201598100015FEC76
:1025200007F002C054F701C053F702C074F701C0AE
:1025300073F7C0EC07F002C019F201C018F219C21B
:10254000CFF118C2CEF119C213F218C212F219C299
:102550000FF218C20EF20FC211F20EC210F219C21F
:10256000A5F818C2A4F800EC08F002C065F201C09A
:1025700064F249D006010201599100015FEC07F0B5
:1025800002C054F701C053F702C074F701C073F7DB
:10259000C0EC07F002C0FFF101C0FEF1FFC1CFF1B6
:1025A000FEC1CEF1FFC117F2FEC116F2FFC101F26A
:1025B000FEC100F201C211F200C210F20101FFAF30
:1025C00017D0FE1D0701536F0101FF1D0701546F56
:1025D000532BD8B4542B54C7A5F853C7A4F8000103
:1025E00000EC08F002C065F201C064F20CD00101F9
:1025F000FFC1A5F8FEC1A4F8000100EC08F002C07C
:1026000065F201C064F2F2CF53F7F29E756A0B0EC9
:10261000746E779C779E77807650779C778E0701D3
:1026200053BFF28E000A04E00201588303D0070171
:1026300002015893F2CF53F7F29E756A0E0E746E34
:10264000779C779E77807650779C778E070153BF73
:10265000F28E000A04E00201588D03D00701020146
:10266000589D010E456F576B566B0701686FE60E5C
:10267000676F020E696F000115EC07F001C0A3F14E
:1026800000C0A2F1010E0701686FE80E676F020E2D
:10269000696F000115EC07F001C0A5F100C0A4F1BD
:1026A0000701686B640E676F020E696F000115EC1D
:1026B00007F001C038F200C037F237C253F738C212
:1026C00054F737C26FF738C270F70701716B726B3E
:1026D000000180EC0DF00701686B660E676F020E5B
:1026E000696F000115EC07F001C03AF200C039F241
:1026F00039C253F73AC254F739C269F73AC26AF796
:1027000007016B6B000134EC0EF0F2CF53F7F29E31
:10271000756A130E746E779C779E77807650779CDF
:10272000778E070153BFF28E0101856F0701686B39
:10273000160E676F020E696F000115EC07F001C0FD
:1027400087F100C086F10701686B2E0E676F020EDD
:10275000696F000115EC07F001C089F100C088F134
:102760000701686B140E676F020E696F000115ECAC
:1027700007F001C08BF100C08AF18EEC0EF0F2CFB1
:1027800053F7F29E756A2D0E746E779C779E778054
:102790007650779C778E070153BFF28E00018B6FC6
:1027A00087C1A7F186C1A6F189C1A9F188C1A8F1A5
:1027B0000701686B680E676F020E696F000115EC08
:1027C00007F003C072F102C071F101C070F100C0E6
:1027D0006FF101016F531AE1705318E1715316E163
:1027E000725314E1010E0701686FEC0E676F040E5F
:1027F000696F000115EC07F003C072F102C071F1BE
:1028000001C070F100C06FF120D001010701746BAD
:10281000680E736F786B776B766B756B020E796FE2
:10282000000153EC08F0010E0701746FEC0E736F9A
:1028300072C178F771C177F770C176F76FC175F71C
:10284000040E796F000153EC08F00701686B400E2D
:10285000676F020E696F000115EC07F001C074F19B
:1028600000C073F10701686B420E676F020E696F5B
:10287000000115EC07F001C076F100C075F174C1DC
:1028800078F173C177F176C17AF175C179F1ACEF66
:102890000EF00201338533873383709970937095FE
:1028A000726B0B0E716F9D999D939D959F6B9E6FA3
:1028B000D099D093D46B1A0ED36FD26FD099D46BBA
:1028C000CA910001F6EF0EF0010E0601C76F00017C
:1028D0006FEF6FF088A5A4D007016F6B706B716B01
:1028E000726B736B746B756B766B776B786B796BE4
:1028F0007A6B7B6B7C6B7D6B7E6B806B7F6B036A13
:102900007E516F0FE96E070E0320EA6E010EEF6E27
:102910007E2B036A7E516F0FE96E070E0320EA6E6D
:10292000800EEF6E7E2B7E2B036A7E516F0FE96E59
:10293000070E0320EA6E800EEF6E7E2B036A7E5137
:102940006F0FE96E070E0320EA6E6EC7EFFF6E5140
:10295000060A000101E01AD007017E2B036A7E51AE
:102960006F0FE96E070E0320EA6E020163C2EFFFEC
:1029700007017E2B036A7E516F0FE96E070E03205D
:10298000EA6E020162C2EFFF02D000010201010EF5
:1029900007017E25716F010E7E25826F070E0801EB
:1029A000A56F6F0EA46F82C7A6F8000187EC0AF02E
:1029B00002C080F701C07FF707017E2B036A7E51BA
:1029C0006F0FE96E070E0320EA6E7FC7EFFF7E2BC5
:1029D000036A7E516F0FE96E070E0320EA6E80C70F
:1029E000EFFF816B81517E5D10E3036A81516F0FB0
:1029F000E96E070E0320EA6EEFCF82F782510001E5
:102A0000BAEC0AF00701812BEDD7070EEA6E6F0EC4
:102A1000E96E006A026A0F0E016E0001C0EC0AF056
:102A2000120001015D533CE1030E0701686FEB0EDC
:102A3000676F040E696F000115EC07F003C066F7BD
:102A400002C065F701C064F700C063F7010E07011B
:102A50006327D8B0642BD8B4652BD8B4662B6351E8
:102A6000A1080CE16451860809E1652D07D0665381
:102A700005E1310E6E6F00012DDF0701030E746F4B
:102A8000EB0E736F66C778F765C777F764C776F79D
:102A900063C775F7040E796F000153EC08F001016C
:102AA000000112000701676B686B696B6A6B6B6BE7
:102AB0006C6B6D6B6F6B6E6B036A6D51670FE96EBC
:102AC000070E0320EA6E010EEF6E6D2B036A6D5147
:102AD000670FE96E070E0320EA6E800EEF6E6D2B16
:102AE0006D2B036A6D51670FE96E070E0320EA6EC6
:102AF0007F0EEF6E010E6D25696F010E6D25716FF2
:102B0000070E0801A56F670EA46F71C7A6F8000134
:102B100087EC0AF002C06FF701C06EF707016D2B5A
:102B2000036A6D51670FE96E070E0320EA6E6EC7E8
:102B3000EFFF6D2B036A6D51670FE96E070E0320DF
:102B4000EA6E6FC7EFFF706B70516D5D10E3036A43
:102B50007051670FE96E070E0320EA6EEFCF71F731
:102B600071510001BAEC0AF00701702BEDD7070E86
:102B7000EA6E670EE96E006A026A060E016E0001D7
:102B8000C0EC0AF0120001015C5352E10701686BCE
:102B90007A0E676F040E696F000115EC07F003C031
:102BA00066F702C065F701C064F700C063F7010E65
:102BB00007016327D8B0642BD8B4652BD8B4662B33
:102BC0006351A10824E16451860821E1652D1FD0DD
:102BD00066531DE1320E6E6F00017CDE63DFF25042
:102BE000006EF29E756A7F0E746E766A779C779E91
:102BF00077840F01550E786EAA0E786E778277B2C1
:102C0000FED77794779C778E0050F2120701746B91
:102C10007A0E736F66C778F765C777F764C776F77C
:102C200063C775F7040E796F000153EC08F00101DA
:102C300000011200010E01015C25030B5C6F000115
:102C40008D9901015C51040DF3506A0F0701536F18
:102C5000546BD8B0542B54C774F7736F5BC178F7BB
:102C60005AC177F759C176F758C175F7040E796FD5
:102C7000000153EC08F087DF88EF71F088A5B3D02E
:102C800007016B6B6C6B6D6B6E6B6F6B706B716B4D
:102C9000726B736B746B756B766B776B786B796B30
:102CA0007A6B7C6B7B6B7E6B7D6B036A7A516B0FEF
:102CB000E96E070E0320EA6E010EEF6E7A2B036AAF
:102CC0007A516B0FE96E070E0320EA6E800EEF6EED
:102CD0007A2B7A2B036A7A516B0FE96E070E032069
:102CE000EA6E7E0EEF6E0101AAAB20D0AABD1ED007
:102CF000AAAF1CD0B9510601D25D006E0101BA51D4
:102D00000601D359016E0101BB510601D4590101DD
:102D1000BC510601D55900500101B75D07017D6F17
:102D200001500101B85907017E6F010107017A2B9B
:102D3000036A7A516B0FE96E070E0320EA6E7EC7B5
:102D4000EFFF7A2B036A7A516B0FE96E070E0320AF
:102D5000EA6E7DC7EFFF010E7A256D6F010E7A25B1
:102D6000806F070E0801A56F6B0EA46F80C7A6F8D1
:102D7000000187EC0AF002C07CF701C07BF7070175
:102D80007A2B036A7A516B0FE96E070E0320EA6E05
:102D90007BC7EFFF7A2B036A7A516B0FE96E070E40
:102DA0000320EA6E7CC7EFFF7F6B7F517A5D10E3F3
:102DB000036A7F516B0FE96E070E0320EA6EEFCFB7
:102DC00080F780510001BAEC0AF007017F2BEDD7A4
:102DD000070EEA6E6B0EE96E006A026A0F0E016E54
:102DE0000001C0EC0AF0120088A51ED00101DEA18E
:102DF00002D0000119D0010E07016E6F800E6F6FB7
:102E0000070E706F780E716FF10E726FE40E736FB4
:102E1000BF0E746F070E7F6F6E0E7E6F0001CDECDC
:102E20000AF00101DE81000112000101E32D30D022
:102E3000020158B702D001012BD00A0E07016E6FB4
:102E4000000148DD7E96020158970101E6B10CD0E1
:102E5000E683D5C6F4F1D4C6F3F1D3C6F2F1D2C6F7
:102E6000F1F10001C1DF010107016D5304E002012E
:102E7000448B0DD007010201348734AF03D0D189D0
:102E8000348B01D04491D0A901D0D183D09B0101D2
:102E900000011200020158A54FD007016C81010109
:102EA000E32D12D0020158B702D001010DD001016B
:102EB000E68707016D6B0001B8DF0101E6A304D0CE
:102EC00007016C9101018E9FE6A306D0E6B104D004
:102ED00007016C910101E68707016CA12ED0010169
:102EE000E691E6978F97080E07016E6F0001F2DCFE
:102EF0000101E6937E98020158950101855309E08E
:102F0000D5C697F1D4C696F1D3C695F1D2C694F141
:102F10008E89000169DF0201348701018EAB02D086
:102F20008E9B01D08C6B07016B5307E10201D09D92
:102F3000D09BD093D181D1830701000112000201FF
:102F4000D09370939D93D09BD1930101F897F895FE
:102F50000201589158B705D00101C15102080BE296
:102F600002010101E32D01D001D0E68107016D6B63
:102F700000015BDF0101020158A505D007016B6B61
:102F8000000188DF020158BB05D00101C1510208D0
:102F90000DE202017E940C0E07016E6F00019ADCB7
:102FA0000201589B7093709144990101020158B934
:102FB00005D00101C151020823E202010101E351E0
:102FC000000A000105E0010A09E0030A0DE011D042
:102FD0000E0E07016E6F00017DDC0BD00A0E07019B
:102FE0006E6F000177DC05D0100E07016E6F0001D7
:102FF00071DC7E96020158999D939D919D970101E8
:10300000E691000112000101AAAB06D0AABD04D0CE
:10301000AA8D000133DE0101000112005E90010162
:10302000DE9DC15301E1CB8F0001896B0101CB9182
:10303000CB994B92BD9D7E9E7E9C7F9087907D9C80
:103040000201349100017BDF090E0701736F00015B
:103050007DEC0CF05E965E9801018E9DE695020176
:10306000D09F34890401CE6BCD6B0201D197349D82
:10307000D199349B9D939D95709370950001C3DF0A
:103080000101CB9BCB9DCB95CB97F891F893F96B36
:10309000000112000701546B556B566B576B586B50
:1030A000596B5A6B5B6B5C6B5D6B5E6B5F6B606BE4
:1030B000616B626B636B656B646B036A6351540F86
:1030C000E96E070E0320EA6E010EEF6E632B036AB2
:1030D0006351540FE96E070E0320EA6E800EEF6E07
:1030E000632B632B036A6351540FE96E070E0320B1
:1030F000EA6E810EEF6E632B036A6351540FE96E23
:10310000070E0320EA6EDE0EEF6E632B036A635137
:10311000540FE96E070E0320EA6EAD0EEF6E632BBF
:10312000036A6351540FE96E070E0320EA6EBE0E68
:10313000EF6E632B036A6351540FE96E070E032091
:10314000EA6EEF0EEF6E632B036A6351540FE96E64
:10315000070E0320EA6E53C7EFFF010E6325566F7B
:10316000010E6325676F070E0801A56F540EA46F4B
:1031700067C7A6F8000187EC0AF002C065F701C036
:1031800064F70701632B036A6351540FE96E070E5E
:103190000320EA6E64C7EFFF632B036A6351540F89
:1031A000E96E070E0320EA6E65C7EFFF666B665196
:1031B000635D10E3036A6651540FE96E070E032046
:1031C000EA6EEFCF67F767510001BAEC0AF007012A
:1031D000662BEDD7070EEA6E540EE96E006A026A9E
:1031E0000F0E016E0001C0EC0AF01200030E070181
:1031F000545F0BE3070EEA6E540EE96EEF5005E0E4
:1032000002D000000400EF2EFCD7000112008E0E49
:10321000006E58C701F057C702F0036A015209E176
:1032200002C001F0026A080E005E015202E1006A6B
:1032300008D0D89001BE04D0023601360006F9D776
:10324000019E120007015B51D8B471D0006E5F512E
:10325000D8B46DD0002604E3810E002668E204D0C5
:103260007F0E005E64E363E05CC763F76051631B3D
:103270005C8F608F5E516203F4CF65F75D5161032F
:10328000F4CF03F0F3CF64F76203F3506527F450F3
:103290006423000E03225E516103F3506527F4504E
:1032A0006423000E026A032202225C516203F3507F
:1032B0006427F4500322000E02225C516103F35094
:1032C0000326F4500222000E016A01225E516003BF
:1032D000F3506427F4500322000E022201225D51B4
:1032E0006003F3500326F4500222000E01225C51C9
:1032F0006003F3500226F4500122002A01BE05D0DB
:1033000064370336023601360006000E64AF0AD079
:10331000032A02220122015005E1025003E1035079
:1033200001E1002A63BF018E63AF019E04D0006AF1
:10333000016A026A036A00011200800ED8A202D05C
:103340000701601B0701656B666B5CC764F7605122
:10335000641B5B51D8B4DFD0636F006E5F51D8B48B
:10336000E3D0635FD8B483D03EE360C769F7698F69
:1033700061C768F762C767F7666BD89069336833CF
:1033800067336633632FF8D764AF03D06581E0D02D
:10339000659163916589070EEA6E5E0EE96EEBD06A
:1033A000659964BF0AD063A113D06933683367336A
:1033B0006633002AD8B4C7D00BD069BF0CD0D890E0
:1033C00066376737683769370006D8B4BCD0F5D799
:1033D000658D6DD0659D5CC764F75CAF02D0698F69
:1033E000ABD0699FA9D05FC763F75FC700F05B519F
:1033F000635F5CC769F7698F5DC768F75EC767F78A
:10340000666BD8906933683367336633632FF8D7B8
:1034100064AF03D065839CD065936391658B070E81
:10342000EA6E620EE96EA7D0659B64BF0AD063A105
:1034300013D06933683367336633002AD8B483D036
:103440000BD069BF0CD0D8906637673768376937BB
:103450000006D8B478D0F5D7658F29D0659F60C7AE
:1034600064F760AF02D0698F67D0699F65D060C78D
:1034700069F7698F61C768F762C767F764AF04D0FF
:10348000699F658565D06595666B6391070EEA6EE9
:103490005E0EE96E70D064BF1CD05CC764F763A198
:1034A00006D06933683367336633002A4CE066AF71
:1034B0000BD0672B09E1682B07E1692B05E1693324
:1034C00068336733002A3FE065BD84D765BFC6D740
:1034D0001CD0800E691B69AF04D03AD060C764F776
:1034E0000AD05CC764F7695306E1685304E1675387
:1034F00002E1006A21D069BF08D0D89066376737EB
:1035000068376937002EF7D71ED064AF02D0698FB5
:1035100013D0699F11D05FC700F060C769F761C71A
:1035200068F762C767F708D05BC700F05CC769F748
:103530005DC768F75EC767F769C701F068C702F043
:1035400067C703F034D0006A016A026A036A2FD0A9
:10355000666B671F681F691F661F662B05E1672B77
:1035600003E1682B01E1692B65B112D765B354D72C
:1035700065B589D7B3D7EF50672705E3682B03E11B
:10358000692BD8B46381ED52EF50682703E3692BB0
:10359000D8B46381ED52EF50EFBE01D0800A6927A5
:1035A000D8B0638165B9FCD665BB3ED774D700013E
:1035B00012008E0E006E07015651005E57C702F0D2
:1035C00058C701F0028E005209E0D890025202E181
:1035D000015204E002320132002EF7D757AF05D076
:1035E000011E021E012AD8B4022A0001120007019E
:1035F0005F51D8B4A5D06B6F6351D8B4A1D06B5FC5
:1036000005E37F0E6B27D8B09BD006D0810E6B5F91
:10361000D8A096D0D8B494D06BC700F0016A026AE3
:10362000036A6A6B60C769F7698F61C768F762C729
:1036300067F7190E6B6F6651675F0DE2010E685FE9
:103640000AE2695F08E26A5F06E26A2B692B682B6F
:103650006651672728D06551685F12E2010E695FE5
:103660000FE26A5F0DE26A2B692B6551682766518C
:10367000672719E3682B17E1692B15E16A2B13D033
:1036800064518009695F0EE2010E6A5F0BE26A2BEA
:1036900064518009692765516827E9E3692BE7E1EF
:1036A0006A2BE5D703806B2F01D00BD0D8906737FA
:1036B000683769376A37D8900336023601366C3777
:1036C000BAD76CA106D0D8900132023203326C33E3
:1036D00002D0000635E06CBF1ED0D890673768373F
:1036E00069376A376651675F07E2010E685F04E277
:1036F000695F02E26A5F1AE36551685F05E2010EE5
:10370000695F02E26A5F12E364518009695F03E264
:10371000010E6A5F0BE3032A09E1022A07E1012A8D
:1037200005E1002A0DE001320232033260C76BF777
:1037300064516B1B6BAF02D0018E06D0019E04D08A
:10374000006A016A026A036A00011200B60E006E86
:10375000036A026A016A07015B515C115D115E1127
:1037600002E1006A0DD0D89001BE09D05B375C370A
:103770005D375E37033602360136002EF4D7019EE0
:103780000001120007015B51B6085B6F036A5CC75A
:103790005FF75C8FD8905C335D335E330332023267
:1037A000013200325B2FF6D75FAF0BD0001E011E37
:1037B000021E031E002AD8B4012AD8B4022AD8B4A3
:1037C000032A000112000801C06BC16B010EC26F19
:1037D000DA6AD96A080EC56FB80EC46F080EEA6EB1
:1037E000BC0EE96EC5C8E2FFC4C8E1FFC2C8C3F899
:1037F000D890E550EE02F350C023F450C123C32FFC
:10380000F7D7C0C8DEFFC1C8C0F8C16BD8B0C12BA4
:10381000C42BD8B4C52BC22BC2510508DFE100016F
:1038200012000F015F6B0400020E0701536FF80EC8
:10383000546F0001DBDC0701532FF9D760800000D3
:1038400060B0FED763CF27F064CF28F00101855127
:10385000010A000106E0030A69E0010AD8B4CBD0EE
:1038600032D1285203E127509E085DE228C058F764
:1038700027C057F7CCDC03C05EF702C05DF701C07C
:103880005CF700C05BF7910E0701626FED0E616F90
:103890007C0E606F5F6F0001D5DC03C056F702C07D
:1038A00055F701C054F700C053F7D88203C05EF744
:1038B00002C05DF701C05CF700C05BF74E0E070168
:1038C000626F620E616F1C0E606F840E5F6F00018D
:1038D00034DD03C04DF102C04CF101C04BF100C01A
:1038E0004AF14DC15EF74CC15DF74BC15CF74AC16F
:1038F0005BF70701626B616B200E606F820E5F6F7A
:103900000001A0DC03C059F702C058F701C057F707
:1039100000C056F74EDE02C04FF101C04EF101016A
:10392000AA8903D000010101AA99CED0285203E14F
:1039300027509F085DE228C058F727C057F767DC7B
:1039400003C05EF702C05DF701C05CF700C05BF723
:1039500007016269210E616F7D0E606F790E5F6FE6
:10396000000170DC03C056F702C055F701C054F7E0
:1039700000C053F7D88203C05EF702C05DF701C0F4
:103980005CF700C05BF78D0E0701626F280E616F58
:103990001D0E606F810E5F6F0001CFDC03C04DF123
:1039A00002C04CF101C04BF100C04AF14DC15EF7BD
:1039B0004CC15DF74BC15CF74AC15BF70701626B15
:1039C000616B200E606F820E5F6F00013BDC03C0F5
:1039D00059F702C058F701C057F700C056F7E9DDA4
:1039E00002C04FF101C04EF10101AA8903D00001CC
:1039F0000101AA9969D0285203E12750CC085FE25F
:103A000028C058F727C057F702DC03C05EF702C092
:103A10005DF701C05CF700C05BF7B90E0701626F8C
:103A2000FC0E616F470E606F7C0E5F6F00010ADC59
:103A300003C056F702C055F701C054F700C053F752
:103A4000D88203C05EF702C05DF701C05CF700C01A
:103A50005BF7140E0701626FAE0E616F1F0E606F91
:103A6000840E5F6F000169DC03C04DF102C04CF1B0
:103A700001C04BF100C04AF14DC15EF74CC15DF78A
:103A80004BC15CF74AC15BF70701626B616B200EAB
:103A9000606F820E5F6F000122EC19F003C059F7CE
:103AA00002C058F701C057F700C056F782DD02C0C8
:103AB0004FF101C04EF10101AA8903D000010101BB
:103AC000AA9902D000010101AAB906D04D6B4C6B36
:103AD0004B6B4A6B4F6B4E6B4FC1A5F84EC1A4F8B0
:103AE000000100EC08F002C067F201C066F2010EAE
:103AF0000F015F6F0400020E0701536FF80E546F41
:103B00000001F6EC18F00701532FF8D76080000091
:103B100060B0FED763CF29F064CF2AF02AC058F7EF
:103B200029C057F7000107EC19F003C05EF702C087
:103B30005DF701C05CF700C05BF70701626961696E
:103B4000790E606F7D0E5F6F000122EC19F003C0EB
:103B500045F102C044F101C043F100C042F145C14A
:103B60005EF744C15DF743C15CF742C15BF70701F3
:103B7000626B616B200E606F820E5F6F000122EC42
:103B800019F003C059F702C058F701C057F700C039
:103B900056F70FDD02C04FF201C04EF201016E5325
:103BA00004E16D511D08D8B0DAD20001805303E161
:103BB0007F51010805E27F51D8B480077F0702D00A
:103BC000806B7F6B7F5303E18053D8B41ED2835345
:103BD00003E18453D8B419D284C058F783C057F78F
:103BE00007EC19F003C05EF702C05DF701C05CF797
:103BF00000C05BF70A0E0701626FD70E616F230EDC
:103C0000606F780E5F6F000122EC19F003C056F769
:103C100002C055F701C054F700C053F780C058F7F1
:103C20007FC057F707EC19F003C062F702C061F7D5
:103C300001C060F700C05FF756C766F755C765F764
:103C400054C764F753C763F7D2DC03C05AF702C006
:103C500059F701C058F700C057F772C15EF771C13C
:103C60005DF770C15CF76FC15BF770DD03C05EF795
:103C700002C05DF701C05CF700C05BF703C062F7EC
:103C800002C061F701C060F700C05FF70701666B13
:103C9000656B7A0E646F880E636F0001A8DC5AC7EB
:103CA0005EF759C75DF758C75CF757C75BF703C0A6
:103CB00062F702C061F701C060F700C05FF722EC55
:103CC00019F003C05AF702C059F701C058F700C0F5
:103CD00057F703C05EF702C05DF701C05CF700C094
:103CE0005BF70701626B616B700E606F840E5F6F34
:103CF000000122EC19F003C055F102C054F101C0DB
:103D000053F100C052F10701566B556B80C054F758
:103D10007FC053F772C15EF771C15DF770C15CF788
:103D20006FC15BF7000112DD03C062F702C061F7EB
:103D300001C060F700C05FF70701666B656B7A0E24
:103D4000646F880E636F000152DC03C05AF702C033
:103D500059F701C058F700C057F756C75EF755C767
:103D60005DF754C75CF753C75BF7F0DC03C05EF741
:103D700002C05DF701C05CF700C05BF75AC762F78D
:103D800059C761F758C760F757C75FF722EC19F0BA
:103D900003C056F702C055F701C054F700C053F7EF
:103DA0005BC15EF75AC15DF759C15CF758C15BF75B
:103DB000CDDCD89203C05EF702C05DF701C05CF7AE
:103DC00000C05BF756C762F755C761F754C760F785
:103DD00053C75FF79DEC19F003C05EF702C05DF7B3
:103DE00001C05CF700C05BF7CDDC03C05BF102C033
:103DF0005AF101C059F100C058F101015B51C108ED
:103E000036E2FF0A0DE15A51370831E2FF0A08E1B4
:103E10005951DD082CE2FF0A03E15851000827E25E
:103E2000D882070EEA6E530EE96E1B6AF2BE1B8E35
:103E3000F29E5BC134F95AC133F959C132F958C104
:103E400031F9C20E0901386F380E376FDE0E366F4A
:103E5000356B00012AEC04F01BBEF28E56C75BF1F5
:103E600055C75AF154C759F153C758F101015BC105
:103E70005EF75AC15DF759C15CF758C15BF70001A5
:103E800065DC03C056F702C055F701C054F700C007
:103E900053F703C062F702C061F701C060F700C0CA
:103EA0005FF7600E0701666F1B0E656F1F0E646F74
:103EB000910E636F0001F7EC1AF003C07EF102C0AF
:103EC0007DF101C07CF100C07BF17EC159F77DC15D
:103ED00058F77CC157F77BC156F7D9EC1AF002C0EE
:103EE00080F101C07FF17EC15EF77DC15DF77CC1CD
:103EF0005CF77BC15BF70701626B616B480E606F1B
:103F0000850E5F6F000122EC19F003C05EF702C05E
:103F10005DF701C05CF700C05BF734DC03C056F707
:103F200002C055F701C054F700C053F7D882070EFE
:103F3000EA6E570EE96E1B6AF2BE1B8EF29E03C03C
:103F400034F902C033F901C032F900C031F9090176
:103F5000386B376B366B640E356F00012AEC04F05A
:103F60001BBEF28E5AC756F759C755F758C754F7B4
:103F700057C753F7EACF5CF7E9CF5BF75AC7BBF8EF
:103F800059C7BAF858C7B9F857C7B8F80801BF6B8E
:103F9000BE6BBD6B640EBC6F000115DC5CC7EAFF35
:103FA0005BC7E9FF01C082F100C081F155C159F73B
:103FB00054C158F753C157F752C156F7D9EC1AF00C
:103FC00002C057F101C056F157C1A5F856C1A4F877
:103FD00000EC08F002C069F201C068F280C1A5F8E7
:103FE0007FC1A4F800EC08F002C06BF201C06AF2D5
:103FF00082C1A5F881C1A4F800EC08F002C06DF2FE
:1040000001C06CF2806B7F6B0BD00101556B546B60
:10401000536B526B576B566B0201696B686B0001F7
:10402000745303E17351010805E27351D8B4740766
:10403000730702D0746B736B735303E17453D8B47A
:104040008BD0775303E17853D8B486D078C058F733
:1040500077C057F707EC19F003C05EF702C05DF7B1
:1040600001C05CF700C05BF70A0E0701626FD70E54
:10407000616F230E606F780E5F6F000122EC19F004
:1040800003C056F702C055F701C054F700C053F7FC
:1040900074C058F773C057F707EC19F003C062F704
:1040A00002C061F701C060F700C05FF756C766F74E
:1040B00055C765F754C764F753C763F7F7EC1AF0B1
:1040C00003C05AF702C059F701C058F700C057F7AC
:1040D00003C05EF702C05DF701C05CF700C05BF78C
:1040E0000701626B616B100E606F800E5F6F0001E5
:1040F00022EC19F003C05AF702C059F701C058F773
:1041000000C057F703C05EF702C05DF701C05CF75F
:1041100000C05BF70701626B616B200E606F820E5F
:104120005F6F000122EC19F003C049F102C048F1B1
:1041300001C047F100C046F149C159F748C158F7DD
:1041400047C157F746C156F7D9EC1AF002C051F2F1
:1041500001C050F2746B736B01016E6B6D6B0001EB
:10416000120007016D516F19800B716F6DAF05D093
:104170006C1F6D1F6C2BD8B46D2B6FAF05D06E1FED
:104180006F1F6E2BD8B46F2B6C516E03F3CF01F001
:10419000F4CF00F06F03F35000266D516E03F3501F
:1041A0000020026E71AF05D0011E021E012AD8B494
:1041B000022A0001120087907F804B820101CBB55B
:1041C00003D0CBB701D07D8C0001120007016B53E7
:1041D00039E0F2CF6CF7F29E756A0B0E746E779C25
:1041E000779E77807650779C778E6CBFF28E010831
:1041F00026E0F250006EF29E756A0B0E746E010E90
:10420000766E779C779E77840F01550E786EAA0E96
:10421000786E778277B2FED77794779C778E00504E
:10422000F212CDC16DF7CCC16CF707016F696E69F1
:10423000000197DF02C0CDF101C0CCF107015E861D
:104240005E9837D0F2CF6CF7F29E756A0B0E746EE3
:10425000779C779E77807650779C778E6CBFF28EB6
:10426000000A25E0F250006EF29E756A0B0E746E25
:10427000766A779C779E77840F01550E786EAA0E2A
:10428000786E778277B2FED77794779C778E0050DE
:10429000F212CDC16DF7CCC16CF707016F696E6981
:1042A00000015FDF02C0CDF101C0CCF107015E96D5
:1042B0005E88000112000101C0A91DD0036AC4C1BB
:1042C0006CF703C06DF70801AD6B0A0EAC6F03C04D
:1042D000AFF8C4C1AEF800014EEC07F00250036E17
:1042E00002014F5D38E3D8B402D0010104D04E5131
:1042F000015C31E201018EB902D0E6A302D08E8DBD
:1043000029D007016B5304E00201448B06D007015A
:104310000201D08DD083D191348701018FA701D0C4
:104320008F89070E07016E6F00016AEC14F07E881A
:1043300002015885010185530DE08E8FD5C69BF192
:10434000D4C69AF1D3C699F1D2C698F10001F4EC23
:1043500016F00101020100011200070EEA6E6B0E59
:10436000E96EEF5011E0060E016EBF0E006E040004
:10437000002EFDD7012EF9D77A0E006E002EFED743
:1043800000D00400EF2EEFD7120001018EBF4BD0FA
:10439000020158B502D0010146D058BF47D00101F3
:1043A0008EA13CD01B6AF2BE1B8EF29E87C12EF9F5
:1043B00086C12DF90901306B0A0E2F6F00018AECBE
:1043C00004F01BBEF28E0250036E01014F5D26E326
:1043D00003E101504E5D22E31B6AF2BE1B8EF29E8A
:1043E00089C12EF988C12DF90901306B0A0E2F6F92
:1043F00000018AEC04F01BBEF28E02C003F00150F3
:1044000001014F51025C0AE3D8B402D002010ED080
:104410004E51015CD8A002D0020108D08553D8A427
:1044200002D0020103D0E68525D002010101E69306
:10443000090E07016E6F00016AEC14F07E8602011E
:104440005887D19307016B5304E00201448B0BD0D2
:10445000070102013487D08BD08334AF03D0D189D8
:10446000348B01D044910101E695E6910001F4EC12
:1044700016F00101000112000101F8BF2BD0E35139
:10448000020828E1070169B102D0010123D06AB115
:1044900002D001011FD00101DEBF1BD069C7E4F1CA
:1044A0006AC7E5F1DEBD13D0DE8DD5C6F0F1D4C606
:1044B000EFF1D3C6EEF1D2C6EDF10F0E07016E6F2C
:1044C00000016AEC14F07E86020158890101DCD1FA
:1044D00001D0DE9F070169A39AD0020158A11DD027
:1044E0000101F89F5E965E987E9A07016AA30BD041
:1044F000020158B306D058835D6A5C6A5E807E9C78
:104500007D9C0AD00701020158A306D058935D6A2A
:104510005C6A5E807E9E7D9C7BD04BA203D00701AF
:104520006991020107016AA33AD002015883F2CFD0
:104530006BF7F29E756A0B0E746E779C779E778090
:104540007650779C778E07016BBFF28E010826E0CC
:10455000F250006EF29E756A0B0E746E010E766E4E
:10456000779C779E77840F01550E786EAA0E786E31
:10457000778277B2FED77794779C778E0050F212CD
:10458000CDC16DF7CCC16CF707016F696E69000191
:10459000E8DD02C0CDF101C0CCF1070138D0020145
:1045A0005893F2CF6BF7F29E756A0B0E746E779C80
:1045B000779E77807650779C778E07016BBFF28E5F
:1045C000000A25E0F250006EF29E756A0B0E746EC2
:1045D000766A779C779E77840F01550E786EAA0EC7
:1045E000786E778277B2FED77794779C778E00507B
:1045F000F212CDC16DF7CCC16CF707016F696E691E
:104600000001AFDD02C0CDF101C0CCF10701020114
:10461000070169A14DD06AA132D00101C15103083F
:104620000AE17E847E860201196B186B656B646BF0
:104630000101FF6BFE6B020158B120D00101F8B5FA
:1046400019D0C15301E1CB8F0001B5DD0101F8871D
:10465000F895020158A308D07E8E010E07016B6FFA
:104660000001B4DD06D002017E8C07016B6B0001F6
:10467000ADDD0101000103EC18F0020107016A51F0
:10468000010B16E1020158B10ED08EB60CD08EB8D7
:104690000AD08EB408D04BB206D00101AAAB07D025
:1046A000AABD05D0020100010EEC18F001010701BE
:1046B00069A520D06AA50AD0020158B505D0070126
:1046C0006B6B0001F8DD02010FD00701020158A554
:1046D0000BD0640E07016B6F00013FDE07016B6BAF
:1046E00000014AEC17F00201D187348D34BF01D0AC
:1046F000449107010101C151020823E3E32D21D0B8
:10470000070169B702D001011CD00101E6B719D039
:1047100007016AA70AD0020158B705D007016B6BE1
:10472000000133DE02010CD007010101E695020110
:1047300058A706D007016D6B000115EC17F00201B8
:104740000101C15102082DE3E3532BE1070169B9CF
:1047500002D0010126D06AA911D0020158B90CD0AB
:104760000D0E07016E6F00016AEC14F07E860201E7
:1047700058899D839D95348713D00701020158A95C
:104780000FD00E0E07016E6F00016AEC14F07E96DA
:10479000020158999D939D919DA901D09D853487D3
:1047A0000101C15102082BE3070169BB02D00101DD
:1047B00026D06AAB11D0020158BB0CD07E840B0E00
:1047C00007016E6F00016AEC14F00201588B7083D0
:1047D0007095348713D00701020158AB0FD07E9437
:1047E0000C0E07016E6F00016AEC14F00201589B79
:1047F0007093709170A901D0708534870101070111
:1048000069AD41D06AAD21D0020158BD1CD0588D90
:104810004483F250006EF29E756A0E0E746E010EA5
:10482000766E779C779E77840F01550E786EAA0E70
:10483000786E778277B2FED77794779C778E005028
:10484000F212020134871ED00701020158AD1AD0BE
:10485000589DF250006EF29E756A0E0E746E766A66
:10486000779C779E77840F01550E786EAA0E786E2E
:10487000778277B2FED77794779C778E0050F212CA
:10488000020134870701010100011200040E070133
:104890006325E96E000E6421EA6EEFCF65F7050E21
:1048A0006325E96E000E6421EA6EEFCF66F7060E0F
:1048B0006325E96E000E6421EA6EEFCF67F7070EFD
:1048C0006325E96E000E6421EA6EEFCF68F766514A
:1048D000020830E16551FC0F2DE2040F00019FEF4B
:1048E00024F0070127D067C769F768C76AF7C4DDF6
:1048F00007016751FC0B03E00201348707011AD05E
:1049000067C76FF768C770F7010E0701716F726BA9
:10491000000180EC0DF007010DD067C769F768C78B
:104920006AF7010E07016B6F000134EC0EF007010E
:1049300001D007010001F4EC16F03AEF4FF0E82443
:10494000F76AF7365F0FF66E490EF722000EF86E23
:10495000FB6E0A00F550FA6E0800F550F96EE24859
:10496000E64800491A490701706B716B726B736BF3
:10497000746B756B766B776B786B796B7A6B7C6B22
:104980007B6B036A7A51700F016E070E03226EC7AC
:10499000E9FF6FC7EAFFEFCF80F703C0EAFF01C06E
:1049A000E9FF80C7EFFF7A2B036A7A51700F016E1F
:1049B000070E0322010E6E25E96E000E6F21EA6ECE
:1049C000EFCF80F703C0EAFF01C0E9FF80C7EFFF28
:1049D0007A2B7A2B036A7A51700F016E070E03222D
:1049E000030E6E25E96E000E6F21EA6EEFCF80F7A1
:1049F00003C0EAFF01C0E9FF80C7EFFF7A2B036A1B
:104A00007A51700F016E070E0322040E6E25E96EB7
:104A1000000E6F21EA6EEFCF80F703C0EAFF01C0FE
:104A2000E9FF80C7EFFF010E7A25726F010E7A252C
:104A30007E6F070E0801A56F700EA46F7EC7A6F8E3
:104A4000000187EC0AF002C07CF701C07BF7070188
:104A50007A2B036A7A51700FE96E070E0320EA6E13
:104A60007BC7EFFF7A2B036A7A51700FE96E070E4E
:104A70000320EA6E7CC7EFFF7D6B7D517A5D10E30A
:104A8000036A7D51700FE96E070E0320EA6EEFCFC7
:104A90007EF77E510001BAEC0AF007017D2BEDD7BD
:104AA000070EEA6E700EE96E006A026A0A0E016E67
:104AB0000001C0EC0AF012000701726B736B746B9B
:104AC000756B766B776B786B796B7A6B7B6B7D6BC9
:104AD0007C6B6FC7E9FF70C7EAFFEFCF72F7010E7B
:104AE0006F25E96E000E7021EA6EEFCF73F7050EA9
:104AF000746F030E6F25E96E000E7021EA6EEFCF22
:104B000075F771C776F7070E0801A56F720EA46FCF
:104B1000050EA66F000187EC0AF002C07DF701C008
:104B20007CF707017CC777F77DC778F77E6B7E51EE
:104B3000060810E3036A7E51720FE96E070E032028
:104B4000EA6EEFCF7FF77F510001BAEC0AF0070160
:104B50007E2BEDD7070EEA6E720EE96E006A026ACE
:104B60000A0E016E0001C0EC0AF012000701706B22
:104B7000716B726B736B746B756B766B776B786B39
:104B8000796B7A6B7C6B7B6B036A7A51700F016E69
:104B9000070E03226EC7E9FF6FC7EAFFEFCF80F76A
:104BA00003C0EAFF01C0E9FF80C7EFFF7A2B036A69
:104BB0007A51700F016E070E0322010E6E25E96E09
:104BC000000E6F21EA6EEFCF80F703C0EAFF01C04D
:104BD000E9FF80C7EFFF7A2B7A2B036A7A51700FB7
:104BE000016E070E0322030E6E25E96E000E6F2183
:104BF000EA6EEFCF80F703C0EAFF01C0E9FF80C78C
:104C0000EFFF010E7A25726F010E7A257E6F070E77
:104C10000801A56F700EA46F7EC7A6F8000187EC8F
:104C20000AF002C07CF701C07BF707017A2B036A08
:104C30007A51700FE96E070E0320EA6E7BC7EFFF13
:104C40007A2B036A7A51700FE96E070E0320EA6E21
:104C50007CC7EFFF7D6B7D517A5D10E3036A7D5168
:104C6000700FE96E070E0320EA6EEFCF7EF77E51DC
:104C70000001BAEC0AF007017D2BEDD7070EEA6EB2
:104C8000700EE96E006A026A0A0E016E0001C0EC45
:104C90000AF05DEF2EF007016791020E6325E96EC1
:104CA000000E6421EA6EEFCF68F7030E6325E96E0C
:104CB000000E6421EA6EEFCF69F7040E6325E96EFA
:104CC000000E6421EA6EEFCF6AF76B6B050E685D2C
:104CD000006ED89000306C6F6D6B6951390A00011D
:104CE00011E0030AD8B473D2010AD8B457EF2AF0FE
:104CF000580AD8B4E5EF2CF0060AD8B4EFEF2DF03F
:104D00005FEF2EF007016A51000A000104E0010A7A
:104D1000D8B42CD158D20101AF6B800EAE6F280EE3
:104D2000AE25B06F000EAF21B16F020E07016325F3
:104D3000E96E000E6421EA6EEF50090858E1050E95
:104D40006325E96E000E6421EA6EEF5250E1060E13
:104D50006325E96E000E6421EA6EEF5248E1070E0A
:104D60006325E96E000E6421EA6EEF5240E1080E01
:104D70006325E96E000E6421EA6EEF5238E102010C
:104D8000709970910101B26BB25113080DE3D89084
:104D9000B235036A730FE96E020E0320EA6EEC6A05
:104DA000ED52EF6AB22BF0D7B26BAFC1B4F1AEC126
:104DB000B3F1B451B15D18E303E1B051B35D14E256
:104DC000B4C174F7B3C173F70701786B776B766B77
:104DD000756B040E796F000153EC08F0040E0101AD
:104DE000B327000EB423E5D7AA919BD00701020197
:104DF0007089D89007016C310201726F0B0E716FD0
:104E00000101B26BB25113080DE3D890B235036AB9
:104E1000730FE96E020E0320EA6EEC6AED52EF6A40
:104E2000B22BF0D7B26BB26BB46BB36B07016C51A2
:104E30000101B25D5AE2D890B235036A730F016E78
:104E4000020E0322050E0101B3250701706F000E4B
:104E50000101B4210701716F63517025E96E64513E
:104E60007121EA6EEFCF72F7060E0101B32507013B
:104E7000736F000E0101B4210701746F6351732534
:104E8000E96E64517421EA6EEFCF75F703C0EAFF53
:104E900001C0E9FF72C7ECFFED5275C7EFFFD89074
:104EA0000101B235036A730FE96E020E0320EA6E48
:104EB000ECCF76F7ED52EFCF75F7AFC174F7AEC117
:104EC00073F70701786B776B020E796F000153EC73
:104ED00008F0020E0101AE27000EAF23B251B22B33
:104EE000020EB327000EB423A1D7AA816CC7ABF181
:104EF000F250006EF29E756A1B0E746E6CC776FFE0
:104F0000779C779E77840F01550E786EAA0E786E87
:104F1000778277B2FED77794779C778E0050F21223
:104F2000010164C76FF763C76EF700011CDD000E57
:104F30000101AAB1010E07016E6FF250006EF29EE0
:104F4000756A180E746E6EC776FF779C779E7784AD
:104F50000F01550E786EAA0E786E778277B2FED763
:104F60007794779C778E0050F2122ED10101AF6BAF
:104F7000A80EAE6F280EAE25B06F000EAF21B16F38
:104F8000020E07016325E96E000E6421EA6EEF5000
:104F9000090858E1050E6325E96E000E6421EA6EEA
:104FA000EF5250E1060E6325E96E000E6421EA6EB1
:104FB000EF5248E1070E6325E96E000E6421EA6EA8
:104FC000EF5240E1080E6325E96E000E6421EA6E9F
:104FD000EF5238E10101B26BB25113080DE3D890E2
:104FE000B235036AA00FE96E020E0320EA6EEC6A86
:104FF000ED52EF6AB22BF0D7B26BAFC1B4F1AEC1D4
:10500000B3F1B451B15D18E303E1B051B35D14E203
:10501000B4C174F7B3C173F70701786B776B766B24
:10502000756B040E796F000153EC08F0040E01015A
:10503000B327000EB423E5D7AA9302019D999D9151
:105040009BD0070102019D89D89007016C310201B4
:105050009F6F0B0E9E6F0101B26BB25113080DE3EF
:10506000D890B235036AA00FE96E020E0320EA6EF3
:10507000EC6AED52EF6AB22BF0D7B26BB26BB46B45
:10508000B36B07016C510101B25D5AE2D890B235A1
:10509000036AA00F016E020E0322050E0101B32563
:1050A0000701706F000E0101B4210701716F635198
:1050B0007025E96E64517121EA6EEFCF72F7060E2A
:1050C0000101B3250701736F000E0101B42107012F
:1050D000746F63517325E96E64517421EA6EEFCFEA
:1050E00075F703C0EAFF01C0E9FF72C7ECFFED529C
:1050F00075C7EFFFD8900101B235036AA00FE96EC2
:10510000020E0320EA6EECCF76F7ED52EFCF75F783
:10511000AFC174F7AEC173F70701786B776B020EFE
:10512000796F000153EC08F0020E0101AE27000E6A
:10513000AF23B251B22B020EB327000EB423A1D776
:10514000AA836CC7ACF1F250006EF29E756A1C0E19
:10515000746E6CC776FF779C779E77840F01550E2F
:10516000786EAA0E786E778277B2FED77794779CA6
:10517000778E0050F212020164C76FF763C76EF7B3
:105180000001B3EC24F0000E0101AAB3010E0701E7
:105190006E6FF250006EF29E756A190E746E6EC7D5
:1051A00076FF779C779E77840F01550E786EAA0E56
:1051B000786E778277B2FED77794779C778E00509F
:1051C000F21202D000010F0100015FEF2EF0040E79
:1051D0000101B26FB2510E080FE3B251070163250E
:1051E000E96E000E6421EA6EEF5202E16D2B01D0F0
:1051F0006D6B0101B22BEED707016D510B085EE11B
:105200000101B26BB2517C0811E3036AB2C102F032
:10521000D890023603360250D50FE96E020E0320F5
:10522000EA6EEC6AED52EF6AB22BECD7B26B020178
:10523000D0991A0ED36FD26FD46BD097D197D199E2
:10524000426B436B349D349B349F4491CEC4C9F66A
:10525000CDC4C8F6D09F34890401CE6BCD6BCC6B26
:10526000CB6B0101AF6BD00EAE6FFA0EAE25B06FF7
:10527000000EAF21B16FAFC1B4F1AEC1B3F1B45103
:10528000B15D19E303E1B051B35D15E2B4C174F748
:10529000B3C173F70701786B776B766B756B020E92
:1052A000796F000153EC08F00400020E0101B327EE
:1052B000000EB423E4D7AA95D2D007010201D08909
:1052C0001A0ED26FD36F449107016A2D09D00201E3
:1052D000D46BD097D09138C2C9F637C2C8F607014F
:1052E0000201D451050DF3CF6BF70701D8906B3550
:1052F0006F6B6E6F6C516E25656F000E6F21666F60
:10530000665303E16551FA0806E2666B656B0001BE
:105310005FEF2EF00701D8906B356F6B6E6FD00E7C
:105320006E25016E000E6F2101C0AEF10101AF6F5D
:10533000B26BB46BB36B07016C510101B25D64E2F7
:10534000036A07016BC702F0D89002360336025099
:10535000D50F016E020E0322050E0101B3250701D0
:10536000706F000E0101B4210701716F6351702548
:10537000E96E64517121EA6EEFCF72F7060E0101FA
:10538000B3250701736F000E0101B4210701746F8B
:1053900063517325E96E64517421EA6EEFCF75F79E
:1053A00003C0EAFF01C0E9FF72C7ECFFED5275C709
:1053B000EFFF036A6BC702F0D89002360336025043
:1053C000D50FE96E020E0320EA6EECCF76F7ED52B0
:1053D000EFCF75F7AFC174F7AEC173F7786B776B2A
:1053E000020E796F000153EC08F0020E0101AE27A6
:1053F000000EAF2307016B2B0101B251B22B020E3D
:10540000B327000EB42397D7AA851B6AF2BE1B8E62
:10541000F29E6CC72EF9050E09012F6F000174EC86
:1054200004F01BBEF28E01500201D427F250006E30
:10543000F29E756A1D0E746ED4C276FF779C779EBD
:1054400077840F01550E786EAA0E786E778277B248
:10545000FED77794779C778E0050F212010164C7D3
:105460006FF763C76EF70001B3EC24F0000E010183
:10547000AAB5010E07016E6FF250006EF29E756ABA
:105480001A0E746E6EC776FF779C779E77840F0135
:10549000550E786EAA0E786E778277B2FED7779423
:1054A000779C778E0050F21200015FEF2EF0040E11
:1054B0000101B26FB25110080FE3B2510701632529
:1054C000E96E000E6421EA6EEF5202E16D2B01D00D
:1054D0006D6B0101B22BEED707016D510D08D8A4F9
:1054E0008AD00101B26BB2517C0811E3036AB2C1E8
:1054F00002F0D890023603360250D50FE96E020E44
:105500000320EA6EEC6AED52EF6AB22BECD707018A
:10551000486B496B4A6B0101B26B0201D0991A0EBC
:10552000D36FD26FD46BD097D197D199426B436B25
:10553000349D349B349F4491CEC4C9F6CDC4C8F683
:10554000D09F34890401CE6BCD6BCC6BCB6B01014A
:10555000AF6BD00EAE6FFA0EAE25B06F000EAF215E
:10556000B16FAFC1B4F1AEC1B3F1B451B15D19E3E4
:1055700003E1B051B35D15E2B4C174F7B3C173F781
:105580000701786B776B766B756B020E796F000194
:1055900053EC08F00400020E0101B327000EB423FF
:1055A000E4D7AA9564C770F763C76FF70701716BFB
:1055B00000015CEC25F0000E0101AAB5010E070107
:1055C0006E6FF250006EF29E756A1A0E746E6EC7A0
:1055D00076FF779C779E77840F01550E786EAA0E22
:1055E000786E778277B2FED77794779C778E00506B
:1055F000F212E9D107014A532DE1010E4A6F4B6BBC
:10560000486B4C6B6791050E6325E96E000E6421B3
:10561000EA6EEF5005081DE30101B26B050E0701AC
:105620006325E96E000E6421EA6EEF500101B25D60
:105630000FE2010E006EB251016E04E0D890003608
:10564000012EFCD70050070148130101B22BE6D709
:10565000070146D0040E6325E96E000E6421EA6E50
:10566000010EEF5C6B6F010E0101B26F07016B5110
:10567000016E09E0D8900101B237012E01D002D0AD
:105680000701F8D707014B510101B21507016B6FF4
:105690006B5302E1679111D06781040E6325E96EB7
:1056A000000E6421EA6EEFCF71F764C770F763C72D
:1056B0006FF700015CEC25F00701040E6325E96E2D
:1056C000000E6421EA6EEFCF6EF7050E6325E96EDA
:1056D000000E6421EA6EEF506E5D02E001E3678127
:1056E000060E6325E96E000E6421EA6EEFCF49F7DE
:1056F000040E6325E96E000E6421EA6E010EEF5C74
:10570000190DF350666B656F4951050DF350652512
:105710006B6F6B517D08D8A055D167B153D1D5C6F9
:1057200055F0D4C654F0D3C653F0D2C652F04B88CD
:10573000040E6325E96E000E6421EA6EEFCF71F767
:1057400064C770F763C76FF700015CEC25F065C7AD
:10575000B2F10101B46BB36B07016B510101B25D92
:105760003CE2D890B235036AD10F016E030E0322DA
:10577000070E0101B3250701706F000E0101B4216E
:105780000701716F63517025E96E64517121EA6EF2
:10579000EFCF72F7080E0101B3250701736F000EFA
:1057A0000101B4210701746F63517325E96E6451DF
:1057B0007421EA6EEFCF75F703C0EAFF01C0E9FF7D
:1057C00072C7ECFFED5275C7EFFF020E0101B32760
:1057D000000EB4230400B22BBFD7060E07016325C9
:1057E000E96E000E6421EA6EEF500A0DF350070FC8
:1057F0006325E96E000E6421EA6EEF5203E00601B4
:10580000DF870701060E6325E96E000E6421EA6E4C
:10581000EF504C27040E6325E96E000E6421EA6EFA
:10582000010EEF5C016E010E006E015204E0D89093
:105830000036012EFCD700504B1348514B5DD8A4C5
:10584000C1D00400D5C655F0D4C654F0D3C653F029
:10585000D2C652F04B984A6B4CC7D4F20201D089A1
:105860001A0ED26FD36F4491D097D09138C2C9F637
:1058700037C2C8F60101AF6BD00EAE6F07014C51B5
:10588000050DF3CF6BF70101B26B07016B510101FD
:10589000B25D48E20400D890B235036AD10FE96ED8
:1058A000030E0320EA6EECCF76F7ED52EFCF75F7DB
:1058B000AFC174F7AEC173F70701786B776B020E57
:1058C000796F000153EC08F0036A0101B2C102F0E4
:1058D000D890023603360250D50F016E020E032215
:1058E000070103C06FF7D8900101B235036AD10FE9
:1058F000E96E030E0320EA6EECCF03F0ED52EFCF1A
:1059000070F707016FC7EAFF01C0E9FF03C0ECFFB2
:10591000ED5270C7EFFF020E0101AE27000EAF235C
:10592000B22BB3D7AA85000EAAB5010E07016E6F80
:10593000F250006EF29E756A1A0E746E6EC776FF94
:10594000779C779E77840F01550E786EAA0E786E3D
:10595000778277B2FED77794779C778E0050F212D9
:10596000F2CF00F0F29E756A1D0E746ED4C276FFFF
:10597000779C779E7784550E786EAA0E786E778224
:1059800077B2FED77794779C778E0050F21206019B
:10599000DFA70DD064C770F763C76FF7FE0E07016E
:1059A000716F00015CEC25F00601DF970AD064C737
:1059B00070F763C76FF70701716B00015CEC25F0AE
:1059C000060107010F0100017AD1040E07016325CA
:1059D000E96E000E6421EA6EEF50020B04E0020152
:1059E000CF8303D007010201CF93040E0701632583
:1059F000E96E000E6421EA6EEF50010B04E0020133
:105A0000CF8103D007010201CF91050E0701632565
:105A1000E96E000E6421EA6EEFCF6EF7060E632585
:105A2000E96E000E6421EA6EEFCF6FF76EC771F773
:105A30006FC770F76EC774F76FC773F70001C0ECDC
:105A400007F002C0CEF201C0CDF2070E07016325B8
:105A5000E96E000E6421EA6EEFCF6EF7080E632543
:105A6000E96E000E6421EA6EEFCF6FF76EC771F733
:105A70006FC770F76EC774F76FC773F70001C0EC9C
:105A800007F002C0CCF201C0CBF2010E0101AF6FF2
:105A9000CA0EAE6FAFC174F7AEC173F70701786B72
:105AA000776BCCC276F7CBC275F7020E796F000127
:105AB00053EC08F0020E0101AE27000EAF23AFC178
:105AC00074F7AEC173F70701786B776BCEC276F7C8
:105AD000CDC275F7020E796F000153EC08F0020E8B
