:020000040000FA
:1000000065EF00F0FFFFFFFF04EF02F01200FFFFBB
:10001000FFFFFFFFFFFFFFFF0CEF02F01200FFFFEB
:10002000FFFFFFFFFFFFFFFFFFFF5350070B006EB7
:100030005330016E013201321F0E0116015055245A
:10004000E96E000E5620EA6E016A012A002A01D0EC
:100050000136002EFDD7545203E00150EF1203D0B9
:10006000011E0150EF161200F250036EF29EA68E92
:10007000A6840F01550EA76EAA0EA76EA6820000D9
:100080000350F21200011200D08CA69CF6503F0BD8
:10009000006EC00EF6160A0053C001F0006607D0CD
:1000A000EECFF5FF015204E00F00010603D0000679
:1000B0000B000C003F0EF6143F0AF0E1A688D4DFD7
:1000C000D3DF0166EBD7F86A1200F86AD09EEA6ABD
:1000D000E96A046A7E86080EAF6E020E7F6EA60E77
:1000E000AC6E900EAB6E7C86080E6F6E020E7D6E4F
:1000F000A60E6C6E900E6B6E959C8C8CC69A210E23
:10010000C66E000EC76E949A94889496C150C00B28
:100110000F09C16E070EB46E0F6A0E6A040E0D6EE3
:100120000C6A7C0E516E420E506EF2CF53F0F29E6E
:10013000030EAA6EA968A69CA69EA680A85053BED0
:10014000F28E526E958083B00FD0968E84BE02D010
:10015000F20E526E968C84BC02D0F10E526E968ACC
:1001600084BA02D0F00E526E523C0DD07C0E516E0D
:100170001B0E506E0B6A0C0E0A6E040E096E086A96
:10018000AF0E526E26D05250F00809E10B6A0A0EEB
:100190000A6E040E096E086AA00E526E1AD05250F2
:1001A000F10809E10B6A080E0A6E040E096E086A6E
:1001B000A10E526E0ED05250F20809E10B6A0C0EDD
:1001C0000A6E040E096E086AA20E526E02D000EF8B
:1001D00002F0030EAA6EA96852C0A8FFA69CA69EB4
:1001E000A684F250006EF29E0F01550EA76EAA0E65
:1001F000A76EA682A6B2FED7A6940050F21250C0F7
:1002000053F0010E546E0F0E566E890E556E00019E
:100210000CDF50C053F0546A0F0E566E920E556E9E
:1002200004DF066A056A06500708D8A07CD004E1FE
:100230000550EF08D8A077D0C69A949A94889496DF
:10024000200EC66E400EC76E50C053F0546A0F0E9B
:10025000566E890E556EE9DE50C053F0546A0F0E8B
:10026000566E920E556EE1DE00D000D00000C950EF
:10027000030EC96EC730FEE30AC053F0C9500AC06E
:10028000C9FFC730FEE309C053F0C95009C0C9FF18
:10029000C730FEE308C053F0C95008C0C9FFC730DB
:1002A000FEE3076A07503F0817E3036A0750100F81
:1002B000E96E000E0320EA6EC950C96AC730FEE33A
:1002C000C9CFEFFF010E0826D8B0092AD8B40A2AF0
:1002D000D8B40B2A072AE6D750C053F0010E546E4B
:1002E0000F0E566E890E556EA0DE50C053F0546A44
:1002F0000F0E566E920E556E98DE0EC0F8FF0DC0B2
:10030000F7FF0CC0F6FFEA6A100EE96E400E536E5E
:10031000BBDE400E0C26000E0D220E220F22052AF7
:10032000D8B4062A80D7FF000300FFFFFFFFFFFFBE
:10033000FFFFFFFFFFFFFFFFFFFFFFFFFFFFFFFFCD
:10034000FFFFFFFFFFFFFFFFFFFFFFFFFFFFFFFFBD
:10035000FFFFFFFFFFFFFFFFFFFFFFFFFFFFFFFFAD
:10036000FFFFFFFFFFFFFFFFFFFFFFFFFFFFFFFF9D
:10037000FFFFFFFFFFFFFFFFFFFFFFFFFFFFFFFF8D
:10038000FFFFFFFFFFFFFFFFFFFFFFFFFFFFFFFF7D
:10039000FFFFFFFFFFFFFFFFFFFFFFFFFFFFFFFF6D
:1003A000FFFFFFFFFFFFFFFFFFFFFFFFFFFFFFFF5D
:1003B000FFFFFFFFFFFFFFFFFFFFFFFFFFFFFFFF4D
:1003C000FFFFFFFFFFFFFFFFFFFFFFFFFFFFFFFF3D
:1003D000FFFFFFFFFFFFFFFFFFFFFFFFFFFFFFFF2D
:1003E000FFFFFFFFFFFFFFFFFFFFFFFFFFFFFFFF1D
:1003F000FFFFFFFFFFFFFFFFFFFFFFFFFFFFFFFF0D
:1004000093EFC0F0696E00006DEF02F00000000095
:100410000000000000000000046ED8CF05F0E0CF1F
:1004200006F00001E9CF0CF0EACF07F0E1CF08F0C9
:10043000E2CF09F0D9CF0AF0DACF0BF0F3CF12F008
:10044000F4CF13F0FACF14F0F5CF15F0F6CF16F085
:10045000F7CF17F0F8CF18F0FBCF19F000C00EF06F
:1004600001C00FF002C010F003C011F0F2AA3CEF7F
:1004700002F0F2B4CCEF1CF0A3AA42EF02F0A4BA4F
:100480008FEF1DF00EC000F00FC001F010C002F0A1
:1004900011C003F00CC0E9FF07C0EAFF078E08C0D7
:1004A000E1FF09C0E2FF0AC0D9FF0BC0DAFF12C0AA
:1004B000F3FF13C0F4FF14C0FAFF15C0F5FF16C018
:1004C000F6FF17C0F7FF18C0F8FF19C0FBFF045074
:1004D00006C0E0FF05C0D8FF10001C6ED8CF1DF08D
:1004E000E0CF1EF00001E9CF24F0EACF1FF0E1CF0A
:1004F00020F0E2CF21F0D9CF22F0DACF23F0F3CFF2
:100500002AF0F4CF2BF0FACF2CF0F5CF2DF0F6CF68
:100510002EF0F7CF2FF0F8CF30F0FBCF31F000C046
:1005200026F001C027F002C028F003C029F09DAAE0
:100530009DEF02F09EBA2FEF1DF026C000F027C0FD
:1005400001F028C002F029C003F024C0E9FF1FC059
:10055000EAFF1F8E20C0E1FF21C0E2FF22C0D9FFC9
:1005600023C0DAFF2AC0F3FF2BC0F4FF2CC0FAFF30
:100570002DC0F5FF2EC0F6FF2FC0F7FF30C0F8FFEB
:1005800031C0FBFF1C501EC0E0FF1DC0D8FF100093
:10059000F76AA40FF66E050EF722000EF86E09003A
:1005A000F5501200237C227C387C397C3A7C3B7CE1
:1005B000F76AC40FF66E050EF722000EF86E0900FA
:1005C000F5501200391D526974380F06F76AE00FB2
:1005D000F66E050EF722000EF86E0900F5501200B7
:1005E00000150E0404041F00031114181E1010003F
:1005F00002090A08081C1F000000000000181F0064
:1006000000000000031B1F000000181818181F002E
:1006100003031B1B1B1B1F00F76A2C0FF66E060E35
:10062000F722000EF86E0900F5501200456E746551
:100630007220746F207361766500F76A4E0FF66E54
:10064000060EF722000EF86E0900F55012005365F1
:100650007474696E677320496E7374616C6C426F59
:100660006172642077696C6C207265736574776859
:10067000656E2066696E69736865642E0000F76AAE
:10068000920FF66E060EF722000EF86E0900F55076
:1006900012003700F76AA80FF66E060EF722000E5A
:1006A000F86E0900F55012003600F76ABE0FF66EBC
:1006B000060EF722000EF86E0900F5501200350004
:1006C000F76AD40FF66E060EF722000EF86E0900D8
:1006D000F55012003400F76AEA0FF66E060EF722A4
:1006E000000EF86E0900F55012003300F76A000F93
:1006F000F66E070EF722000EF86E0900F550120094
:100700003200F76A160FF66E070EF722000EF86E2B
:100710000900F55012003100F76A2C0FF66E070E33
:10072000F722000EF86E0900F55012006E6F772E5A
:100730002052657374617274696E672E0000F76AE7
:10074000520FF66E070EF722000EF86E0900F550F4
:100750001200100001000000010001008080808074
:10076000007F0500F76A780FF66E070EF722000E7D
:10077000F86E0900F55012005374617274205549E7
:100780005020537461636B00F76A9C0FF66E070E7E
:10079000F722000EF86E0900F55012007878782ED6
:1007A0007878782E7878782E78787800F76AC00F85
:1007B000F66E070EF722000EF86E0900F5501200D3
:1007C000537461727420436F6E6E6574696F6E004E
:1007D000F76AE40FF66E070EF722000EF86E0900B6
:1007E000F5501200436F6E6E6563742054696D6539
:1007F0006F757400F76A080FF66E080EF722000E88
:10080000F86E0900F55012004177616974696E67EE
:1008100020436F6E6E6563740000F76A2E0FF66EEC
:10082000080EF722000EF86E0900F5501200436F13
:100830006E6E656374696F6E204D61646500F76A62
:10084000520FF66E080EF722000EF86E0900F550F2
:1008500012004D6F644120536F636B6574204661D5
:10086000696C0000F76A780FF66E080EF722000E2A
:10087000F86E0900F55012004D6F64656D3A204620
:1008800061696C00F76A980FF66E080EF722000E89
:10089000F86E0900F55012004D6F64656D2041201F
:1008A00057616974696E6700F76ABC0FF66E080ECF
:1008B000F722000EF86E0900F55012004D6F6465C6
:1008C0006D205265626F6F742E2E2E2E0000F76A17
:1008D000E20FF66E080EF722000EF86E0900F550D2
:1008E00012002E00F76AF80FF66E080EF722000EBF
:1008F000F86E0900F55012004D6F64656D20526569
:100900007374617274656400F76A1C0FF66E090EE9
:10091000F722000EF86E0900F550120043616E27B1
:1009200074206163746976617465202074686973EA
:10093000206D6F64656D2E20416272740000F76A4D
:10094000520FF66E090EF722000EF86E0900F550F0
:10095000120041637469766174696E67204D6F643B
:10096000656D0000F76A780FF66E090EF722000E2B
:10097000F86E0900F550120041637476746E2074AD
:10098000696D6564206F75740000F76A9E0FF66EDE
:10099000090EF722000EF86E0900F55012004163AF
:1009A0007476746E20737461727465642E2E000008
:1009B000F76AC40FF66E090EF722000EF86E0900F2
:1009C000F550120041637469766174696F6E20643A
:1009D0006F6E6500F76AE80FF66E090EF722000EDB
:1009E000F86E0900F5501200416374766174696F06
:1009F0006E204641494C45440000F76A0E0FF66EE2
:100A00000A0EF722000EF86E0900F55012004F7022
:100A1000656E696E672055445000F76A2E0FF66EBA
:100A20000A0EF722000EF86E0900F5501200436F0F
:100A30006E6E656374696F6E206D61646500F76A40
:100A4000520FF66E0A0EF722000EF86E0900F550EE
:100A50001200436C6F73696E672055445000F76A4B
:100A6000720FF66E0A0EF722000EF86E0900F550AE
:100A700012004552523A20434D2E5348442E5544BD
:100A80005000F76A960FF66E0A0EF722000EF86E07
:100A90000900F55012004552523A20434D2E46545B
:100AA0004F2E55445000F76ABA0FF66E0A0EF72221
:100AB000000EF86E0900F55012004552523A2043DC
:100AC0004D2E4E4F2E49502E41440000F76AE00F44
:100AD000F66E0A0EF722000EF86E0900F5501200AD
:100AE0004552523A20434D2E4E4F5F434E4E435493
:100AF0000000F76A060FF66E0B0EF722000EF86E76
:100B00000900F550120053656E64696E6720554404
:100B1000502070636B740000F76A2C0FF66E0B0E9A
:100B2000F722000EF86E0900F55012006176616937
:100B30006C61626C6520696E2020202065787420CD
:100B4000677073206D6F64652020202046756E638A
:100B500074696F6E206E6F740000F76A6E0FF66E28
:100B60000B0EF722000EF86E0900F55012004750E8
:100B700053204157414954494E47204649580000A7
:100B8000F76A940FF66E0B0EF722000EF86E09004E
:100B9000F55012004E4F2047505320535452494EA7
:100BA0004700F76AB60FF66E0B0EF722000EF86ECE
:100BB0000900F5501200A0A2000785010000000006
:100BC000000086B0B30D0A00F76ADC0FF66E0B0E5C
:100BD000F722000EF86E0900F5501200A0A20002E4
:100BE0008F00008FB0B30D0AF76AFC0FF66E0B0E84
:100BF000F722000EF86E0900F5501200A0A20003C3
:100C00008A00008AB0B30D0AF76A1C0FF66E0C0E4C
:100C1000F722000EF86E0900F5501200A0A200069F
:100C2000AA000000000000AAB0B30D0AF76A400F46
:100C3000F66E0C0EF722000EF86E0900F550120049
:100C4000A0A20018810101010001000100010001C2
:100C50000001000100010001000025800131B0B356
:100C60000D0AF76A760FF66E0C0EF722000EF86E7C
:100C70000900F55012004E6F4C6F6300F76A900F39
:100C8000F66E0C0EF722000EF86E0900F5501200F9
:100C9000504C4541534520574149542020202020A5
:100CA00045534341504520544F2043414E43454C0A
:100CB00053455454494E4720424153450000F76A7A
:100CC000D20FF66E0C0EF722000EF86E0900F550EA
:100CD00012004157414954494E47204649580000A7
:100CE000F76AF40FF66E0C0EF722000EF86E09008C
:100CF000F55012004E4F2F424144205354520000F1
:100D0000F76A140FF66E0D0EF722000EF86E09004A
:100D1000F5501200454E54455220544F2053415631
:100D20004520202045534341504520544F20434106
:100D30004E43454C4241534520464F554E440000DA
:100D4000F76A540FF66E0D0EF722000EF86E0900CA
:100D5000F55012004750532053544154555300004E
:100D6000F76A740FF66E0D0EF722000EF86E09008A
:100D7000F55012004E4F205349474E414C205245EA
:100D800041440000F76A980FF66E0D0EF722000E30
:100D9000F86E0900F5501200454E544552204C4F54
:100DA0004E474954554445200000F76ABE0FF66E81
:100DB0000D0EF722000EF86E0900F5501200454E98
:100DC000544552204C41544954554445202000007C
:100DD000F76AE40FF66E0D0EF722000EF86E0900AA
:100DE000F5501200424C6F6E3A200000F76A000F77
:100DF000F66E0E0EF722000EF86E0900F550120086
:100E0000424C61743A200000F76A1C0FF66E0E0E19
:100E1000F722000EF86E0900F55012004750533AC1
:100E20004745542054494D45204552520000F76A29
:100E3000420FF66E0E0EF722000EF86E0900F55006
:100E400012004177616974204750532073747269AE
:100E50006E670000F76A680FF66E0E0EF722000E3E
:100E6000F86E0900F55012004177616974696E6788
:100E700020457874204750530000F76A8E0FF66EB5
:100E80000E0EF722000EF86E0900F5501200507297
:100E90006F6772616D2047505300F76AAE0FF66EB0
:100EA0000E0EF722000EF86E0900F55012004750A2
:100EB0005320526561647900F76ACC0FF66E0E0E0E
:100EC000F722000EF86E0900F55012004552523A12
:100ED00047505320494E49544641494C0000F76A57
:100EE000F20FF66E0E0EF722000EF86E0900F550A6
:100EF000120041646A7573742054656D7000F76A5E
:100F0000120FF66E0F0EF722000EF86E0900F55064
:100F10001200526164696F20737461727400F76A21
:100F2000320FF66E0F0EF722000EF86E0900F55024
:100F300012004661696C656420566F6C7461676568
:100F4000202043616C6962726174696F6E20202099
:100F50002020426F6172642044656665637469761F
:100F60006500F76A760FF66E0F0EF722000EF86E28
:100F70000900F5501200556E686F6F6B2042617466
:100F8000746572792020486F6F6B205570204D6515
:100F900074657220202050726573732045736361FD
:100FA00070650000F76AB80FF66E0F0EF722000E9C
:100FB000F86E0900F550120041646A75737420568A
:100FC0006F6C746167650000F76ADC0FF66E0F0ED8
:100FD000F722000EF86E0900F550120031322E385B
:100FE00030760000F76AF80FF66E0F0EF722000E4B
:100FF000F86E0900F550120031342E3830760000BA
:10100000F76A140FF66E100EF722000EF86E090044
:10101000F5501200436F7079696E67206F6C642021
:10102000636F64650000F76A3A0FF66E100EF722E0
:10103000000EF86E0900F55012004275696C646983
:101040006E6720696D61676520200000F76A600F98
:10105000F66E100EF722000EF86E0900F550120021
:10106000536176696E67206E657720636F646520D3
:101070000000F76A860FF66E100EF722000EF86E6B
:101080000900F55012004865782066696C65206695
:101090006F756E642020536F757263653A00F76A4E
:1010A000B20FF66E100EF722000EF86E0900F55022
:1010B0001200466C61736800F76ACC0FF66E100E72
:1010C000F722000EF86E0900F55012004545505207
:1010D0004F4D0000F76AE80FF66E100EF722000E73
:1010E000F86E0900F550120050414300F76A000FF6
:1010F000F66E110EF722000EF86E0900F550120080
:1011000041555800F76A180FF66E110EF722000EBF
:10111000F86E0900F5501200436F64652066696C33
:101120006520666F756E6420536F757263653A0053
:10113000F76A440FF66E110EF722000EF86E0900E2
:10114000F5501200415558202020202020436F7078
:1011500079696E670000F76A6A0FF66E110EF72262
:10116000000EF86E0900F5501200436F64652042CE
:1011700075696C64204661696C20205072657373D8
:101180002045736320746F20202020636F6E746984
:101190006E756500F76AA80FF66E110EF722000E45
:1011A000F86E0900F55012004E657720636F646594
:1011B000206275696C742020456E74657220746FAE
:1011C0002050726F6365656445736320746F20639C
:1011D000616E63656C00F76AEA0FF66E110EF72216
:1011E000000EF86E0900F5501200536176696E67C3
:1011F000207265636F7665727920696D616765003D
:10120000F76A140FF66E120EF722000EF86E090040
:10121000F5501200526563656976696E67206669EC
:101220006C650000F76A380FF66E120EF722000E9A
:10123000F86E0900F5501200455343207768656E3B
:1012400020646F6E6500F76A5A0FF66E120EF72271
:10125000000EF86E0900F55012002D00F76A700FAD
:10126000F66E120EF722000EF86E0900F55012000D
:101270003A00F76A860FF66E120EF722000EF86E2D
:101280000900F5501200436F7079696E6700F76AC4
:10129000A20FF66E120EF722000EF86E0900F5503E
:1012A00012004261636B696E6720757020202020F8
:1012B0002020666163746F727920636F646500003B
:1012C000F76AD40FF66E120EF722000EF86E0900C0
:1012D000F5501200436F7079696E6720536574741E
:1012E000696E67730000F76AFA0FF66E120EF72246
:1012F000000EF86E0900F5501200416363656C65DD
:10130000726F6D65746572204C6F0000F76A200F74
:10131000F66E130EF722000EF86E0900F55012005B
:10132000252053656E73697469760000F76A400F73
:10133000F66E130EF722000EF86E0900F55012003B
:10134000416363656C65726F6D6574657220486991
:101350000000F76A660FF66E130EF722000EF86EA5
:101360000900F55012004D6F74696F6E2054696D5D
:10137000656F75740000F76A8A0FF66E130EF72218
:10138000000EF86E0900F5501200205365636F6E71
:1013900064730000F76AA80FF66E130EF722000EB2
:1013A000F86E0900F55012005265706F7274204F8C
:1013B0006E204368616E6765456E61626C656400AE
:1013C000F76AD40FF66E130EF722000EF86E0900BE
:1013D000F55012005265706F7274204F6E20436892
:1013E000616E676544697361626C65640000F76AE9
:1013F000020FF66E140EF722000EF86E0900F5507B
:1014000012004348414E47452054494D454F5554DD
:101410000000F76A260FF66E140EF722000EF86E23
:101420000900F5501200207365636F6E647300004D
:10143000F76A440FF66E140EF722000EF86E0900DC
:10144000F5501200436E67546D6F7574203D200097
:10145000F76A640FF66E140EF722000EF86E09009C
:10146000F550120052415445204C4F57204C494DE5
:1014700049540000F76A880FF66E140EF722000E2A
:10148000F86E0900F55012002070756C73652F6DB1
:10149000696E0000F76AA80FF66E140EF722000EB0
:1014A000F86E0900F5501200524154452048494752
:1014B00048204C494D495400F76ACC0FF66E140E83
:1014C000F722000EF86E0900F55012005241544503
:1014D000204348414E474520545249500000F76A86
:1014E000F20FF66E140EF722000EF86E0900F5509A
:1014F00012002500F76A080FF66E150EF722000E8F
:10150000F86E0900F5501200434F554E54205245D5
:1015100050525420545249500000F76A2E0FF66E74
:10152000150EF722000EF86E0900F550120020701B
:10153000756C73657300F76A4A0FF66E150EF72225
:10154000000EF86E0900F5501200434F554E54201E
:1015500054494D454F555400F76A6C0FF66E150E01
:10156000F722000EF86E0900F5501200206D696E2A
:10157000757465730000F76A8A0FF66E150EF72210
:10158000000EF86E0900F550120044696769746135
:101590006C204D6F646573202020313A202020326A
:1015A0003A202020333A20202020343A20202035B1
:1015B0003A202020363A0000F76ACC0FF66E150E5E
:1015C000F722000EF86E0900F55012005374000067
:1015D000F76AE40FF66E150EF722000EF86E09009A
:1015E000F5501200436E0000F76AFC0FF66E150E00
:1015F000F722000EF86E0900F55012005274000038
:10160000F76A140FF66E160EF722000EF86E090038
:10161000F550120050250000F76A2C0FF66E160EDA
:10162000F722000EF86E0900F55012004478000011
:10163000F76A440FF66E160EF722000EF86E0900D8
:10164000F55012004C617374205265706F72740013
:10165000F76A640FF66E160EF722000EF86E090098
:10166000F55012000000F76A7A0FF66E160EF72298
:10167000000EF86E0900F5501200454E54455220F8
:10168000434845434B20465245510000F76AA00F9E
:10169000F66E160EF722000EF86E0900F5501200D5
:1016A00043686B2046726571207365636F6E647367
:1016B0000000F76AC60FF66E160EF722000EF86EDF
:1016C0000900F5501200414E414C4F4720504F57F2
:1016D00045522D555000F76AEA0FF66E160EF722A6
:1016E000000EF86E0900F5501200506F77657255C4
:1016F0007020736563203D200000F76A0E0FF66EC0
:10170000170EF722000EF86E0900F5501200416E18
:10171000616C6F67204F6E2F4F6666202020313A34
:10172000202020202020323A202020202020333A60
:10173000202020202020343A202020202000F76A7A
:10174000520FF66E170EF722000EF86E0900F550D4
:1017500012004F6E0000F76A6A0FF66E170EF7223E
:10176000000EF86E0900F55012004F666600F76A29
:10177000820FF66E170EF722000EF86E0900F55074
:1017800012002044697361626C656400F76AA00FFF
:10179000F66E170EF722000EF86E0900F5501200D3
:1017A00020426173696320456E61626C6500F76A6F
:1017B000C20FF66E170EF722000EF86E0900F550F4
:1017C000120020416476616E63656420456E61623B
:1017D0006C650000F76AE80FF66E170EF722000E30
:1017E000F86E0900F55012002050756C7365642086
:1017F0004F75747075740000F76A0C0FF66E180E52
:10180000F722000EF86E0900F5501200204C6174AA
:101810006368696E67204D6F64650000F76A300F7A
:10182000F66E180EF722000EF86E0900F550120041
:101830002050657263656E742054696D6572000096
:10184000F76A540FF66E180EF722000EF86E0900B4
:10185000F5501200207365630000F76A6E0FF66E94
:10186000180EF722000EF86E0900F550120053749E
:10187000616E646172642053706565640000F76A8C
:10188000920FF66E180EF722000EF86E0900F55052
:10189000120053686F727420496E74657276616CC1
:1018A0000000F76AB60FF66E180EF722000EF86EFB
:1018B0000900F550120054696D657374616D7020F4
:1018C0004F464600F76AD80FF66E180EF722000E44
:1018D000F86E0900F550120054696D657374616DFE
:1018E00070204F4E0000F76AFA0FF66E180EF722BE
:1018F000000EF86E0900F5501200457874726120F0
:10190000566F6C74616765202020205265706F727D
:1019100074696E67204F46460000F76A2E0FF66E18
:10192000190EF722000EF86E0900F55012004578E6
:1019300074726120566F6C7461676520202020529C
:1019400065706F7274696E67204F4E00F76A600FA2
:10195000F66E190EF722000EF86E0900F55012000F
:1019600048454152544245415420494E5452564CE8
:101970000000F76A860FF66E190EF722000EF86E59
:101980000900F550120048727462656174203D20B0
:101990000000F76AA60FF66E190EF722000EF86E19
:1019A0000900F550120053544154494F4E205245FE
:1019B000504F52540000F76ACA0FF66E190EF72204
:1019C000000EF86E0900F550120053745270742026
:1019D0003D200000F76AE80FF66E190EF722000EA0
:1019E000F86E0900F550120053656E64696E672049
:1019F0005265706F72742E2E0000F76A0E0FF66E2D
:101A00001A0EF722000EF86E0900F5501200466912
:101A10006E69736865642E00F76A2C0FF66E1A0EF5
:101A2000F722000EF86E0900F55012005069766F2B
:101A3000742053656C65637465640000F76A500F29
:101A4000F66E1A0EF722000EF86E0900F55012001D
:101A50004C696E6561722053656C656374656400E2
:101A6000F76A740FF66E1A0EF722000EF86E090070
:101A7000F55012004750532044697361626C6564ED
:101A80000000F76A960FF66E1A0EF722000EF86E37
:101A90000900F550120047505320456E61626C6595
:101AA000643A496E7400F76ABA0FF66E1A0EF7229E
:101AB000000EF86E0900F550120047505320456E95
:101AC00061626C65643A45787400F76ADE0FF66E01
:101AD0001A0EF722000EF86E0900F55012004D6143
:101AE0006E75616C2053656C656374656400F76A9C
:101AF000020FF66E1B0EF722000EF86E0900F5506D
:101B0000120043656C6C2053656C656374656400FA
:101B1000F76A240FF66E1B0EF722000EF86E09000E
:101B2000F55012004750532053656C65637465642B
:101B30000000F76A460FF66E1B0EF722000EF86ED5
:101B40000900F5501200454E5445522054494D4568
:101B50002020323448200000F76A6C0FF66E1B0E0E
:101B6000F722000EF86E0900F5501200506F6C6CF1
:101B7000696E672043656C6C205379730000F76AC7
:101B8000920FF66E1B0EF722000EF86E0900F5504C
:101B90001200506F6C6C696E672047505320546977
:101BA0006D6544617465206E6F74206368616E6753
:101BB00065640000F76AC80FF66E1B0EF722000E70
:101BC000F86E0900F55012004E6F2074696D6520A3
:101BD000736F7572636520204D616E75616C206155
:101BE000646A2074696D6500F76AFC0FF66E1B0E5F
:101BF000F722000EF86E0900F5501200436F6D4396
:101C0000656C6C2053656C6563740000F76A200F87
:101C1000F66E1C0EF722000EF86E0900F550120049
:101C2000566572697A6F6E2053656C65637465647E
:101C30000000F76A460FF66E1C0EF722000EF86ED3
:101C40000900F55012005341542053656C656374CC
:101C500065640000F76A680FF66E1C0EF722000E2E
:101C6000F86E0900F5501200526164696F205365E7
:101C70006C65637465640000F76A8C0FF66E1C0E69
:101C8000F722000EF86E0900F55012004E6F6E65D7
:101C90002053656C656374656400F76AAE0FF66E79
:101CA0001C0EF722000EF86E0900F5501200454E8A
:101CB00054455220424F4152442049440000F76AA3
:101CC000D20FF66E1C0EF722000EF86E0900F550CA
:101CD0001200426F617264204944203D2000F76A7F
:101CE000F20FF66E1C0EF722000EF86E0900F5508A
:101CF00012004469676974616C2053746174757370
:101D00002020312020322020332020342020352074
:101D100020360000F76A280FF66E1D0EF722000E1F
:101D2000F86E0900F55012004F7574707574733AAF
:101D3000204F666620202020204E65787420666F34
:101D400072206F6E20202020204261636B20666F1E
:101D500072206F666600F76A6A0FF66E1D0EF72234
:101D6000000EF86E0900F55012004F6E2000F76A61
:101D7000820FF66E1D0EF722000EF86E0900F55068
:101D8000120020556E6976657273616C204D6F6428
:101D9000656D506F6C6C696E672E2E2E0000F76AB1
:101DA000B20FF66E1D0EF722000EF86E0900F55008
:101DB000120043444D4120506F6C6C696E672E2EAB
:101DC0002E00F76AD60FF66E1D0EF722000EF86E83
:101DD0000900F5501200446961676E6F737469639E
:101DE00073206E6F7420617661696C61626C65202E
:101DF000696E2020202074686973206D6F64656DA2
:101E0000206D6F646500F76A1A0FF66E1E0EF722DA
:101E1000000EF86E0900F5501200506F72742041E8
:101E20002E2E2E5465737400F76A3C0FF66E1E0E4C
:101E3000F722000EF86E0900F5501200506173731E
:101E40000000F76A560FF66E1E0EF722000EF86EAF
:101E50000900F55012004641494C0000F76A700F26
:101E6000F66E1E0EF722000EF86E0900F5501200F5
:101E7000506F727420422E2E2E5465737400F76AD0
:101E8000920FF66E1E0EF722000EF86E0900F55046
:101E900012004C6F636C204750533A00F76AB00F42
:101EA000F66E1E0EF722000EF86E0900F5501200B5
:101EB000546573740000F76ACA0FF66E1E0EF7229F
:101EC000000EF86E0900F55012004D6F6441204E6F
:101ED0006F20536F636B65740000F76AEE0FF66E48
:101EE0001E0EF722000EF86E0900F5501200436E28
:101EF0006E656374696F6E204F6E6C696E6500006D
:101F0000F76A140FF66E1F0EF722000EF86E090026
:101F1000F5501200526563764572723A20556E6B29
:101F20006E4D73670000F76A3A0FF66E1F0EF722C8
:101F3000000EF86E0900F55012004D6F6441204309
:101F400074726C20446F6E650000F76A5E0FF66E67
:101F50001F0EF722000EF86E0900F5501200586DA2
:101F60006974204F4B3A20537563636573730000A7
:101F7000F76A840FF66E1F0EF722000EF86E090046
:101F8000F5501200586D69744661696C3A205265CB
:101F900073656E640000F76AAA0FF66E1F0EF722D3
:101FA000000EF86E0900F5501200586D6974204F4C
:101FB0004B3A2057616974496E630000F76AD00F8D
:101FC000F66E1F0EF722000EF86E0900F550120093
:101FD000586D69744661696C3A2053746E64627915
:101FE0000000F76AF60FF66E1F0EF722000EF86E6D
:101FF0000900F5501200586D69744661696C3A2009
:102000004769766555700000F76A1C0FF66E200E62
:10201000F722000EF86E0900F5501200586D697431
:102020004572723A20556E6B6E6F776E0000F76ADC
:10203000420FF66E200EF722000EF86E0900F550E2
:102040001200526563764572723A204261642049FB
:102050004400F76A660FF66E200EF722000EF86E47
:102060000900F5501200526563764572723A2042BB
:102070006164204352430000F76A8C0FF66E200E15
:10208000F722000EF86E0900F55012004D6F644102
:10209000204D7367205263766400F76AAE0FF66EC8
:1020A000200EF722000EF86E0900F5501200476569
:1020B00074206770732074696D650000F76AD00F33
:1020C000F66E200EF722000EF86E0900F550120091
:1020D00052656164792E2053746172742E2E2E0025
:1020E000F76AF40FF66E200EF722000EF86E090064
:1020F000F550120053746F7070696E672050726FE4
:102100006772616D456E74657220746F2050726FD6
:102110006365656445736361706520746F20436116
:102120006E63656C0000F76A3A0FF66E210EF722B7
:10213000000EF86E0900F550120020202020526594
:10214000626F6F74696E672E2E2E0000F76A600F43
:10215000F66E210EF722000EF86E0900F5501200FF
:10216000456E74657220666F72204D656E75000055
:10217000F76A840FF66E210EF722000EF86E090042
:10218000F55012004552523A2054583E332E4749DA
:1021900056455550000020456E74657220746F20BE
:1021A0004163636570742045736361706520746F6B
:1021B00020526573657441646A75737420436F6E51
:1021C00074726173740041542341504E534552560A
:1021D0003D2261322E6B6F72656D326D2E636F6DB5
:1021E0002200415423554450504F52543D36363806
:1021F0003200415423554450534552563D22313705
:10220000322E31362E312E3122004154234F555477
:10221000504F52543D3636383000415423554450C7
:10222000545844454C41593D3530300041542350B9
:10223000485954494D454F55543D30004141542370
:10224000554450494E414354495649545954494DB7
:1022500045523D3000004154234B454550414C49C7
:1022600056454D4F44453D3000004154234B4545B4
:1022700050414C495645534552563D223137322E36
:1022800031362E312E3122004154234B45455041E9
:102290004C49564544454C41593D3233390041542F
:1022A0002350455253495354454E54534F434B4585
:1022B000543D332C310041542B43535100004154C1
:1022C0002B574E455454494D454745543F004154C2
:1022D0002B57495042523D332C362C313500415456
:1022E0002B4347534E004154234155544F434F4EC7
:1022F0004E4543543D3100004154234155544F4312
:102300004F4E4E4543543D300000415423434F4E01
:102310004E454354494F4E53544F500041542B495E
:1023200050523D393630300D0000415445300D00DB
:1023300041542644310041542644310041542B5726
:1023400055534C4D534B3D30303030303030302CC5
:10235000300041542B574E455454494D45464D5439
:102360003D32000041776169742043656C6C2053F5
:1023700069676E6C00004552523A204E6F204365EB
:102380006C6C2053696700004154442A323238395A
:10239000393B000041542B57495043524541544565
:1023A0003F0041542B57495042523F0041542B5754
:1023B000495042523D342C362C30000041542B57AA
:1023C00049504352454154453D312C312C36363825
:1023D000302C223137322E31362E312E31222C360E
:1023E0003638320041542B57495042523F00415435
:1023F0002B574950434C4F53453F000041542B57F6
:102400004950434C4F53453D312C310041542B57DB
:10241000495042523D352C36000041542B5749500B
:10242000444154413D312C312C31000053746172D0
:1024300074757020436F6D6D732E2E2E4D6F646515
:102440006D2041205374617274696E6700007700DB
:1024500024505352463130302C302C393630302C09
:10246000382C312C302A30430000736174733A25C4
:1024700030327520636F6E663A25303375006864BC
:102480006F703A2530332E31772020776161733AAF
:10249000256300007361743A253032752068646FDB
:1024A000703A2530342E317700004C61743A202583
:1024B00030392E367720204C6F6E3A253031302E51
:1024C000367720204241534520534554000044496B
:1024D0005354202053415420485020205753253036
:1024E000354C75202530327520202530332E31773C
:1024F000202563200000504F5320202053415420BA
:102500004850202057532530352E31772025303242
:102510007520202530332E31772025632000415748
:10252000414954494E472046495820202020736194
:10253000743A253032752068646F703A2530342E35
:1025400031770000202020253031302E367764206E
:1025500020200000496E697469616C697A652047C2
:10256000505300004F6E547261634732202076252D
:1025700030352E32775265696E697469616C697A9B
:10258000696E672E2E2E0000416363656C65726F65
:102590006D65746572204C6F53656E7369746976EE
:1025A00069747920257525250000416363656C6594
:1025B000726F6D6574657220486953656E736974D6
:1025C0006976697479202575252500004D6F746939
:1025D0006F6E2054696D656F7574202020254C64E2
:1025E000207365636F6E6473000020446961676ED9
:1025F0006F737469637320202020205265706F729E
:1026000074696E672020202020202047505320200E
:102610002020202020202020202020446967697469
:10262000616C202020202020202020416E616C6FD2
:10263000672020202020202020202054696D652044
:1026400020202020202020202020204C43442043F4
:102650006F6E747261737420202020436F6D6D75EE
:102660006E69636174696F6E732020416363656C8A
:1026700065726F6D65746572202020436F6E747291
:102680006F6C204F75747075742020536572766975
:102690006365204D656E75202020456E64204D6178
:1026A000696E204D656E7520202000005265706FA8
:1026B0007274696E67204D656E75202020486561D3
:1026C0007274626561742054696D65202053746171
:1026D00074696F6E205265706F7274202053656E3E
:1026E00064205265706F7274204E6F77456E64205F
:1026F0005265706F7274696E672020200000475029
:1027000053204D656E75202020496E746E6C2047F5
:102710005053204D6F64652F44697361626C205083
:1027200069766F74202F204C696E6561722020429B
:10273000617365205365747570202020202020531C
:102740006574204C61746974756465202020205381
:102750006574204C6F6E6769747564652020456EE2
:102760006420475053206D656E75202020200000A6
:102770004469676974616C20496E204D656E7520EF
:10278000204469676974616C204D6F646573202013
:1027900020496E70757420312020202020202020B8
:1027A00020496E70757420322020202020202020A7
:1027B00020496E7075742033202020202020202096
:1027C00020496E7075742034202020202020202085
:1027D00020496E7075742035202020202020202074
:1027E00020496E7075742036202020202020202063
:1027F000456E64204469676974616C204D656E752F
:1028000000002043757272656E7420537461747594
:102810007320204368616E67652053656E642052A3
:102820007074204368616E676520496E74657276C6
:10283000616C456E64204469676974616C20202076
:10284000202000002043757272656E7420436F75FE
:102850006E742020204368616E676520746F205479
:102860007269702020436F756E742054696D656FB6
:1028700075742020456E64204469676974616C201A
:102880002020202000002043757272656E74205253
:102890006174652020202052617465205472697033
:1028A00020486967682020526174652054726970FD
:1028B000204C6F77202020526174652043686E673A
:1028C000652054726970456E64204469676974615B
:1028D0006C202020202000004469676974616C200E
:1028E0004D6F6465202020202044697361626C650F
:1028F00064202020202020202053746174757320D0
:10290000202020202020202020436F756E746572C7
:102910002028416363756D29205261746520284623
:102920006C6F7729202020202050657263656E74BB
:102930002054696D657220204469676974616C2058
:102940004D6F64652020202000004368616E67653C
:102950002053656E642052707420204E6F2020201A
:102960002020202020202020202020596573202096
:1029700020202020202020202020456E6420536528
:102980006E64205265706F727420000020456E6185
:10299000626C652F44697361626C652020536574B5
:1029A00020506F696E7420486967682020536574F1
:1029B00020506F696E74204C6F7720202050657214
:1029C00063656E74204368616E676520204375728D
:1029D00072656E742052656164696E67456E64202D
:1029E000416E616C6F67204D656E75200000416E11
:1029F000616C6F6720496E204D656E752020204107
:102A00006E616C6F67204F6E2F4F666620202041ED
:102A10006E616C6F67203120202020202020204113
:102A20006E616C6F67203220202020202020204102
:102A30006E616C6F672033202020202020202041F1
:102A40006E616C6F672034202020202020202046DB
:102A500072657175656E63792020202020202050DA
:102A60006F7765722055702054696D652020456E22
:102A70006420416E616C6F67204D656E75200000AB
:102A800054696D65204D656E752020202020202022
:102A900020536F7572636520202020202020202085
:102AA0002041646A7573742054696D65202020206C
:102AB00020506F6C6C20536F75726365202020204E
:102AC000456E642054696D65204D656E752020202B
:102AD0000000436F6D6D756E69636174696F6E732D
:102AE0002020205072696D617279204D6F64656D90
:102AF000202020536563204D6F64656D20202020C9
:102B0000202020426F617264204944202020202030
:102B10002020456E6420436F6D6D204D656E7520DD
:102B20002020000054696D6520536F757263652025
:102B300020202020204E6F2045787420536F75721E
:102B4000636520202043656C6C204D6F64656D20AB
:102B500020202020204750532020202020202020EB
:102B60002020202054696D6520536F7572636520A5
:102B7000456E6420000053797374656D205479703C
:102B8000652020202020205069766F74202020208E
:102B9000202020202020204C696E6561722020209A
:102BA00020202020202053797374656D2054797083
:102BB00065202020202000005072696D617279200C
:102BC0004D6F64656D20202020556E6976657273A7
:102BD000616C2043656C6C2020566572697A6F6E5B
:102BE000202D2043444D412020536174656C6C6955
:102BF000746520202020202020526164696F2020ED
:102C000020202020202020205072696D61727920C0
:102C10004D6F64656D2020200000536563204D6F6B
:102C200064656D20202020202020204E6F6E6520BE
:102C300020202020202020202020456E6420536565
:102C400063204D6F64656D202020000047505320A5
:102C50004D6F64756C65202020202020204469730E
:102C600061626C652020202020202020204C6F6392
:102C7000616C2F4F6E626F61726420202045787402
:102C800065726E616C20202020202020456E64201B
:102C9000475053204D6F64756C65202000004F75C0
:102CA00074707574204D6F6465204D656E7520508D
:102CB000756C736520202020202020202020204CAF
:102CC00061746368696E67202020202020202050D6
:102CD000657263656E742074696D657220204F752E
:102CE00074707574204D6F646520456E642000001B
:102CF000436F6E74726F6C204D6F64756C6520202D
:102D00002044697361626C652020202020202020EF
:102D10002042617369632020202020202020202071
:102D200020416476616E6365642F5041432020200A
:102D3000436E74726C204D6F64756C6520456E64D3
:102D40000000204F757470757420312020202020E1
:102D50002020204F75747075742032202020202090
:102D60002020204F7574707574203320202020207F
:102D70002020204F7574707574203420202020206E
:102D80002020456E6420436F6E74726F6C204D6519
:102D90006E750000416363656C65726F6D65746587
:102DA00072202020204C6F77205468726573686F02
:102DB0006C642020204869676820546872657368D5
:102DC0006F6C6420205374696C6C2054696D65725B
:102DD00020202020456E6420416363204D656E7580
:102DE00020202000446961676E6F73746963204D11
:102DF000656E752020506F776572204D6F6E697417
:102E00006F72202020566F6C74616765204D6F6E65
:102E100069746F72204469676974616C20537461CE
:102E20007475732020416E616C6F672056616C75FC
:102E30006573202020436F6E74726F6C204F757421
:102E400070757473204750532053746174757320E8
:102E5000202020202043656C6C204D6F64656D2020
:102E6000537461742053657269616C20436F6D20E7
:102E700054657374456E642044696167204D656EC6
:102E800075202020000046617374204B656570201A
:102E9000416C697665202044697361626C656420C9
:102EA00020202020202020456E61626C6564202057
:102EB00020202020202046617374204B65657020FF
:102EC000416C69766520000054696D657374616DAD
:102ED00070205265706F72742044697361626C6512
:102EE000642020202020202020456E61626C6564D3
:102EF000202020202020202054696D657374616D8E
:102F000070205265706F727400004F6E626F617254
:102F10006420566F6C7452707274204469736162DD
:102F20006C65642020202020202020456E61626C8A
:102F300065642020202020202020456E64204F6ED4
:102F4000626F61726420566F6C7400005365727614
:102F5000696365204D656E75202020202054656DC5
:102F600070657261747572652053657420566F6C5C
:102F700074616765205365742020202020466C61B1
:102F80007368204D616E6167657220202046617311
:102F900074204B65657020416C697665204D7367C0
:102FA0002054696D657374616D702020204F6E62CE
:102FB0006F61726420566F6C746167652041637441
:102FC000762043444D41204D6F64656D456E64200D
:102FD00053657276696365204D656E750000436FB9
:102FE0006465204D616E616765722020202020435A
:102FF0006F70792053657474696E67732020204C5C
:103000006F61642053657474696E67732020204D6E
:10301000616B652048455820506C75672020204D15
:10302000616B6520436F646520506C756720204C90
:103030006F616420466163746F7279202020204C98
:103040006F6164205265636F766572792020204C31
:103050006F6164204E657720202020202020456E5F
:103060006420466C617368204D656E7520200000F9
:103070004D656E752054696D656F757420257500FA
:1030800043757272656E7420537461747573202079
:10309000442531753A20484947480000437572720B
:1030A000656E7420537461747573202044253175E6
:1030B0003A204C4F5700442575204C4C696D203DFB
:1030C000200044257520484C696D203D2000442592
:1030D00075202525436867203D2025342E31770053
:1030E0004425752054726970203D200044257520C8
:1030F000544F7574203D20004469676974616C20E9
:103100002531753A205374617420204469676974CD
:10311000616C204D6F646520202025730000446998
:10312000676974616C202531753A20436F756E7440
:10313000204469676974616C204D6F6465202020AC
:10314000257300004469676974616C202531753A04
:10315000205261746520204469676974616C204D58
:103160006F646520202025730000446967697461DD
:103170006C202531753A2025252020202020446907
:10318000676974616C204D6F646520202020437551
:103190007272656E742050657263656E74456E64FC
:1031A000204469676974616C204D656E75004469DF
:1031B000676974616C202531753A204473626C64D0
:1031C000204469676974616C204D6F64652020201C
:1031D000456E64204469676974616C204D656E7545
:1031E00000005374617475733A2025317500436F84
:1031F000756E743A2025354C7500526174653A201D
:1032000025354C75000050657263656E743A202553
:10321000354C7500416E616C6F6720496E70757436
:1032200020253175202020456E61626C65202020AC
:103230002020202020202044697361626C652020BA
:10324000202020202020416E616C6F6720496E7025
:103250007574202531750000416E616C6F67202503
:10326000317520456E61626C65640000416E616C71
:103270006F67202531752044697361626C640000BA
:10328000414E414C4F472025317520484947480061
:10329000416E202531752048696768203D20000077
:1032A000414E414C4F4720253175204C4F5700006F
:1032B000416E20253175204C6F77203D2000414E16
:1032C000414C4F47202531752050455243454E54BF
:1032D0000000416E616C6F67202575203D20000065
:1032E000416E616C6F67202531753A456E61626C85
:1032F000656425730000416E616C6F672025317530
:103300003A44697361626C642573000020202020B8
:10331000253032753A253032753A25303275202005
:1033200020200000416E616C6F672056616C7565EE
:1033300073202020313A2530344C752020323A2534
:1033400030344C752020333A2530344C75202034ED
:103350003A2530344C7520200000436F6E74726F34
:103360006C204D6F6475616C2020257300004F75D3
:103370007470757420253175204D6F646520202090
:1033800025730000536574204F7574707574202583
:10339000317520202020204F66662020202020200C
:1033A000202020202020204F6E20202020202020A0
:1033B0002020202020204F757470757420253175D1
:1033C000204F6E2F4F66662000004F757470757425
:1033D00020253175204F666600004F757470757436
:1033E00020253175204F6E00436F6E74726F6C2014
:1033F00025317520506572636E7400004F7574201E
:10340000253175202525203D2000436F6E74726F95
:103410006C202531752050756C73652000004F7548
:103420007425317520736563203D2025342E317756
:1034300000004F7574707574202531753A204C6109
:103440007463682020436F6E74726F6C204D6F64DC
:1034500065202020204F7574707574204F6E2F4F9B
:1034600066662020456E64204F7574707574204D1B
:10347000656E752000004F75747075742025317568
:103480003A205072636E742020436F6E74726F6CBA
:10349000204D6F6465202020204F75747075742056
:1034A0004F6E2F4F66662020205365742050657242
:1034B00063656E7461676520456E64204F75747036
:1034C0007574204D656E752000004F7574707574AD
:1034D000202531753A2050756C73652020436F6E3E
:1034E00074726F6C204D6F6465202020204F7574BE
:1034F000707574204F6E2F4F6666202020536574C0
:103500002050756C7365204C6E677468456E64203E
:103510004F7574707574204D656E7520000043748E
:10352000726C204D6F64756C653A20427363204362
:103530006F6E74726F6C2054797065202020257333
:1035400000004374726C204D6F64756C653A2041C5
:10355000647620436F6E74726F6C205479706520AE
:103560002020456E6420436F6E74726F6C204D6531
:103570006E7500004374726C204D6F64756C653A13
:10358000204F666620436F6E74726F6C20547970A2
:1035900065202020456E6420436F6E74726F6C202E
:1035A0004D656E7500002053657276696365207005
:1035B0006572736F6E656C6F6E6C792E20507265DC
:1035C0007373204553432052455354524943544545
:1035D00044204D454E550000475053204D656E75B3
:1035E0002020204578746E6C20475053204D6F6426
:1035F000652F44697361626C205265706F7274202C
:10360000496E74657276616C456E64204750532034
:103610006D656E75202020200000475053204D65B9
:103620006E752020204473626C6420475053204DF7
:103630006F64652F44697361626C456E6420475006
:1036400053206D656E7520202020000054696D6543
:103650002053657420546F202020202020253032F4
:10366000752F253032752F25303275202530327573
:103670003A25303275200000436C6F636B20557023
:103680006461746564202020253032753A2530321B
:103690007520253032752F253032752F2530327543
:1036A000200056623D25342E31772049623D253475
:1036B0006C642056703D25342E31772056693D25A7
:1036C000342E31772056733D25342E317720205407
:1036D0003D25336C64462000566F6C74616765202D
:1036E00056623D2530342E31772050733D253034DD
:1036F0002E31772053313D2530342E31772053320F
:103700003D2530342E31772056693D2530342E3119
:10371000772000004D61696E204D656E752076251D
:1037200030352E32772573004D6F6441204D73671D
:1037300020446F6E6520253275000801C351070BC8
:10374000006EC331016E013201321F0E01160150AD
:10375000C525E96E000EC621EA6E016A012A002A1B
:1037600001D00136002EFDD7C45303E00150EF1203
:1037700003D0011E0150EF16000112000801C351D1
:10378000070B006EC331016E013201321F0E0116AC
:103790000150C425E96E000EC521EA6EEFCF01F09D
:1037A000002A01D00132002EFDD700011200060EC2
:1037B0000801BE6FBE07D890BE35036A0001C8EC91
:1037C00002F00900F5CF03F00801C16F03C0C2F891
:1037D000C36F010EC46F0F0EC66F920EC56F00014E
:1037E000ACDFC1C8C3F80F0E0801C56F800EC46FEF
:1037F0000001C4DF0801C09101B0C081BEC8C3F898
:10380000070EC56F640EC46F0001B8DF0801C093D6
:1038100001B0C083036ABE51200FE96E070E03207A
:10382000EA6EEFCFBFF8BF53D8B4B0D0BF2D39D0B8
:10383000006AC0B30080C0510018010B0BE1BEC884
:10384000C3F8C46B070EC66F650EC56F000175DF48
:1038500026D00801BEC8C3F8070EC56F650EC46F39
:1038600000018CDF000E01B0010E010B18E1D890B1
:103870000801BE35036A8A0FE96E070E0320EA6E5F
:1038800049C0ECFFED5248C0EFFFBEC8C3F8010EBF
:10389000C46F070EC66F650EC56F00014EDF75D091
:1038A0000801BF5104082FE1C0B12CD0D890BE351B
:1038B000036A7E0FE96E070E0320EA6EECCFC2F8B2
:1038C000ED52EFCFC1F84C50C15D03E14D50C25DE8
:1038D00019E0D890BE35036A660FE96E070E032023
:1038E000EA6E010EEE2601E3EF2AD890BE35036A98
:1038F0007E0FE96E070E0320EA6E4DC0ECFFED521D
:103900004CC0EFFF43D0C0A135D0C0B332D0D89067
:10391000BE35036A660FE96E070E0320EA6E010EDC
:10392000EE2601E3EF2ABEC8C3F8010EC46F070EEE
:10393000C66F650EC56F000100DFBEC8C3F8010E7B
:103940000801C46F070EC66F640EC56F0001F5DE77
:103950000801BF5102080DE1D890BE35036A8A0FF5
:10396000E96E070E0320EA6E4BC0ECFFED524AC031
:10397000EFFF0CD0C0A30AD0BEC8C3F8C46B070EBB
:10398000C66F640EC56F0001D8DE0801BE5301E0AA
:1039900011D70001E9EF1CF09E0ED76E580ED66EBF
:1039A0004E2A4E50090814E24C2AD8B44D2A4F2A08
:1039B0004E6A4F5009080CE2482AD8B4492A4F6A87
:1039C000502A50503B0804E24A2AD8B44B2A506A85
:1039D000EED6F29442EF02F09EAAFED7ABCF33F0C0
:1039E000AECF01F033A202D0AB98AB881200016ACF
:1039F000026A006A036A0801D25102E1D15118E05B
:103A0000100ED36FD890CF37D03700360336D2514F
:103A1000035C02E1D151005C07E3D151005ED8A004
:103A20000306D251035ED88001360236D32FEAD77F
:103A300000011200010E0801C925CD6F000ECA2138
:103A4000CE6FD06FCDC8CFF8CCC8D2F8CBC8D1F8E4
:103A50000001CDDF00C001F003C002F01200BCDFA6
:103A600001C068F101019AA101D04AD0F0C5CAF89D
:103A7000EFC5C9F8010E0801CC6F120ECB6F000123
:103A8000D9DF02C0F8F501C0F7F50501F151F75D86
:103A900016E1F251F85D13E101019A81FAC5CAF805
:103AA000F9C5C9F8010E0801CC6F120ECB6F0001E9
:103AB000C1DF02C0F0F501C0EFF521D00501010121
:103AC00069510D0803E168510A0803E068510308D1
:103AD00006E1030E686FF0C5FAF5EFC5F9F5B70E0C
:103AE0000501EF25E96E020EF021EA6E68C1EFFFD5
:103AF000F8C5F0F5F7C5EFF568C169F100010101FE
:103B00009E9A00019DEF02F0A4AAFED76BCF33F07E
:103B10006ECF01F033A202D06B986B881200F4DFF5
:103B200001C0EEF507019D5301E019D00501EE51EA
:103B30000D0804E1010E07019D6F0501C90EF32573
:103B4000E96E030EF421EA6EEEC5EFFFF45306E1D1
:103B5000F351FD0803E3F32BD8B4F42B0701A49A27
:103B6000000142EF02F04F6E747261634732202011
:103B7000762530352E3277537461727420626F6F00
:103B8000742E2E2E00004F6E747261634732202017
:103B9000762530352E3277496E697469616C697AA1
:103BA000696E672E2E2E00004F6E7472616347326D
:103BB00020202530352E3277762563256325632036
:103BC00020253032753A25303275202025336C643B
:103BD0004600456E7465723A4D656E75202573001A
:103BE000080EEA6EB00EE96EEF500DE0060E016EA3
:103BF000006A002EFED7012EFBD77B0E006E002E32
:103C0000FED7EF2EF3D71200959A8C8A95948C8468
:103C100095928C8295968C8694948B8496988D98A8
:103C20009A9491849A929182929889881200ECDFFA
:103C3000C69A949A94889496300EC66E000EC76EFB
:103C400095948C941200F3DF95928C921200FBDF16
:103C5000C950010EC96EC730FEE3020E0801B06FF5
:103C60000001BEDFD1DF12000701EA6B0001EBDFCC
:103C7000036A0701EA510001D8EC02F00701EB6F7B
:103C8000C950EBC7C9FFC730FEE3310E006E002EEE
:103C9000FED700D0EA2BEA510708D8A002D00001D5
:103CA000E7D70001D4DF1200CEC7EAFFCDC7E9FF96
:103CB00008011FC8EFFFE92AD8B4EA2AEF6A070112
:103CC000CD2BD8B4CE2B000112000900F6CF10F88E
:103CD000F7CF11F8F8CF12F8F5CF1FF8E5DF10C8CD
:103CE000F6FF11C8F7FF12C8F8FF08010F2F01D027
:103CF00002D00001EAD700011200D8B204D0080EA9
:103D0000EA6E2D0EE96E006A016A026A036A080112
:103D10002D6B2E6B2F6B306B2C512B112A1129110F
:103D20002CE0200E316FD8902537263727372837DB
:103D30002D372E372F3730372C51305D08E12B517E
:103D40002F5D05E12A512E5D02E129512D5D0FE322
:103D500029512D5F2A51D8A02A3D2E5F2B51D8A082
:103D60002B3D2F5F2C51D8A02C3D305FD8800036E2
:103D7000013602360336312FD6D72DC8EFFF2EC8B5
:103D8000ECFF2FC8ECFF30C8ECFF00011200E95037
:103D90000801136F3B0E1A6F9A0E196FCA0E186F37
:103DA000176B0A0E156F1251D8A41307D882080E8C
:103DB000EA6E0E0EE96E11C828F810C827F80FC871
:103DC00026F80EC825F81AC82CF819C82BF818C8F8
:103DD0002AF817C829F8000190DF0150005213E1BA
:103DE00008011229155DD8A402D000010CD013518E
:103DF0000CE00F0B155D01E01EE213BF1CD013BDDC
:103E000004D0200E12D00801136B1251155D0CE185
:103E100000C013F82E0E1F6F000146DF080113C803
:103E200000F0200E1317000E300E002600C01FF801
:103E300000013ADF0801D8921AC828F819C827F8F3
:103E400018C826F817C825F82C6B2B6B2A6B0A0E9E
:103E5000296F000152DF03C01AF802C019F801C02F
:103E600018F800C017F80801152FA0D7000112009C
:103E7000DEDE0ED0C95069C8C9FFC730FEE3310E7F
:103E8000006E002EFED700D00801672BD8B4682B37
:103E9000080167C8E9FF68C8EAFFEFCF69F869530E
:103EA000D8B402D00001E6D70001AEDE1200ACDECD
:103EB000C69A949A94889496200EC66E400EC76E49
:103EC0001B6AF2BC1B8CF29CF2BE1B8EF29EB2C827
:103ED000C3F80801C46B0F0EC66F890EC56F0001D1
:103EE0002CDC1BBCF28C1BBEF28E1B6AF2BC1B8C42
:103EF000F29CF2BE1B8EF29EB2C8C3F80801C46BDE
:103F00000F0EC66F920EC56F000117DC1BBCF28C42
:103F10001BBEF28E120060C8B3F85FC8B2F8C7DFEC
:103F200000D000D00000C950060EC96EC730FEE3B5
:103F30006BDE040E006E002EFED700D060C8B3F812
:103F40005FC8B2F8B4DF00D000D00000C950010E45
:103F5000C96EC730FEE3C950C96AC730FEE354DEFC
:103F600012009FC8B3F89EC8B2F8A1DF00D000D0FD
:103F70000000C950030EC96EC730FEE312009CC892
:103F80009FF89BC89EF8EDDF99C89EF8C95099C864
:103F9000C9FFC730FEE398C89EF8C95098C8C9FF4A
:103FA000C730FEE397C89EF8C95097C8C9FFC7300D
:103FB000FEE3C950C96AC730FEE3C9CF9DF824DECD
:103FC00008019DC801F000011200B1C8B3F8B0C8E3
:103FD000B2F86DDF00D000D00000C950060EC96EE7
:103FE000C730FEE311DE00D000D00000B1C8B3F846
:103FF000B0C8B2F85CDF00D000D0000012009AC850
:10400000B1F899C8B0F8E1DFC95094C8C9FFC7300A
:10401000FEE308019451600803E09451C70809E1E8
:104020000001F2DD3D0E0801B06F0001D9DD1DD0A9
:10403000080197C89BF8C95097C8C9FFC730FEE36D
:1040400096C89BF8C95096C8C9FFC730FEE395C80B
:104050009BF8C95095C8C9FFC730FEE30001D4DD05
:10406000200E0801B06F0001BBDD120099C89FF857
:1040700098C89EF876DF94C89AF8C95094C8C9FFCA
:10408000C730FEE393C89AF8C95093C8C9FFC73038
:10409000FEE392C89AF8C95092C8C9FFC730FEE340
:1040A00008019651971114E091C803F090C8E9FFF8
:1040B00091C8EAFFC950C96AC730FEE3C9CFEFFF14
:1040C000902BD8B4912B9651D8B497079607E9D77F
:1040D00000019ADD1200A3C8B1F8A2C8B0F875DFDC
:1040E000C950020EC96EC730FEE39EC8A4F8C9507D
:1040F0009EC8C9FFC730FEE39DC8A4F8C9509DC83B
:10410000C9FFC730FEE39CC8A4F8C9509CC8C9FFCA
:10411000C730FEE30801A1C803F0A051D8B4A1073D
:10412000A007031011E09BC803F09AC8E9FF9BC8E1
:10413000EAFFEFCFA4F8C950A4C8C9FFC730FEE317
:104140009A2BD8B49B2BE7D700015EDD070E080140
:10415000B06F000145DD1200AFC8B1F8AEC8B0F8CD
:1041600034DFC950020EC96EC730FEE3ABC8B0F8E9
:10417000C950ABC8C9FFC730FEE3AAC8B0F8C950E0
:10418000AAC8C9FFC730FEE3A9C8B0F8C950A9C87A
:10419000C9FFC730FEE3C950ADC8C9FFC730FEE351
:1041A00033DD180E006E002EFED700D00801AE5190
:1041B000410808E1AF517C0805E1060EB06F00012F
:1041C0000FDD0801000112009FC8A7F89EC8A6F8DD
:1041D0009DC8A5F89CC8A4F80801A1C803F0A05187
:1041E000D8B4A107A007031025E09BC803F09AC824
:1041F000E9FF9BC8EAFFEFCFA8F8A7C8ACF8A6C8AC
:10420000ABF8A5C8AAF8A4C8A9F8A8C8ADF8A3C86F
:10421000AFF8A2C8AEF800019FDF08019A2BD8B40E
:104220009B2B010EA427D8B0A52BD8B4A62BD8B4AD
:10423000A72BD3D7000152EF21F008019851410874
:104240001BE199517C0818E191C89BF890C89AF835
:1042500095C89FF894C89EF893C89DF892C89CF89A
:1042600097C8A1F896C8A0F899C8A3F898C8A2F86A
:10427000000131DF17D0080191C89BF890C89AF867
:1042800095C89FF894C89EF893C89DF892C89CF86A
:1042900097C8A1F896C8A0F899C8A3F898C8A2F83A
:1042A000000192D7120008014751410803E148512B
:1042B0007C082CE0D80E946F4CC898F84BC897F83F
:1042C0004AC896F849C895F848C89AF847C899F86E
:1042D000000195DE080149C890F84AC891F8010E1E
:1042E0004B25926F000E4C21936FD80E946F93C89C
:1042F00098F892C897F84AC896F849C895F848C8F7
:104300009AF847C899F800017ADE08014E6B4D6BA8
:104310004E5107083CE3080E916F4F0E906F46C850
:1043200095F845C894F844C893F843C892F8976B39
:10433000400E966F42C899F841C898F8000196DE81
:10434000080E0801916F4F0E906F4CC895F84BC83E
:1043500094F84AC893F849C892F8976B400E966F44
:1043600048C899F847C898F8000167DF400E08016F
:104370004327000E442345234623400E4927000EC1
:104380004A234B234C234D2BD8B44E2BC1D70001CD
:10439000120059DC08016939006EF00E0016005059
:1043A0006A256B6F6B8FC9506BC8C9FFC730FEE3BE
:1043B000310E006E002EFED700D0000125DC120069
:1043C00091C801F090C800F00066012A0900F5CFFD
:1043D000EEFF002EFBD7012EF9D7F86A41EF22F04D
:1043E00008014151410803E142517C082CE0D80EFC
:1043F000946F46C898F845C897F844C896F843C8DB
:1044000095F842C89AF841C899F80001F8DD08010A
:1044100043C890F844C891F8010E4525926F000EEC
:104420004621936FD80E946F93C898F892C897F866
:1044300044C896F843C895F842C89AF841C899F814
:104440000001DDDD08018E6B8D6B8C6B8B6B4A6B15
:10445000496B486B476B4A5340E149533EE1485131
:1044600007083BE38DC8F8FF8CC8F7FF8BC8F6FF41
:10447000080EEA6E4B0EE96E916B400E906F0001D4
:104480009FD7080E0801916F4B0E906F46C895F8A4
:1044900045C894F844C893F843C892F8976B400E07
:1044A000966F42C899F841C898F80001C6DE400EE0
:1044B00008018B27000E8C238D238E23400E43276B
:1044C000000E442345234623010E4727D8B0482B2E
:1044D000D8B4492BD8B44A2BBED700011200006AC9
:1044E000016A0801A151D890A2B100260032013220
:1044F000A2B3002600320132A2B5002600320132FA
:10450000A2B7002600320132A2B9002600320132E1
:10451000A2BB002600320132A2BD002600320132C9
:10452000A2BF0026003201320001120008019D6B7B
:104530009E6B9951400805E29951DF0BC90F9D6FA1
:1045400003D0300E995D9D6F9DBF05D09DBF08D0F3
:104550009D510F0805E29BC8E9FF9CC8EAFFEF6A7E
:104560009A51400805E29A51DF0BC90F9E6F03D0A4
:10457000300E9A5D9E6F9EBF05D09EBF08D09E51A3
:104580000F0805E29BC8E9FF9CC8EAFFEF6A100E1E
:10459000A16F9DC8A2F80001A2DF08019E5101246D
:1045A000036A9F6F03C0A0F89FC800F0036A9FC80A
:1045B00001F0000112000801826B886B876B4F6B62
:1045C00082510D0833E04F51310830E344C803F005
:1045D00043C8E9FF44C8EAFFEFCF93F8ECCF94F863
:1045E000ECCF95F8ECCF96F84F519327000E94231B
:1045F0009523962396C89AF895C899F894C898F880
:1046000093C897F842C89CF841C89BF80001B7DCF2
:1046100001C082F8036A08014F51500FE96E080E7D
:104620000320EA6E82C8EFFF4F2BCAD7846B4FC8B6
:1046300083F8845303E183512D0807E24DC8E9FF55
:104640004EC8EAFFEC6AED52EF6A50513A0807E0B3
:104650004DC8E9FF4EC8EAFFEC6AED52EF6A010E61
:10466000835D936F000E8459946F500E9325E96E0D
:10467000080E9421EA6EEF500D0807E04DC8E9FFDF
:104680004EC8EAFFEC6AED52EF6A46C803F045C82F
:1046900093F846C894F851C899F852C89AF84EC889
:1046A0009CF84DC89BF8000141DF94C8EAFF93C80D
:1046B000E9FFEC6AED5201C0EFFF080145C8E9FFD0
:1046C00046C8EAFFECCF03F0ED52EFCF02F0D890EE
:1046D0000234936F0334946F0C0E9325016E000E19
:1046E0009421036E0150835D03E10350845D07E074
:1046F0004DC8E9FF4EC8EAFFEC6AED52EF6A48C8C0
:1047000003F047C893F848C894F853C899F854C8B8
:104710009AF84EC89CF84DC89BF8000107DF01C00D
:1047200095F855C899F856C89AF84EC89CF84DC8DF
:104730009BF8FCDE94C8EAFF93C8E9FF95C8ECFF3C
:10474000ED5201C0EFFF4AC803F049C893F84AC8C8
:1047500094F857C899F858C89AF84EC89CF84DC8AC
:104760009BF80001E3DE94C8EAFF93C8E9FFEC6A16
:10477000ED5201C0EFFF4AC803F0080149C8E9FF44
:104780004AC8EAFFECCF94F8ED52EFCF93F8935379
:1047900002E1945326E04AC803F049C8E9FF4AC839
:1047A000EAFFECCF94F8ED52EFCF93F8932D02D0BF
:1047B000945317E04AC803F049C8E9FF4AC8EAFF22
:1047C000ECCF94F8ED52EFCF93F89351040802E147
:1047D000945307E04DC8E9FF4EC8EAFFEC6AED527A
:1047E000EF6A866B090E856F4F6B45C8E9FF46C8B7
:1047F000EAFFECCF03F0ED52EFCF01F0035203E1FB
:1048000001504F5D37E2036A4F514B25016E4C5109
:10481000032201C093F803C094F8500E8525E96E79
:10482000080E8621EA6EEFCF95F8010E8525966F6A
:10483000000E8621976F500E9625E96E080E97217F
:10484000EA6EEFCF98F895C899F898C89AF84EC8CC
:104850009CF84DC89BF8000169DE94C8EAFF93C834
:10486000E9FF01C0EFFF020E08018527000E862335
:104870004F2BBBD74AC803F049C8E9FF4AC8EAFF33
:10488000ECCF94F8ED52EFCF93F8935104080DE17B
:1048900094530BE147C8E9FF48C8EAFFECCF03F0A7
:1048A000ED52EFCF87F803C088F84AC803F049C833
:1048B000E9FF4AC8EAFFECCF94F8ED52EFCF93F846
:1048C00093530DE194530BE147C8E9FF48C8EAFF51
:1048D000ECCF03F0ED52EFCF89F803C08AF887C818
:1048E0008DF888C88EF889C88BF88AC88CF845C8B6
:1048F000E9FF46C8EAFFECCF03F0ED52EF508B25FD
:10490000936F03508C21946F000E8D21956F000ED4
:104910008E21966F965303E19551010807E24DC829
:10492000E9FF4EC8EAFFEC6AED52EF6A030E835DC1
:10493000936F000E8459946F500E9325E96E080E04
:104940009421EA6EEFCF95F8020E835D966F000E0C
:104950008459976F500E9625E96E080E9721EA6EDE
:10496000EFCF98F895C899F898C89AF84EC89CF86F
:104970004DC89BF80001DADD0801926B01C091F887
:10498000906B8F6B010E4F6F040E835D006E000EF7
:104990008459036E00C001F0035203E101504F5DE2
:1049A00025E2036A4F51500FE96E080E0320EA6EAC
:1049B000EFCF93F8010E4F25036A500FE96E080EF2
:1049C0000320EA6EEFCF94F893C899F894C89AF848
:1049D0004EC89CF84DC89BF80001A8DD01500801A5
:1049E0008F27000E9023020E4F27CED7906BFF0E1D
:1049F000D8808F55936F000E9055946F010E9325BC
:104A00008F6F000E9421906F906B91518F5D03E139
:104A10009251905D07E04DC8E9FF4EC8EAFFEC6A8D
:104A2000ED52EF6A43C8E9FF44C8EAFFEFCF95F8BB
:104A3000ECCF96F8ECCF97F8ECCF98F8835195250A
:104A4000006E84519621016E000E9721026E000EB9
:104A5000982144C8EAFF43C8E9FF00C0EFFF01C046
:104A6000ECFF02C0ECFFEC6E0001B5EF25F0080191
:104A70003E6B3D6B3C6B3B6B3A6B396B386B376B0A
:104A8000266B256B246B236BEA6A350EE96E000EEC
:104A9000000100EC08F00A000900F550EE6E000974
:104AA000FBE1020E0801696F6A6B000172DC08010C
:104AB000686B350E676F000138EC1FF07C0E080143
:104AC000426F410E416F3AC846F839C845F838C8B8
:104AD00044F837C843F8000183DCEA6A350EE96E12
:104AE000000E13EC08F00A000900F550EE6E000904
:104AF000FBE1020E0801696F6A6B00014ADC0801E4
:104B0000686B350E676F000138EC1FF00801366BDB
:104B1000356B2A6B296B306B2F6B2E6B2D6B3551E0
:104B20003611D8A46DD03E6B3D6B3C6B3B6BE0C740
:104B300042F8DFC741F8080E446F230E436F080E9A
:104B4000466F330E456F080E486F270E476F080EED
:104B50004A6F310E496F070E4C6FE30E4B6FE2C781
:104B60004EF8E1C74DF8000126D5E2C703F0070172
:104B7000E1C7E9FFE2C7EAFFEF5208E1EC5206E1C4
:104B80000801366B010E356F3AD007010801312D4F
:104B900005D0325303E1366B010E356F31510408F5
:104BA00006E1325304E1E3C72AF8E4C729F8315398
:104BB00026E1325324E128C82CF827C82BF829C84D
:104BC0002FF82AC830F82BC82DF82CC82EF8070E5D
:104BD0009B6FE30E9A6F30C89FF82FC89EF82EC8BF
:104BE0009DF82DC89CF834C8A1F833C8A0F87C0EF5
:104BF000A36F410EA26F00016BEC20F008018FD76C
:104C0000EA6A350EE96E000E000126EC08F00A0093
:104C10000900F550EE6E0009FBE1020E0801696F14
:104C20006A6B0001C9EC21F00801686B350E676FF3
:104C3000000138EC1FF07C0E0801426F410E416FFD
:104C4000466B456B446B436B7C0E486F420E476F5F
:104C50004C6B0C0E4B6F4A6B496B000153EC21F00F
:104C600096EF27F008010E6B106B0F6B958083A0F9
:104C700009D0968E84AE06D0968C84AC03D0968AEA
:104C800084BA2DD0850EB16EB36A010EB26EB250E9
:104C9000B3CF03F0016E1051B35C21E303E1015087
:104CA0000F5D1DE2958083B003D00E81B36AB26AB6
:104CB000968E84BE03D00E83B36AB26A968C84BC8F
:104CC00003D00E85B36AB26A968A84BA03D00E877F
:104CD000B36AB26AB2500F6FB3CF10F8D8D70EC80C
:104CE00001F0000112000701DD6BDC6BD96B010ED6
:104CF000D86FD76BDA6BDB6BF2CFDFF7F29CF29EEB
:104D0000030EAA6EFD0EA96EA69CA69EA680A850B4
:104D1000DFBDF28CDFBFF28EDE6FEA6A810EE96ED4
:104D2000000E000139EC08F00A000900F550EE6EA3
:104D30000009FBE108019A6B996B986B976B7C0EED
:104D40009C6F420E9B6F0001BFEC1FF001C0D6F7B5
:104D50000701D6513A0813E1010ED76F7C0EDD6FC3
:104D6000420EDC6FEA6A350EE96E000E00014FEC70
:104D700008F00A000900F550EE6E0009FBE1080199
:104D80009A6B996B986B976B7C0E9C6F410E9B6F27
:104D90000001BFEC1FF001C0D6F70701D6513A0859
:104DA00014E1010ED76F7C0EDD6F410EDC6FEA6AF5
:104DB000350EE96E000E00015CEC08F00A000900F7
:104DC000F550EE6E0009FBE10701B1B126D00801F4
:104DD0009A6B996B986B976B7C0E9C6F040E9B6F14
:104DE0000001BFEC1FF001C0D6F70701D6513A0809
:104DF00014E1010ED76F7C0EDD6F040EDC6FEA6AE2
:104E0000350EE96E000E00016AEC08F00A00090098
:104E1000F550EE6E0009FBE1070108019A6B996BF2
:104E2000986B976B7C0E9C6F1B0E9B6F0001BFEC09
:104E30001FF001C0D6F70701D6513A0815E1010E5F
:104E4000D76F7C0EDD6F1B0EDC6FEA6A350EE96EE4
:104E5000000E000176EC08F00A000900F550EE6E35
:104E60000009FBE128D00701D651210803E0D65103
:104E7000200822E1020ED76FEA6A810EE96E000E69
:104E8000000182EC08F00A000900F550EE6E0009FE
:104E9000FBE17C0E0701DD6F1B0EDC6FEA6A350E4D
:104EA000E96E000E000198EC08F00A000900F550C8
:104EB000EE6E0009FBE10701D753D8B4CDD0000155
:104EC00027EC1EF00801686B810E676F000138EC5B
:104ED0001FF00801686B350E676F000138EC1FF09A
:104EE0000701D751010818E2DDC742F8DCC741F8D5
:104EF0000801466B0C0E456F446B436B7C0E486F8C
:104F0000420E476F4C6B0C0E4B6F4A6B496B0001A6
:104F100053EC21F00BD00701DDC7E0F7DCC7DFF76A
:104F2000070EE26FD80EE16F0001A1D527EC1EF04D
:104F30000701D851D91121E1EA6A810EE96E000E0C
:104F40000001ABEC08F00A000900F550EE6E000914
:104F5000FBE127EC1EF00801686B810E676F000112
:104F600038EC1FF0968A000E84BA010E0701DE1994
:104F700003E00001F7D707016FD0EA6A810EE96EFE
:104F8000000E0001CAEC08F00A000900F550EE6EB0
:104F90000009FBE127EC1EF00801686B810E676FCA
:104FA000000138EC1FF00701DE5316E1DB5314E17A
:104FB000938A81BA10D0000155DE01C0DAF70701EB
:104FC000DA51040803E1010EDE6FDB6FDA510808E5
:104FD00002E1010EDB6FEAD7DE533EE0030EAA6E5C
:104FE000A968F20EA86EA69CA69EA684F250006E3A
:104FF000F29CF29E0F01550EA76EAA0EA76EA68216
:10500000A6B2FED7A6940050F212000127EC1EF0C3
:10501000EA6A810EE96E000EEBEC08F00A00090066
:10502000F550EE6E0009FBE10801686B810E676FB9
:10503000000138EC1FF07C0E0801426F420E416FF8
:10504000466B080E456F446B436B0001F0EC21F09A
:1050500027EC1EF0FF000701000157EF28F0F2CF08
:10506000D6F7F29CF29E030EAA6EA968A69CA69E95
:10507000A680A8500701D6BDF28CD6BFF28E0001E3
:10508000806FF2CFD6F7F29CF29E010EAA6EB00EA0
:10509000A96EA69CA69EA680A8500701D6BDF28C3C
:1050A000D6BFF28EB16F0001805301E11CD6805152
:1050B000AF0824E127EC1EF0EA6A810EE96E000ECB
:1050C00047EC09F00A000900F550EE6E0009FBE11B
:1050D0000801686B810E676F000138EC1FF07C0ED1
:1050E0000801426F420E416F466B0A0E456F446BDA
:1050F000436B0001F0EC21F027EC1EF0030EAA6ECA
:10510000A968A86AA69CA69EA684F250006EF29C8E
:10511000F29E0F01550EA76EAA0EA76EA682A6B22A
:10512000FED7A6940050F21200011FEFC2F08E0EBF
:10513000006E28C801F027C802F0036A01AE05D04E
:10514000011E021E022A01E1012A015209E102C0E8
:1051500001F0026A080E005E015202E1006A0ED000
:10516000D89001BE04D0023601360006F9D70801F6
:1051700028AF02D0000102D0019E000112000801F8
:105180004451D8B471D0006E4851D8B46DD00026C7
:1051900004E3810E002668E204D07F0E005E64E323
:1051A00063E045C84CF849514C1B458F498F475126
:1051B0004B03F4CF4EF846514A03F4CF03F0F3CF3C
:1051C0004DF84B03F3504E27F4504D23000E0322AD
:1051D00047514A03F3504E27F4504D23000E026A04
:1051E0000322022245514B03F3504D27F450032272
:1051F000000E022245514A03F3500326F4500222C6
:10520000000E016A012247514903F3504D27F45023
:105210000322000E0222012246514903F3500326C5
:10522000F4500222000E012245514903F350022698
:10523000F4500122002A01BE05D04D370336023654
:1052400001360006000E4DAF0AD0032A02220122C9
:10525000015005E1025003E1035001E1002A4CBF77
:10526000018E4CAF019E04D0006A016A026A036A93
:1052700000011200800ED8A202D00801491B0801CB
:105280004E6B4F6B45C84DF849514D1B4451D8B436
:10529000DFD04C6F006E4851D8B4E3D04C5FD8B427
:1052A00083D03EE349C852F8528F4AC851F84BC8E0
:1052B00050F84F6BD8905233513350334F334C2FFB
:1052C000F8D74DAF03D04E81E0D04E914C914E892E
:1052D000080EEA6E470EE96EEBD04E994DBF0AD02C
:1052E0004CA113D05233513350334F33002AD8B42A
:1052F000C7D00BD052BF0CD0D8904F375037513752
:1053000052370006D8B4BCD0F5D74E8D6DD04E9D27
:1053100045C84DF845AF02D0528FABD0529FA9D0AF
:1053200048C84CF848C800F044514C5F45C852F892
:10533000528F46C851F847C850F84F6BD890523337
:10534000513350334F334C2FF8D74DAF03D04E83EA
:105350009CD04E934C914E8B080EEA6E4B0EE96E2C
:10536000A7D04E9B4DBF0AD04CA113D0523351331E
:1053700050334F33002AD8B483D00BD052BF0CD057
:10538000D8904F375037513752370006D8B478D0BD
:10539000F5D74E8F29D04E9F49C84DF849AF02D05E
:1053A000528F67D0529F65D049C852F8528F4AC871
:1053B00051F84BC850F84DAF04D0529F4E8565D080
:1053C0004E954F6B4C91080EEA6E470EE96E70D009
:1053D0004DBF1CD045C84DF84CA106D052335133B7
:1053E00050334F33002A4CE04FAF0BD0502B09E124
:1053F000512B07E1522B05E1523351335033002A30
:105400003FE04EBD84D74EBFC6D71CD0800E521B86
:1054100052AF04D03AD049C84DF80AD045C84DF82B
:10542000525306E1515304E1505302E1006A21D086
:1054300052BF08D0D8904F37503751375237002ECF
:10544000F7D71ED04DAF02D0528F13D0529F11D03C
:1054500048C800F049C852F84AC851F84BC850F83B
:1054600008D044C800F045C852F846C851F847C8AB
:1054700050F852C801F051C802F050C803F034D0BF
:10548000006A016A026A036A2FD04F6B501F511FD6
:10549000521F4F1F4F2B05E1502B03E1512B01E110
:1054A000522B4EB112D74EB354D74EB589D7B3D77E
:1054B000EF50502705E3512B03E1522BD8B44C8118
:1054C000ED52EF50512703E3522BD8B44C81ED52EB
:1054D000EF50EFBE01D0800A5227D8B04C814EB9B0
:1054E000FCD64EBB3ED774D70001120008012E51E6
:1054F000D8B4A5D03A6F3251D8B4A1D03A5F05E301
:105500007F0E3A27D8B09BD006D0810E3A5FD8A044
:1055100096D0D8B494D03AC800F0016A026A036AFF
:10552000396B2FC838F8388F30C837F831C836F89B
:10553000190E3A6F3551365F0DE2010E375F0AE200
:10554000385F08E2395F06E2392B382B372B3551AB
:10555000362728D03451375F12E2010E385F0FE250
:10556000395F0DE2392B382B345137273551362727
:1055700019E3372B17E1382B15E1392B13D03351B1
:105580008009385F0EE2010E395F0BE2392B33518F
:105590008009382734513727E9E3382BE7E1392BE5
:1055A000E5D703803A2F01D00BD0D8903637373764
:1055B00038373937D8900336023601363B37BAD7F9
:1055C0003BA106D0D8900132023203323B3302D0E5
:1055D000000635E03BBF1ED0D89036373737383716
:1055E00039373551365F07E2010E375F04E2385F25
:1055F00002E2395F1AE33451375F05E2010E385F8A
:1056000002E2395F12E333518009385F03E2010E91
:10561000395F0BE3032A09E1022A07E1012A05E1C8
:10562000002A0DE00132023203322FC83AF833511A
:105630003A1B3AAF02D0018E06D0019E04D0006A18
:10564000016A026A036A0001120041C848F80801B1
:105650004551481B48AF05D0D894D89041BFD88059
:105660002FD041C848F844C849F84051495F06E086
:1056700048AF26D0D850010AD86E22D045C849F884
:105680004151495F06E048AF1BD0D850010AD86E9F
:1056900017D046C849F84251495F06E048AF10D0DC
:1056A000D850010AD86E0CD047C849F84351495F19
:1056B00006E048AF05D0D850010AD86E01D0D89086
:1056C0000001120015C819F814C818F813C817F803
:1056D00012C816F819C843F818C842F817C841F894
:1056E00016C840F80801476B466B456B7F0E446F48
:1056F0000001ABDFD8B494D1080E0801286F160E54
:10570000E96E28C8EAFF7E0EEF6ED88219C847F806
:1057100018C846F817C845F816C844F84B6B4A6BCA
:10572000496B7F0E486F0001A5DD00C027F801C05E
:1057300028F802C029F803C02AF8D89219C847F8F7
:1057400018C846F817C845F816C844F808014B6B46
:105750004A6B496B7F0E486F00018CDD2AC831F817
:1057600029C830F828C82FF827C82EF803C035F804
:1057700002C034F801C033F800C032F8B7DE03C00D
:1057800019F802C018F801C017F800C016F819C8B7
:1057900047F818C846F817C845F816C844F819C895
:1057A0004BF818C84AF817C849F816C848F8E7DC93
:1057B00003C025F802C024F801C023F800C022F875
:1057C000990E0801476F470E466F8A0E456F7F0E90
:1057D000446F25C84BF824C84AF823C849F822C8A2
:1057E00048F80001CCDC00C027F801C028F802C04E
:1057F00029F803C02AF8D89203C047F802C046F837
:1058000001C045F800C044F808014B6B4A6B496B76
:10581000800E486F00012EDD03C01DF802C01CF889
:1058200001C01BF800C01AF84C0E0801476FF30EB8
:10583000466F3A0E456F7B0E446F25C84BF824C85F
:105840004AF823C849F822C848F8000198DC00C08B
:1058500027F801C028F802C029F803C02AF8D89216
:1058600003C047F802C046F801C045F800C044F83C
:105870002B0E08014B6F9D0E4A6FDF0E496F7E0E97
:10588000486F0001F7DC03C021F802C020F801C016
:105890001FF800C01EF821C847F820C846F81FC8E6
:1058A00045F81EC844F825C84BF824C84AF823C850
:1058B00049F822C848F863DC00C027F801C028F87E
:1058C00002C029F803C02AF8D89203C047F802C0E2
:1058D00046F801C045F800C044F808014B6B4A6B1C
:1058E000496B7F0E486F0001C5DC03C021F802C080
:1058F00020F801C01FF800C01EF819C847F818C8E2
:1059000046F817C845F816C844F81DC84BF81CC817
:105910004AF81BC849F81AC848F831DC00C027F813
:1059200001C028F802C029F803C02AF803C031F8E2
:1059300002C030F801C02FF800C02EF821C835F899
:1059400020C834F81FC833F81EC832F8CFDD03C0B2
:105950001DF802C01CF801C01BF800C01AF8080EA0
:105960000801286F120EE96E28C8EAFF7E0EEF5C70
:10597000266F26BF01D015D0000ED8802655286B83
:10598000276F27BF2807000197EC28F000C01EF8FA
:105990000150800A08011F6F02C020F803C021F8DF
:1059A00011D0286B26C827F827BF2807000197ECDD
:1059B00028F003C021F802C020F801C01FF800C081
:1059C0001EF8080121C847F820C846F81FC845F846
:1059D0001EC844F8180E4B6F720E4A6F310E496F95
:1059E0007E0E486F0001BFEC28F0D8921DC847F822
:1059F0001CC846F81BC845F81AC844F803C04BF841
:105A000002C04AF801C049F800C048F833DC03C0BE
:105A10001DF802C01CF801C01BF800C01AF806D01F
:105A200008011D6B1C6B1B6B1A6B00011AC800F080
:105A30001BC801F01CC802F01DC803F0D9EF2DF0FF
:105A40008E0E006E08014051005E41C802F042C84F
:105A500001F0028E005209E0D890025202E1015298
:105A600004E002320132002EF7D741AF05D0011E0B
:105A7000021E012AD8B4022A000112004A0E0701B0
:105A8000FB6F290EFA6F480EF96F7B0EF86FFF6BF4
:105A9000400EFE6F530EFD6F8A0EFC6F080E016EF6
:105AA000C250830B0110C26E100E006E002EFED786
:105AB0000000C282C2B2FED7C3CFF6F7C4CFF7F759
:105AC000F7C728F8F6C727F8000197EC28F003C0BD
:105AD00003F802C002F801C001F800C000F8080194
