:020000040000FA
:10000000C0EF01F0FFFFFFFF84EF02F000000000EF
:1000100000000000000000008CEF02F010004164BE
:10002000762B2042746C64722056312E300D0A00FB
:100030000D0A54696D656F75742E2041626F72747C
:1000400000000900F55213E0F6CF4FF0F7CF50F063
:10005000F8CF51F0F5500E0136ADFED7F26F4FC01C
:10006000F6FF50C0F7FF51C0F8FF0001EAD71200B9
:100070000E0136A9FED7996E000140EF02F0F25052
:10008000006EF29E030E756E74684FC076FF779C0B
:10009000779E77840F01550E786EAA0E786E778260
:1000A00077B2FED77794779C778E0050F2120001DA
:1000B00012000E0136AFFED7F5CE06F0F1CE01F0FC
:1000C00006A202D0F599F5890001E1EF00F00E01DA
:1000D00036ADFED7F26F00011200836B846B845142
:1000E00001082BE382C003F081C0E9FF82C0EAFF70
:1000F000EF50400810E28351100DF3CF85F082C01D
:1001000003F081C0E9FF82C0EAFFEF508525BF0FF1
:100110000A0F836F0CD08351100DF3CF85F081C08F
:10012000E9FF82C0EAFFEF508525D00F836F84512D
:10013000842B812BD8B4822BD2D783C001F012003C
:10014000F250036EF29E77840F01550E786EAA0E60
:10015000786E778200000350F21200011200F65010
:100160007F0B006E800EF6160A007DC001F000665F
:1001700007D0EECFF5FF015204E00F00010603D0D7
:1001800000060B000C007F0EF6147F0AF0E1778862
:10019000D7DFD6DF0166EBD7F86AAFEF01F04F92F9
:1001A000556A546A4FB2E2D0076A036A0750080FD3
:1001B000E96E000E0320EA6EEACF80F0E9CF7FF00F
:1001C00078D780C0EAFF7FC0E9FF01C0EFFF07508A
:1001D000072A036A080FE96E000E0320EA6EEF504B
:1001E0000D0803E007504008E0E2130E70DF4F8077
:1001F00008503A08D8A4B3D0826B090E816F6DDF26
:1002000001C05CF0826B0B0E816F67DF01C07DF077
:10021000826B0D0E816F61DF7DC053F001C052F023
:10022000826B0F0E816F59DF01C051F054C058F03E
:1002300055C059F052C056F053C057F0506A010EE5
:100240005B6E030E075C5B5C14E2036A5B50080F95
:10025000016E000E032201C07DF003C07EF003C0DA
:1002600082F001C081F039DF01505026020E5B267A
:10027000E8D7FF0ED8805054010F506E030E075C74
:10028000036A080F016E000E032201C07DF003C057
:100290007EF003C082F001C081F01FDF0150505C8E
:1002A00002E04F905CD0512C02D04F8258D0515078
:1002B000040811E1826B110E816F0FDF01C07DF028
:1002C000826B130E816F09DF01C07EF07DC055F097
:1002D00001C054F044D0515242E1595205E1585204
:1002E00003E1575004083BE2595239E158500108E4
:1002F00036E3090E5B6E5A6A030E075C5B5C23E211
:100300005A505A2A036A5D0F016E000E032201C083
:100310007DF003C07EF0036A5B50080F016E000E93
:10032000032201C07FF003C080F003C082F001C04F
:1003300081F0D3DE7EC0EAFF7DC0E9FF01C0EFFFA0
:10034000020E5B26D9D758C0F8FF57C0F7FF56C03A
:10035000F6FFEA6A5D0EE96E5CC07DF000D74FA043
:1003600002D0060EB4DE110EB2DE1CD7060EAFDED2
:10037000110EADDEFF00BEEF01F011D768EF02F005
:10038000778E779CF86AD09E0E01550E0D01EF6FA7
:10039000AA0EEF6FEF91170E0E010F6F320E116F55
:1003A000080E196F0A0E1A6F190E5A6F1A0E5B6F2C
:1003B0000C0E686F0E0E836F550E0D01EF6FAA0EB7
:1003C000EF6FEF81E80E006E0E0E016E020EE96E09
:1003D000000EEA6EEE6A002EFDD7012EFBD70E014D
:1003E000486B456B476B496B700E436F066A9E8680
:1003F000080E9A6E020E9B6EA60E9D6E900E9C6E5F
:10040000F787810EF36F000EF46FA60EF66F900E55
:10041000F56F959A400E946E200E956E82928284AE
:100420008290496A486A926B9A6BA76BAF6BB46B08
:10043000BC6BD26BD36BD16BD06B4A6AF2CF4FF0EF
:10044000F29E030E756E7468779C779E7780765067
:10045000779C778E4FBEF28E4A6EDC0E826E828C57
:100460008AAC02D0010E4A6E4A2C40D01E0EF66EA7
:10047000000EF76E000EF86E0001E3DD070EF8D5F2
:100480004F6AFDDD4E6A4D6A4C6A4B6A0E0136BFFB
:100490001BD0010E4B26D8B04C2AD8B44D2AD8B464
:1004A0004E2A4E5211E14D5016080EE307E14C5012
:1004B000E3080AE303E14B505F0806E30400100E73
:1004C000006E002EFED7E3D736AF04D0000155D71B
:1004D0000CD00E01300EF66E000EF76E000EF86EA8
:1004E0000001AFDD010E4F6ECADD0E01000108D81C
:1004F0000300FFFFFFFFFFFFFFFFFFFFFFFFFFFF07
:1005000080EFEBF0FFFFFFFF046ED8CF05F0E0CFE8
:1005100006F00001E9CF0CF0EACF07F0E1CF08F0D8
:10052000E2CF09F0D9CF0AF0DACF0BF0F3CF12F017
:10053000F4CF13F0FACF14F0F5CF15F0F6CF16F094
:10054000F7CF17F0F8CF18F0FBCF19F000C00EF07E
:1005500001C00FF002C010F003C011F00E012CAB6F
:10056000B5EF02F036BB64EF0DF02CAFBBEF02F03D
:1005700036BF95EF0DF02EA1C1EF02F038B103EFB9
:100580000EF00EC000F00FC001F010C002F011C05C
:1005900003F00CC0E9FF07C0EAFF078E08C0E1FFC7
:1005A00009C0E2FF0AC0D9FF0BC0DAFF12C0F3FF97
:1005B00013C0F4FF14C0FAFF15C0F5FF16C0F6FF14
:1005C00017C0F7FF18C0F8FF19C0FBFF045006C0A2
:1005D000E0FF05C0D8FF1000F76AEC0FF66E050EBD
:1005E000F722000EF86E0900F5501200000000001E
:1005F00088130000C8320000A8610000409C000081
:1006000060EA00001CDE0F00F76A1C0FF66E060E93
:10061000F722000EF86E0900F5501200484D493AD5
:1006200020322E302E303000F76A3C0FF66E060E68
:10063000F722000EF86E0900F55012002061632DBC
:1006400066740000F76A580FF66E060EF722000E69
:10065000F86E0900F55012004861726477617265A6
:10066000205465737400F76A7A0FF66E060EF7224F
:10067000000EF86E0900F55012005741524E494ED7
:10068000473A20446F206E6F742072756E20746537
:100690007374207768656E00F76AAC0FF66E060E0D
:1006A000F722000EF86E0900F5501200626F6172B9
:1006B00064732061726520636F6E6E656374656438
:1006C00020746F2061206D616368696E6500F76A50
:1006D000E20FF66E060EF722000EF86E0900F550D6
:1006E0001200416C6C204F757470757473204F4B01
:1006F0000000F76A060FF66E070EF722000EF86E7E
:100700000900F5501200524320436F6D6D730000D5
:10071000F76A240FF66E070EF722000EF86E090036
:10072000F55012004C616E67756167650000F76AED
:10073000420FF66E070EF722000EF86E0900F55014
:10074000120053657474696E67730000F76A600F76
:10075000F66E070EF722000EF86E0900F550120033
:1007600050726F6772616D730000F76A7E0FF66EEC
:10077000070EF722000EF86E0900F55012004361D3
:100780006E63656C0000F76A9A0FF66E070EF7222B
:10079000000EF86E0900F5501200506C656173652B
:1007A00020746170206F6E2074686520646F74001F
:1007B000F76AC40FF66E070EF722000EF86E0900F6
:1007C000F5501200526573657420484D4900F76A70
:1007D000E20FF66E070EF722000EF86E0900F550D4
:1007E0001200526573657420492F4F00F76A000F9D
:1007F000F66E080EF722000EF86E0900F550120092
:1008000041726520796F7520737572653F00F76AD4
:10081000220FF66E080EF722000EF86E0900F55052
:100820001200486F7572732F52657600F76A400F99
:10083000F66E080EF722000EF86E0900F550120051
:10084000506F736974696F6E0000F76A5E0FF66E21
:10085000080EF722000EF86E0900F55012005465DC
:100860006D706572617475726500F76A7E0FF66E61
:10087000080EF722000EF86E0900F55012005072B3
:100880006573737572650000F76A9C0FF66E080E4B
:10089000F722000EF86E0900F550120053616665EC
:1008A00074790000F76AB80FF66E080EF722000E92
:1008B000F86E0900F5501200456E642047756E0011
:1008C000F76AD40FF66E080EF722000EF86E0900D4
:1008D000F55012004163746976652050726F67723B
:1008E000616D3A00F76AF80FF66E080EF722000EF7
:1008F000F86E0900F55012005265696E436C6F7511
:100900006400F76A160FF66E090EF722000EF86EF5
:100910000900F55012004C6F63616C2050726F67D4
:1009200072616D20536574757000F76A3E0FF66E44
:10093000090EF722000EF86E0900F55012005072F1
:100940006F6772616D203120536574757000F76AAE
:10095000620FF66E090EF722000EF86E0900F550D0
:10096000120050726F6772616D203220536574758A
:100970007000F76A860FF66E090EF722000EF86E09
:100980000900F550120053617665205265696E4387
:100990006C6F7564206173204C6F63616C00F76A43
:1009A000B20FF66E090EF722000EF86E0900F55030
:1009B0001200536563746F72204F706572617469C1
:1009C0006F6E732E2E2E0000F76ADC0FF66E090E86
:1009D000F722000EF86E0900F550120042617272A3
:1009E00069657200F76AF80FF66E090EF722000EBD
:1009F000F86E0900F55012004261727269657273F7
:100A000020456E61626C65640000F76A1E0FF66E29
:100A10000A0EF722000EF86E0900F550120042612E
:100A20007272696572732044697361626C656400F7
:100A3000F76A440FF66E0A0EF722000EF86E0900F0
:100A4000F550120044656C617920496E74657276C8
:100A5000616C0000F76A680FF66E0A0EF722000E4E
:100A6000F86E0900F5501200536563746F72000050
:100A7000F76A840FF66E0A0EF722000EF86E090070
:100A8000F5501200456E642047756E203200F76AFB
:100A9000A20FF66E0A0EF722000EF86E0900F5504E
:100AA000120053797374656D0000F76ABE0FF66E1D
:100AB0000A0EF722000EF86E0900F550120052657A
:100AC000737461727400F76ADA0FF66E0A0EF72219
:100AD000000EF86E0900F5501200437573746F6DC7
:100AE000697A6500F76AF80FF66E0A0EF722000EB3
:100AF000F86E0900F55012004D656E752053656C57
:100B000065637400F76A180FF66E0B0EF722000E7D
:100B1000F86E0900F550120052756E20447279008B
:100B2000F76A340FF66E0B0EF722000EF86E09000E
:100B3000F550120053797374656D20547970650017
:100B4000F76A540FF66E0B0EF722000EF86E0900CE
:100B5000F5501200506F736974696F6E205479708C
:100B60006500F76A760FF66E0B0EF722000EF86E30
:100B70000900F55012004F66667365740000F76A4D
:100B8000920FF66E0B0EF722000EF86E0900F5506C
:100B900012004D696E20446570746800F76AB00FEA
:100BA000F66E0B0EF722000EF86E0900F5501200DB
:100BB00053746172742050756C736500F76AD00FBE
:100BC000F66E0B0EF722000EF86E0900F5501200BB
:100BD000556E6974205479706500F76AEE0FF66EF1
:100BE0000B0EF722000EF86E0900F5501200437943
:100BF000636C652054696D650000F76A0E0FF66E30
:100C00000C0EF722000EF86E0900F550120046692E
:100C1000656C64204C656E6774680000F76A300F7D
:100C2000F66E0C0EF722000EF86E0900F550120059
:100C30004D617820537065656400F76A4E0FF66E5B
:100C40000C0EF722000EF86E0900F55012005072DB
:100C50006573746172740000F76A6C0FF66E0C0EA7
:100C6000F722000EF86E0900F5501200416C6C6F0F
:100C7000777320696E646570656E64656E74206359
:100C80006F6E74726F6C206F6600F76A9E0FF66E5F
:100C90000C0EF722000EF86E0900F5501200746871
:100CA0006520617578696C69617279206F757470FF
:100CB00075740000F76AC80FF66E0C0EF722000E6E
:100CC000F86E0900F5501200506C61636573207373
:100CD000616665747920636F6E646974696F6E73A1
:100CE000206F6E00F76AF80FF66E0C0EF722000EFA
:100CF000F86E0900F5501200617578696C696172CF
:100D000079206F757470757420616374697661748D
:100D1000696F6E00F76A280FF66E0D0EF722000E4F
:100D2000F86E0900F55012004163746976617465CC
:100D30007320617578696C69617279206F75747060
:100D4000757420666F720000F76A5C0FF66E0D0E08
:100D5000F722000EF86E0900F55012007468652045
:100D60007370656369666965642074696D65206286
:100D700065666F726500F76A8A0FF66E0D0EF722D0
:100D8000000EF86E0900F5501200737461727469F8
:100D90006E67207468652073797374656D00F76AF7
:100DA000B20FF66E0D0EF722000EF86E0900F55028
:100DB00012004368656D20466C7573683A00F76AE7
:100DC000D20FF66E0D0EF722000EF86E0900F550E8
:100DD000120050726573746172742054696D653AC3
:100DE0000000F76AF60FF66E0D0EF722000EF86E91
:100DF0000900F550120041757820547970653A0069
:100E0000F76A140FF66E0E0EF722000EF86E090048
:100E1000F5501200507265737375726520526573D8
:100E2000746172740000F76A3A0FF66E0E0EF722C4
:100E3000000EF86E0900F5501200506F77657220B1
:100E40005265737461727400F76A5C0FF66E0E0E71
:100E5000F722000EF86E0900F55012005061726B17
:100E6000204F66660000F76A7A0FF66E0E0EF722C4
:100E7000000EF86E0900F550120052737420507283
:100E80006573737572653A00F76A9C0FF66E0E0E05
:100E9000F722000EF86E0900F550120054656D70CF
:100EA000657261747572652053656E736F720000B0
:100EB000F76AC40FF66E0E0EF722000EF86E0900E8
:100EC000F550120054656D702053687574646F7727
:100ED0006E00F76AE60FF66E0E0EF722000EF86E41
:100EE0000900F5501200536875746F6666205465EA
:100EF0006D703A00F76A080FF66E0F0EF722000EBB
:100F0000F86E0900F550120054656D70205265733B
:100F1000746172740000F76A2A0FF66E0F0EF722E2
:100F2000000EF86E0900F55012005265737461727C
:100F3000742054656D703A00F76A4C0FF66E0F0E10
:100F4000F722000EF86E0900F5501200466C6F771C
:100F50002053656E736F7200F76A6C0FF66E0F0E9A
:100F6000F722000EF86E0900F5501200556E6974F4
:100F7000732F70756C736500F76A8C0FF66E0F0E29
:100F8000F722000EF86E0900F55012004C6F772022
:100F90007265706F72740000F76AAC0FF66E0F0E18
:100FA000F722000EF86E0900F550120048696768D4
:100FB000207265706F727400F76ACC0FF66E0F0EB8
:100FC000F722000EF86E0900F550120053656E739B
:100FD0006F723A00F76AE80FF66E0F0EF722000EF6
:100FE000F86E0900F55012005377697463680000C9
:100FF000F76A040FF66E100EF722000EF86E090065
:10100000F5501200586475637220302D3230300074
:10101000F76A240FF66E100EF722000EF86E090024
:10102000F5501200586475637220302D323500007F
:10103000F76A440FF66E100EF722000EF86E0900E4
:10104000F55012005864756372204C6F772050740D
:101050000000F76A660FF66E100EF722000EF86EAB
:101060000900F5501200586475637220486967687A
:1010700020507400F76A880FF66E100EF722000EEB
:10108000F86E0900F55012004275696C64204465E1
:101090006C617900F76AA80FF66E100EF722000E49
:1010A000F86E0900F5501200526573746172742075
:1010B00044656C617900F76ACA0FF66E100EF7226C
:1010C000000EF86E0900F5501200536875746F66D3
:1010D000662044656C617900F76AEC0FF66E100EBD
:1010E000F722000EF86E0900F55012005374617279
:1010F0007420417474656D7074730000F76A100F8A
:10110000F66E110EF722000EF86E0900F55012006F
:101110004D6F76696E670000F76A2C0FF66E110E40
:10112000F722000EF86E0900F55012004F76657236
:101130006C617000F76A480FF66E110EF722000E10
:10114000F86E0900F5501200546F74616C20466C03
:101150006F770000F76A680FF66E110EF722000E27
:10116000F86E0900F5501200566965772052432049
:1011700050726F6772616D00F76A8C0FF66E110E18
:10118000F722000EF86E0900F55012004C617465EC
:1011900072616C00F76AA80FF66E110EF722000E4E
:1011A000F86E0900F55012005265736F6C76657227
:1011B0000000F76AC60FF66E110EF722000EF86EE9
:1011C0000900F550120044656164205265636B2E7E
:1011D0000000F76AE60FF66E110EF722000EF86EA9
:1011E0000900F5501200456E676C69736800F76A74
:1011F000020FF66E120EF722000EF86E0900F5507F
:1012000012004D65747269630000F76A1E0FF66E76
:10121000120EF722000EF86E0900F55012004B6511
:1012200079706164205374617274204657440000E1
:10123000F76A440FF66E120EF722000EF86E0900E0
:10124000F55012004B6579706164205374617274BB
:10125000205245560000F76A6A0FF66E120EF7220A
:10126000000EF86E0900F55012004B65797061644C
:101270002053746F7000F76A8A0FF66E120EF72211
:10128000000EF86E0900F55012004B65797061642C
:1012900020446972656374696F6E0000F76AB00F6D
:1012A000F66E120EF722000EF86E0900F5501200CD
:1012B000557365722044657074680000F76AD00F3A
:1012C000F66E120EF722000EF86E0900F5501200AD
:1012D000557365722053706565640000F76AF00FFE
:1012E000F66E120EF722000EF86E0900F55012008D
:1012F00050726F672044657074680000F76A100FC1
:10130000F66E130EF722000EF86E0900F55012006B
:1013100050756D70204F6E00F76A2C0FF66E130E2D
:10132000F722000EF86E0900F550120050756D702E
:10133000204F66660000F76A4A0FF66E130EF7221A
:10134000000EF86E0900F55012004368656D204FDD
:101350006E00F76A660FF66E130EF722000EF86E37
:101360000900F55012004368656D204F6666000065
:10137000F76A840FF66E130EF722000EF86E09005E
:10138000F55012004567756E31204F6E0000F76A08
:10139000A20FF66E130EF722000EF86E0900F5503C
:1013A00012004567756E31204F666600F76AC00F00
:1013B000F66E130EF722000EF86E0900F5501200BB
:1013C0004567756E32204F6E0000F76ADE0FF66ECD
:1013D000130EF722000EF86E0900F5501200456753
:1013E000756E32204F666600F76AFC0FF66E130EBC
:1013F000F722000EF86E0900F550120041757831A1
:10140000204F6E00F76A180FF66E140EF722000ECA
:10141000F86E0900F550120041757831204F66666C
:101420000000F76A360FF66E140EF722000EF86E03
:101430000900F55012005365747570204D656E7586
:1014400020456E74657265640000F76A5E0FF66E83
:10145000140EF722000EF86E0900F55012004F76B8
:10146000657272696465204657440000F76A800F10
:10147000F66E140EF722000EF86E0900F5501200F9
:101480004F76657272696465205245560000F76AAE
:10149000A20FF66E140EF722000EF86E0900F5503A
:1014A00012004F7665727269646520456E640000B3
:1014B000F76AC40FF66E140EF722000EF86E0900DC
:1014C000F5501200452D4175746F2053746F7000F4
:1014D000F76AE40FF66E140EF722000EF86E09009C
:1014E000F5501200452D4175746F2052455600008D
:1014F000F76A040FF66E150EF722000EF86E09005B
:10150000F550120042617272696572204175746F04
:101510002053746F7000F76A2A0FF66E150EF722CB
:10152000000EF86E0900F550120042617272696592
:1015300072204175746F205245560000F76A500FB3
:10154000F66E150EF722000EF86E0900F550120027
:1015500053616665747920426567696E0000F76AB9
:10156000720FF66E150EF722000EF86E0900F55098
:1015700012005361666574792053687574646F77DF
:101580006E00F76A960FF66E150EF722000EF86ED3
:101590000900F550120053616665747920456E6448
:1015A0000000F76AB60FF66E150EF722000EF86E01
:1015B0000900F55012004C6F772050726573732E3E
:1015C0002053687574646F776E00F76ADE0FF66EED
:1015D000150EF722000EF86E0900F550120048694A
:1015E00067682050726573732E2053687574646F3A
:1015F000776E0000F76A080FF66E160EF722000EDF
:10160000F86E0900F5501200436C656172204C6F52
:1016100067730000F76A280FF66E160EF722000EA9
:10162000F86E0900F5501200506F776572204F6E0A
:101630000000F76A460FF66E160EF722000EF86EDF
:101640000900F55012004C6F772054656D702053DF
:10165000687574646F776E00F76A6C0FF66E160E1D
:10166000F722000EF86E0900F55012004C6F77203B
:1016700054656D702053746172740000F76A900FA6
:10168000F66E160EF722000EF86E0900F5501200E5
:10169000426567696E2044656164205265636B2E04
:1016A0000000F76AB60FF66E160EF722000EF86EFF
:1016B0000900F5501200506F732E205369676E6158
:1016C0006C204C6F73740000F76ADC0FF66E160E18
:1016D000F722000EF86E0900F55012005374617481
:1016E00075730000F76AF80FF66E160EF722000EFB
:1016F000F86E0900F550120052656D6F7465204454
:101700006972656374696F6E0000F76A1E0FF66E8A
:10171000170EF722000EF86E0900F5501200526500
:101720006D6F74652053706565640000F76A400F43
:10173000F66E170EF722000EF86E0900F550120033
:1017400052656D6F74652053746172740000F76A9E
:10175000620FF66E170EF722000EF86E0900F550B4
:10176000120052656D6F74652053746F7000F76AD4
:10177000820FF66E170EF722000EF86E0900F55074
:1017800012005669727475616C2053746172742012
:1017900046574400F76AA80FF66E170EF722000EA0
:1017A000F86E0900F55012005669727475616C206C
:1017B00053746F700000F76ACA0FF66E170EF722A7
:1017C000000EF86E0900F5501200566972747561CA
:1017D0006C2053746172742052455600F76AF00F02
:1017E000F66E170EF722000EF86E0900F550120083
:1017F000506F776572204F666600F76A0E0FF66EBF
:10180000180EF722000EF86E0900F5501200492F4D
:101810004F204661756C7400F76A2C0FF66E180E37
:10182000F722000EF86E0900F55012004F702048A4
:101830006F7572730000F76A4A0FF66E180EF72282
:10184000000EF86E0900F5501200494F2045455032
:10185000524F4D2073706563207061737300F76A97
:10186000720FF66E180EF722000EF86E0900F55092
:101870001200484D4920454550524F4D2073706528
:101880006320706173730000F76A9C0FF66E180E88
:10189000F722000EF86E0900F550120053656374CC
:1018A0006F722050726F6772616D0000F76AC00F2F
:1018B000F66E180EF722000EF86E0900F5501200B1
:1018C000557064617465204669726D776172650058
:1018D000F76AE40FF66E180EF722000EF86E090094
:1018E000F55012004175746F205570646174650085
:1018F000F76A040FF66E190EF722000EF86E090053
:10190000F55012004C6F6164696E672E2E2E2070A8
:101910006C6561736520776169740000F76A300F48
:10192000F66E190EF722000EF86E0900F55012003F
:1019300044697374616E63652F687200F76A500FB3
:10194000F66E190EF722000EF86E0900F55012001F
:10195000536570617261746F7200F76A6E0FF66E94
:10196000190EF722000EF86E0900F5501200446FB0
:10197000206E6F7420706F776572206F66662064CA
:10198000657669636500F76A9A0FF66E190EF7229D
:10199000000EF86E0900F5501200436C656172206C
:1019A000466C6F770000F76ABA0FF66E190EF722D1
:1019B000000EF86E0900F55012004F544120484DBA
:1019C00049207570646174650000F76ADE0FF66E79
:1019D000190EF722000EF86E0900F55012004F5450
:1019E0004120492F4F207570646174650000F76ACB
:1019F000020FF66E1A0EF722000EF86E0900F5506F
:101A000012004C6F63616C20484D49207570646111
:101A100074650000F76A280FF66E1A0EF722000EA2
:101A2000F86E0900F55012006C6F6773312E7478F0
:101A30007400F76A460FF66E1A0EF722000EF86E63
:101A40000900F55012006C6F6773302E74787400C3
:101A50002E0046415420617420736563746F7220B8
:101A6000300D0A006C6F6773256C752E74787400E6
:101A70002575203020256C6920256C750A006C6F57
:101A80006773256C752E747874006C6F6773256CA2
:101A9000752E747874006C616E6725752E74787479
:101AA00000006625755F25752E72617700000E01B6
:101AB00036ABFED79CCF22F098CF01F022A202D005
:101AC0009C989C88000112000001F1DF01C03FF0EA
:101AD00043C003F04250422AD8B4432A0D01B56FE7
:101AE0007D0EB525E96E010E0320EA6E3FC0EFFFC3
:101AF0004350000807E2FF0A03E142502B0802E2CC
:101B0000436A426A3D8E0E01369B0001C1EF02F02E
:101B10000E0136AFFED7F5CE22F0F1CE01F022A2B3
:101B200002D0F599F589000112000001F1DF01C032
:101B30003EF041C003F04050402AD8B4412A0D0184
:101B4000B56F510EB525E96E000E0320EA6E3EC05A
:101B5000EFFF4150000807E2FF0A03E140502B0865
:101B600002E2416A406A3D8C0E01369F0001C1EFDE
:101B700002F0D8B204D00D0EEA6EC10EE96E006A12
:101B8000016A026A036A0D01C16BC26BC36BC46B4D
:101B9000C051BF11BE11BD112CE0200EC56FD890F1
:101BA000B937BA37BB37BC37C137C237C337C43789
:101BB000C051C45D08E1BF51C35D05E1BE51C25DC6
:101BC00002E1BD51C15D0FE3BD51C15FBE51D8A05F
:101BD000BE3DC25FBF51D8A0BF3DC35FC051D8A0BA
:101BE000C03DC45FD8800036013602360336C52FAB
:101BF000D6D7C1CDEFFFC2CDECFFC3CDECFFC4CD36
:101C0000ECFF000112000001CD50CECF03F00D011A
:101C1000B56FCECFB6FDB00EB5273C0EB623B6CD10
:101C2000CEFFB5CDCDFF0401562B56510908D8B0D3
:101C3000BAD03D80566B572B57510908D8B0B3D056
:101C4000576B010E5927D8B05A2BD8B45B2BD8B498
:101C50005C2B5951010B0D01B56FB66BB76BB86BAF
:101C6000B55307E1B65305E1B75303E1B85301E1BA
:101C70003D86040159510F0B0D01B56FB66BB76B63
:101C8000B86BB55307E1B65305E1B75303E1B85359
:101C900001E13D88D8820D0EEA6EB50EE96E5CC496
:101CA000BCFD5BC4BBFD5AC4BAFD59C4B9FDC06BD1
:101CB000BF6B040EBE6FB00EBD6F00015ADFB8CD12
:101CC000BCFDB7CDBBFDB6CDBAFDB5CDB9FD0D019F
:101CD000B95307E1BA5305E1BB5303E1BC5301E13A
:101CE0003D8AD8820D0EEA6EB50EE96E5CC4BCFD6D
:101CF0005BC4BBFD5AC4BAFD59C4B9FDC06BBF6B10
:101D00000E0EBE6F100EBD6F000133DFB8CDBCFDEF
:101D1000B7CDBBFDB6CDBAFDB5CDB9FD0D01B953FB
:101D20000BE1BA5309E1BB5307E1BC5305E10601DE
:101D30006E2BD8B46F2B0D0104015F51070803E12E
:101D4000060186890401582B5851130802E2140E2B
:101D5000586F4CBC06D06A51010802E36A2B01D0CF
:101D6000698108010D51070807E303E10C510708D9
:101D700003E30C2BD8B40D2B0C51B00804E10D512A
:101D8000040801E10E8306012651271104E02651C3
:101D9000D8B4270726072851291104E02851D8B4C0
:101DA0002907280704010E0138910001C1EF02F054
:101DB000F2CF16FBF29E15CB75FF14CB74FF779C08
:101DC000779E77807650779C778E0B0116BFF28EC8
:101DD000016E00011200F250006EF29E3FCD75FFC1
:101DE0003ECD74FF40CD76FF779C779E77840F01C0
:101DF000550E786EAA0E786E778277B2FED77794FA
:101E0000779C778E0050F21200011200A0CA3FFDAD
:101E10009FCA3EFD0D01406B0001DDDF12000D0E7B
:101E2000EA6EB30EE96EEF5011E0060E016EBF0EC2
:101E3000006E0400002EFDD7012EF9D77A0E006E39
:101E4000002EFED700D00400EF2EEFD71200140EA4
:101E50000D01B36F0001E3DF12009150DCCC91FF64
:101E60009430FEE391CF00F012007A966CCADCFC4D
:101E7000F4DF6DCADCFCF1DF0C01DC6B0001EDDF8F
:101E80007A8654EF10F00A016C6B6C6B6C51180879
:101E900006E30001DCDF04000A016C2BF7D7000128
:101EA00012000C01DD6BDE6BD8CC00F0D9CC01F058
:101EB000DDCC02F0DECC03F0D8CCDBFCD8CCDCFCF3
:101EC0000001CBDFD7CC00F0D8CC01F0D9CC02F0A8
:101ED000036AD7CCDBFCD7CCDCFCBFDFD6CCDCFC88
:101EE000BCDF0C01DC6B0001B8DF12000C01D66B0B
:101EF000DC6B0001B2DF015000C0D6FC0C01D6CC77
:101F000001F0000192EF0FF00C01D56B7A96D4CC62
:101F1000D9FCD3CCD8FCD2CCD7FCD1CCD6FC000198
:101F2000C0DFE4D701C0D5FC7A860C01D5CC01F026
:101F300000011200D3CCD6FC0C01D76BD86BD25168
:101F40008009006ED3CC01F0D7CC02F0D8CC03F0DE
:101F5000D56FDC6F000181DFD1CC00F0D2CC01F075
:101F6000D3CC02F0036AD1CCD5FCD1CCDCFC75DF3C
:101F7000D0CCDCFC72DF120072CADCFC6EDF0A011E
:101F80007351036A746FE8CFDCFC000166DFD8EFA1
:101F90000FF07A966FCAD3FC6ECAD2FC6DCAD1FC20
:101FA0006CCAD0FCC7DF71CA73FA70CA72FAE4D780
:101FB0007A861200D0CCDCFC50DF12007A96CECCB0
:101FC000D3FCCDCCD2FCCCCCD1FCCBCCD0FCB2DF82
:101FD000CFCCD0FCEFDF7A8612000C01CE6B300E36
:101FE000CD6F200ECC6FD40ECB6F7F0ECF6F000164
:101FF000E5DF08010E910E950D6B0C6B00011200D0
:102000002BCBDCFC2ADF2CCB00F02DCB01F02ECB30
:1020100002F0036A2CCB30FB2CCBDCFC1EDF2DCB7B
:1020200000F02ECB01F0026A036A2DCB30FB2DCBE2
:10203000DCFC13DF2ECB00F0016A026A036A2ECBB0
:1020400030FB2ECBDCFC09DF12007A96AECAD3FC43
:10205000ADCAD2FCACCAD1FCABCAD0FC6BDFB2CAF1
:102060002EFBB1CA2DFBB0CA2CFBAFCA2BFBC8DFBD
:102070007A861200AACAAEFAA9CAADFAA8CAACFA00
:10208000A7CAABFA0A01B26BB16BB06BAF6B0001C0
:10209000DCDF12007E90DBDEDADE7E80D8DE0A0135
:1020A0006C6B6D6B0001E1D6EEDE0C01D46B300E73
:1020B000D36F200ED26FD16B000126DF01507C0858
:1020C00001E0F3D70C01D46B300ED36F200ED26F2A
:1020D000D16F000119DF015201E0F4D70A016F6BE3
:1020E000300E6E6F200E6D6F340E6C6F010E716FBF
:1020F000E00E706F00014DDF0A016F6B300E6E6FE6
:10210000200E6D6F2C0E6C6F020E716F240E706FAF
:1021100000013FDF0A016F6B300E6E6F200E6D6F96
:10212000300E6C6F716B2B0E706F000132DF0A0185
:102130006F6B300E6E6F200E6D6F380E6C6F716BA3
:10214000706B000126DF0A016F6B300E6E6F200E80
:102150006D6F3C0E6C6F716B290E706F000119DF93
:102160000A016F6B300E6E6F200E6D6F480E6C6F34
:10217000010E716F100E706F00010BDF0A016F6BA3
:10218000300E6E6F200E6D6F400E6C6F010E716F12
:10219000240E706F0001FDDE0A016F6B300E6E6F52
:1021A000200E6D6F440E6C6F716B0C0E706F000122
:1021B000F0DE0A016F6B300E6E6F200E6D6F4C0EED
:1021C0006C6F716B706B0001E4DE0A016F6B300E97
:1021D0006E6F200E6D6F500E6C6F716B0A0E706F0C
:1021E0000001D7DE0C01CE6B300ECD6F200ECC6F10
:1021F000640ECB6FCF6B0001E1DE0601436B010E75
:10220000426F0C01CE6B300ECD6F200ECC6F6C0E7A
:10221000CB6F010ECF6F0001D1DE0C01D46B300EFD
:10222000D36F200ED26F940ED16F00016DDE01C00E
:1022300002F60601028F0C01CE6B300ECD6F200E20
:10224000CC6F940ECB6F02C6CFFC0001B7DE0C0141
:10225000CE6B300ECD6F200ECC6F700ECB6F050E97
:10226000CF6F0001ABDEB9DE0A016F6B300E6E6F0F
:10227000210E6D6F180E6C6F71697069000189DE37
:102280000C01CE6B300ECD6F200ECC6F800ECB6F5D
:10229000CF6B000193DE0C01CE6B300ECD6F200EA4
:1022A000CC6F840ECB6FCF6B000188DE0A016F6BA1
:1022B000300E6E6F200E6D6F880E6C6F600E716F3A
:1022C000706B000166DE0501FF6B300EFE6FFD6B6B
:1022D000FC6BFFC5AEFAFEC5ADFAFDC5ACFAFCC598
:1022E000ABFA020E0A01B26FB16BB06BAF6B0001BB
:1022F000ACDE040E0501FC27000EFD23FE23FF23A8
:10230000FFC5AEFAFEC5ADFAFDC5ACFAFCC5ABFA29
:10231000260E0A01B26FB16BB06B070EAF6F0001F2
:1023200094DE040E0501FC27000EFD23FE23FF238F
:10233000FFC5AAFAFEC5A9FAFDC5A8FAFCC5A7FA09
:10234000000198DE0A01AE6B300EAD6F200EAC6F4F
:10235000540EAB6FB26BB16BB06B020EAF6F00017E
:1023600074DE91EFECF00B012C512B25006E036A0B
:10237000016E03C002F0000112002ACB2EFB29CB14
:102380002DFB28CB2CFB27CB2BFB3ADE00C62BFBEF
:10239000040E0B012C6F0001E6DF02C001F601C044
:1023A00000F612007A9600C6A1FA800E06010125F9
:1023B0000A01A26F300EA36FD894D8B0A32BA46BE0
:1023C000A4CAD3FCA3CAD2FCA2CAD1FC00C6D0FCCA
:1023D0000001B0DD0B012A6929692869276B00011A
:1023E000CCDF020E0B012A6F200E296F286F276F9A
:1023F0000001C3DF260E0B012A6F296B286B070E25
:10240000276F0001BADF12000A01B26BB16BB06B2B
:10241000AF6BB66BB56BB46BB36B0C01DC6B0001CF
:102420001CDD01500A01B66BB56BB46B00C0B3FA8A
:10243000B351AF13B451B013B551B113B651B21378
:102440000C01DC6B000109DD01500A01B66BB56BB4
:10245000B46B00C0B3FAB5CABBFAB4CABAFAB3CA0D
:10246000B4FAB36BB56BB66BB351AF13B451B013D1
:10247000B551B113B651B2130C01DC6B0001EDDCA8
:1024800001500A01B66BB56BB46B00C0B3FAB4CAA5
:10249000BBFAB3CAB5FAB36BB46BB66BB351AF1337
:1024A000B451B013B551B113B651B2130C01DC6B7A
:1024B0000001D3DC01500A01B66BB56BB46B00C0F0
:1024C000B3FAB3CAB6FAB36BB46BB56BB351AF130F
:1024D000B451B013B551B113B651B213AFCA00F035
:1024E000B0CA01F0B1CA02F0B2CA03F000018AEF2B
:1024F00012F00A01AE6BAD6BAC6BAB6B7A96AACAED
:10250000D9FCA9CAD8FCA8CAD7FCA7CAD6FC000126
:10251000C8DC7AD703C0AEFA02C0ADFA01C0ACFA8B
:1025200000C0ABFA7A86ABCA00F0ACCA01F0ADCA03
:1025300002F0AECA03F012000A01AE6B300EAD6FAE
:10254000200EAC6FAB6FB26BB16BB06B010EAF6FA7
:1025500000017BDD0A01AA6B300EA96F200EA86F67
:10256000F80EA76F000186DD0A01AA6B300EA96F75
:10257000200EA86FFC0EA76F00017CDD0A01AA6B7C
:10258000300EA96F200EA86FA76F000173DD85EFD5
:102590004EF00B0115691469176B13511307000AEC
:1025A00020E01751172B1125E96E000E1221EA6E5B
:1025B000EF50141B166B1651070812E314A10BD031
:1025C000D8901531196F1431186F010A146F195111
:1025D000A00A156F03D0D89015331433162BEBD700
:1025E000DCD714CB01F015CB02F0000112000E0174
:1025F00036ADFED7F26F00011200010E0A01B86F6E
:10260000800EB96F050EBA6F7C0EBB6FB6CABCFAEE
:10261000B7CABDFA0A0E0B01126FB80E116F070E82
:10262000136F0001B6DF02C0C1FA01C0C0FA0A018F
:10263000C0CABEFAC1CABFFAC26BC25107080FE3D3
:10264000036AC251B80FE96E0A0E0320EA6EEFCF9B
:10265000C3FAC3510001CBDF0A01C22BEED7000140
:102660001200016603D0026602D007D0022A00C021
:10267000EEFF012EFCD7022EFAD712000A0E0D0132
:10268000B36F00010FEC0FF01200F8DF0D0E0D011B
:10269000B46FAB0EB4CDB2FDB16F91509168943070
:1026A000FEE39150AACD91FF9430FEE3030EB125D5
:1026B000E96E000EB221EA6EEFCFB3FD9150B3CDBB
:1026C00091FF9430FEE3020EB125E96E000EB221B7
:1026D000EA6EEFCFB3FD9150B3CD91FF9430FEE39E
:1026E000010EB125E96E000EB221EA6EEFCFB3FD07
:1026F0009150B3CD91FF9430FEE3B1CDE9FFB2CD5F
:10270000EAFFEFCFB3FD9150B3CD91FF9430FEE3DC
:10271000AA51480806E19150870E916E9430FEE36D
:1027200005D09150950E916E9430FEE3AF6B9150B1
:1027300091689430FEE391CFB0FDB03D01D003D05D
:10274000B051F8080BE1AF51630808E3AF2B91508B
:1027500091689430FEE391CFB0FDEFD700018EDF9A
:102760000D01B0CD01F0000112000D016E6B0801EA
:102770001D6B7A88000182DF959A220E956E400EBD
:10278000946E0E0136910D01666B6651090806E3E1
:10279000915091689430FEE3662BF7D77A98400EFB
:1027A000AA6FAE6BAD6BAC6BAB6B00016EDF01C0A3
:1027B00067FD0D016751010802E26E8194D1480E58
:1027C000AA6FAE6BAD6B010EAC6FAA0EAB6F0001C2
:1027D0005CDF01C067FD0D01672D8AD0666B665115
:1027E00003080FE3036A6651680FE96E0D0E0320BC
:1027F000EA6E915091689430FEE391CFEFFF662B23
:10280000EED76A2D75D06B51AA08D8A471D06D6B24
:102810006C6B770EAA6FAE6BAD6BAC6BAB6B0001E4
:1028200034DF01C067FD690E0D01AA6F400EAE6F67
:10283000AD6BAC6BAB6B000128DF01C067FD0D0118
:10284000675328E06D51C30825E303E16C514F083D
:1028500021E30400200E006E002EFED700D06C2B6A
:10286000D8B46D2B770EAA6FAE6BAD6BAC6BAB6B48
:1028700000010BDF01C067FD690E0D01AA6F400E5C
:10288000AE6FAD6BAC6BAB6B0001FFDE01C067FDE3
:10289000D6D70D0167532CE17A0EAA6F400EAE6FAA
:1028A000AD6BAC6BAB6B0001F0DE01C067FD0D01E1
:1028B00067531EE1666B665103080FE3036A6651B6
:1028C000680FE96E0D0E0320EA6E91509168943006
:1028D000FEE391CFEFFF662BEED768AD05D0050E76
:1028E00008011D6F04D00D01040E08011D6F0D01BC
:1028F00008011D53D8A4ADD0400E0D01AA6FAE6BD8
:10290000AD6BAC6BAB6B0001C0DE01C067FD0D01B0
:10291000672D01D004D0675302E06E81E4D06D6B67
:102920006C6B410EAA6FAE6BAD6BAC6BAB6B000109
:10293000ACDE01C067FD0D01675305E00400100E19
:10294000006E002EFED76C2BD8B46D2B675307E0BA
:102950006D51C30804E3E5E16C514F08E2E26753AF
:1029600002E06E81C0D0770EAA6FAE6BAD6BAC6B20
:10297000AB6B00018ADE01C067FD0D01675305E006
:10298000020E08011D6F4DD00D01690EAA6FAE6BCE
:10299000AD6BAC6BAB6B000178DE01C067FD0D0168
:1029A0006751010805E3030E08011D6F3AD00D01C0
:1029B000400EAA6FAE6BAD6BAC6BAB6B000165DE0E
:1029C00001C067FD0D01672D01D004D0675302E0FF
:1029D0006E8189D06D6B6C6B410EAA6FAE6BAD6B67
:1029E000AC6BAB6B000151DE01C067FD0D0167539D
:1029F00005E00400100E006E002EFED76C2BD8B43C
:102A00006D2B675307E06D51C30804E3E5E16C519A
:102A10004F08E2E2675302E06E8165D0020E0801C2
:102A20001D6F500E0D01AA6FAE6BAD6B020EAC6F39
:102A3000AB6B00012ADE01C067FD0D016C5150082F
:102A400003E16D51C30803E06751010803E2080187
:102A50001D6B0D0108011D5304E10D016E8143D072
:102A600008011D51020A000107E0010A06E0070AF9
:102A700005E0010A04E004D007D006D005D004D058
:102A80000D016E8130D000010D016E917A88959A0A
:102A9000200E956E400E946E0E0136917A980D01BF
:102AA0006D6B6C6B410EAA6FAE6BAD6BAC6BAB6BB1
:102AB0000001EBDD01C067FD0D01675305E0040077
:102AC000100E006E002EFED76C2BD8B46D2B675302
:102AD00007E06D51C30804E3E5E16C514F08E2E201
:102AE000675301E06E817A886ECD01F00001DDEF61
:102AF00017F0500E0D01AA6FA9CDAEFDA8CDADFD0A
:102B0000A7CDACFDA6CDABFD0001BFDD015003E0BC
:102B1000400A0CE00ED0A9CD22F8A8CD21F8A7CD0F
:102B200020F8A6CD1FF8010E016E05D0000E016E33
:102B300002D0000E016E0FEF16F0915091689430A4
:102B4000FEE391CFAEFD0D01AD6BAC6BAD5127082F
:102B500019E303E1AC510F0815E3AE3D01D003D0FA
:102B6000AE51F8080FE10400100E006E002EFED7E3
:102B7000915091689430FEE391CFAEFDAC2BD8B468
:102B8000AD2BE4D7AE51FE0804E0AE5302E1FE0ED9
:102B9000AE6FAD6BAC6BAB5309E1AA5307E1AD511E
:102BA000A95D14E303E1A851AC5D10E2A651AC2588
:102BB000E96EA751AD21EA6E915091689430FEE321
:102BC00091CFEFFFAC2BD8B4AD2BE5D791509168E6
:102BD0009430FEE3915091689430FEE391509168F7
:102BE0009430FEE3000E016E00011200080123A1E3
:102BF00003D0030E016E95D00D01A551010802E32B
:102C0000A55305E1040E016E08018BD00D017A98E1
:102C1000A96BA86B020EA76FA66B00016AD70152C1
:102C200006E17A88010E016E08017BD000010801DF
:102C30001D5105080DE0D890A3CDA4FDA2CDA3FDA4
:102C4000A1CDA2FD0D01A16BA237A337A4370801C6
:102C50000D01A52D2AD0510EAA6FA4CDAEFDA3CD96
:102C6000ADFDA2CDACFDA1CDABFD00010EDD01524D
:102C700006E07A88040E016E080153D00001A0CD51
:102C8000A7FD9FCDA6FD0D01AB6BAA6B020EA96F30
:102C9000A86B000152DF015206E07A88010E016E36
:102CA00008013FD0000139D00D01520EAA6FA4CD0A
:102CB000AEFDA3CDADFDA2CDACFDA1CDABFD000120
:102CC000E4DC015206E07A88040E016E080129D086
:102CD0000001A0CDA7FD9FCDA6FD0D01AB6BAA6B9A
:102CE000020EA96FA86B000128DF015206E07A8866
:102CF000010E016E080115D00001020E0D01A02782
:102D0000A507D8B402D00001E4D74C0EAA6FAE6B71
:102D1000AD6BAC6BAB6B0001B8DC7A88000E016E5A
:102D20000801000112006DCD73FD6CCD72FD6FCDF9
:102D300075FD6ECD74FD0D01715303E170510008F6
:102D400030E272CDE9FF73CDEAFFEFCF76FD75CDAE
:102D500003F074CDE9FF75CDEAFFEF50765D16E024
:102D600073CD03F072CDE9FF03C0EAFFEFCF76FD2C
:102D700075CD03F074CDE9FF75CDEAFFEF50765DB8
:102D800002E2FF0E01D0010E016E0DD0722BD8B4FD
:102D9000732B742BD8B4752B7051D8B4710770078E
:102DA000CBD7000E016E00011200240E0A01482547
:102DB000016E000E4921036E01C06AFD0D016B6FAB
:102DC000EA6E01C0E9FF006A020E026E016A0001AC
:102DD00048DC240E0A014825016E000E4921036ECD
:102DE00001C06AFD0D016B6FA06F01C09FFD69CD31
:102DF000A4FD68CDA3FD67CDA2FD66CDA1FD010EAA
:102E0000A56F0001F3DE0152D8A477D0220E0A018B
:102E10004825016E020E4921036E01C0E9FFEA6EEA
:102E2000ECCF6BFDED52EFCF6AFD0D016A515508F5
:102E300065E16B51AA0862E15A0E0A014825016E4C
:102E4000000E4921036E01C06AFD0D016B6F6D6FAD
:102E500001C06CFD0A0E6F6F4A0E6E6F716B050E2E
:102E6000706F000160DF015203E1010E016E49D075
:102E70005A0E0A014825016E000E4921036E01C059
:102E80006AFD0D016B6F6D6F01C06CFD0A0E6F6FF7
:102E90004F0E6E6F716B050E706F000144DF0152B3
:102EA00003E1020E016E2DD0760E0A014825016E57
:102EB000000E4921036E01C06AFD0D016B6F6D6F3D
:102EC00001C06CFD0A0E6F6F540E6E6F716B050EB4
:102ED000706F000128DF015210E14C0E0A014825F5
:102EE000E96E000E4921EA6EEF52D8B402D000011B
:102EF00004D0030E016E000104D00D01000E016E1E
:102F0000000112000900F55213E0F6CF66FDF7CF7D
:102F100067FDF8CF68FDF5500E0136ADFED7F26FB4
:102F200066CDF6FF67CDF7FF68CDF8FF0001EAD761
:102F30002AEF18F00D01816B826B010E836FDA6A44
:102F4000D96A0D0E866F790E856F0D0EEA6E7D0EB5
:102F5000E96E86CDE2FF85CDE1FF83CD84FDD8907B
:102F6000E550EE02F3508123F4508223842FF7D7EB
:102F700081CDDEFF82CD81FD826BD8B0822B852B87
:102F8000D8B4862B832B83510508DFE100011200A2
:102F90000A014851491103E10B0E016EB6D249CA2C
:102FA000EAFF48CAE9FF006A020E026E240E016EB3
:102FB000000131EC13F0B5EF13F001C023F8080164
:102FC00023A105D0010E016E0A019FD208010D0157
:102FD0005D6B5C6B5B6B5A6B5DCD69FD5CCD68FDB9
:102FE0005BCD67FD5ACD66FD0001DFDE01C059FDF6
:102FF0000D01595330E1E60E0A014825E96E010E34
:103000004921EA6EEF521EE0EA0E4825016E010EDC
:10301000492101C0E9FFEA6EEFCF5AFDECCF5BFD1D
:10302000ECCF5CFDECCF5DFD5DCD69FD5CCD68FD59
:103030005BCD67FD5ACD66FD0001B7DE01C059FDCD
:1030400009D00A01520EF66E1A0EF76E000EF86ED7
:10305000000158D70D01595305E10C0E016E0A010C
:1030600054D20D010A0148CAE9FF49CAEAFF59CD05
:10307000EFFF0D015951030832E1080E0A014825FE
:10308000016E000E4921036E01C066FD0D01676FE0
:10309000480E0A014825016E000E492101C0E9FFD2
:1030A000EA6EEFCF00F0ECCF01F0ECCF02F0ECCF06
:1030B00003F003C06BFD02C06AFD01C069FD00C0E2
:1030C00068FD67CDEAFF66CDE9FF00C0EFFF01C0F4
:1030D000ECFF02C0ECFF03C0ECFF2DD00D01080E89
:1030E0000A014825016E000E4921036E01C066FDEC
:1030F0000D01676F3A0E0A014825016E000E492145
:1031000001C0E9FFEA6EECCF03F0ED52EFCF68FDAE
:103110000D0103C069FD67CDEAFF66CDE9FFEE5200
:10312000EE52EC6AED52EF6AED5203C0EFFFED5242
:1031300068CDEFFF0A01020E4825016E000E4921FD
:10314000036E310E0A014825E96E000E4921EA6E30
:10315000EFCF68FD0D0103C0EAFF01C0E9FF68CDB4
:10316000EFFF030E0A014825016E000E4921036E90
:10317000340E0A014825E96E000E4921EA6EEFCFB0
:1031800068FD0D0103C0EAFF01C0E9FF68CDEFFF54
:10319000100E0A014825016E000E4921036E01C080
:1031A00066FD0D01676F320E0A014825016E000EA3
:1031B000492101C0E9FFEA6EECCF03F0ED52EF5078
:1031C0000D015A25006E03505B21016E000E5C213B
:1031D000026E000E5D2167CDEAFF66CDE9FF00C0FB
:1031E000EFFF01C0ECFF02C0ECFFEC6E040E0A0121
:1031F0004825016E000E4921036E01C066FD0D01D8
:10320000676F350E0A014825016E000E492101C085
:10321000E9FFEA6EECCF03F0ED52EFCF68FD0D0150
:1032200067CDEAFF66CDE9FF03C0ECFFED5268CD44
:10323000EFFF080E0A014825E96E000E4921EA6EEB
:10324000EFCF79FDECCF7AFDECCF7BFDECCF7CFDB1
:10325000030E4825E96E000E4921EA6EEFCF7DFD91
:103260000D01EACF6CFDE9CF6BFD806B7F6B7E6B50
:10327000000160DE6CCDEAFF6BCDE9FF03C069FDA4
:1032800002C068FD01C067FD00C066FD100E0A01A6
:103290004825E96E000E4921EA6EEFCF00F0ECCF31
:1032A00001F0ECCF02F0ECCF03F000500D016625E9
:1032B0005E6F015067215F6F02506821606F03509D
:1032C0006921616F5951030838E1140E0A0148253C
:1032D000016E000E4921036E01C066FD0D01676F8E
:1032E000500E0A014825016E000E492101C0E9FF78
:1032F000EA6EEFCF00F0ECCF01F0ECCF02F0ECCFB4
:1033000003F067CDEAFF66CDE9FF00C0EFFF01C023
:10331000ECFF02C0ECFF03C0ECFF180E4825E96E7D
:10332000000E4921EA6E5ECDEFFF5FCDECFF60CD70
:10333000ECFF61CDECFF47D00D01140E0A014825CA
:10334000E96E000E4921EA6E5ECDEFFF5FCDECFF26
:1033500060CDECFF61CDECFF180E4825016E000E2C
:10336000492101C066FD0D01676F040E0A01482561
:10337000E96E000E4921EA6EECCF69FDED52EFCF08
:1033800068FD0D0169336833693368336933683325
:10339000693368330F0E691768515E25006E6951F5
:1033A0005F21016E000E6021026E000E612167CD6B
:1033B000EAFF66CDE9FF00C0EFFF01C0ECFF02C0ED
:1033C000ECFFEC6E0A01440E4825016E000E492107
:1033D00001C0E9FFEA6EEFCF62FDECCF63FDECCFF9
:1033E00064FDECCF65FD0D01625317E1635315E1F8
:1033F000645313E1655311E1370E0A014825016E4C
:10340000000E492101C0E9FFEA6E0D01656B646B96
:10341000ECCF63FDED52EFCF62FD0C0E0A014825A3
:10342000016E000E4921036E01C066FD0D01676F3C
:10343000180E0A014825E96E000E4921EA6EEFCF09
:1034400000F0ECCF01F0ECCF02F0ECCF03F0005035
:103450000D01625D686F01506359696F02506459D4
:103460006A6F035065596B6F5A5168275B51692326
:103470005C516A235D516B23020E0A014825E96EF7
:10348000000E4921EA6EEFCFBDFD0D01EACF6EFDC2
:10349000E9CF6DFDD8921B6AF2BE1B8EF29E6BCDFA
:1034A000BCFD6ACDBBFD69CDBAFD68CDB9FDC06B71
:1034B000BF6BBE6B0001B9EC0DF01BBEF28E6ECD82
:1034C000EAFF6DCDE9FF03C06BFD02C06AFD01C0DC
:1034D00069FD00C068FD020E0D010024006E000EA3
:1034E0000120016E000E0220026E000E032067CD47
:1034F000EAFF66CDE9FF00C0EFFF01C0ECFF02C0AC
:10350000ECFFEC6E000E016E0A01000112000501D5
:10351000C0A10CD0C09100013BDD015203E00501C8
:10352000C08100010501C093C0B1C0830001120039
:1035300008012393239523C801F0000112000A011A
:103540004851491103E10B0E016E26D00001F0DF56
:1035500001A014D0010E0A014825E96E000E492190
:10356000EA6EEF5204E0090E016E16D005D000019C
:103570000FDD01500A0110D00DD000010A0148CA28
:10358000E9FF49CAEAFFEF5205E1000101DD015000
:103590000A0102D0000E016E00011200020E0D01A0
:1035A000725F000E735B745B755B0C0E0A0148253D
:1035B000E96E000E4921EA6EEFCF00F0ECCF01F08A
:1035C000ECCF02F0ECCF03F003500D01755D11E379
:1035D0000BE10250745D0DE307E10150735D09E3F7
:1035E00003E10050725D05E3006A016A026A036A42
:1035F0003FD0020E0A014825E96E000E4921EA6E0D
:10360000EFCF7DFD0D01EACF78FDE9CF77FD75CDD8
:103610007CFD74CD7BFD73CD7AFD72CD79FD806B21
:103620007F6B7E6B000186DC78CDEAFF77CDE9FF0A
:1036300003C079FD02C078FD01C077FD00C076FDB2
:10364000180E0A014825E96E000E4921EA6EEFCFF7
:1036500000F0ECCF01F0ECCF02F0ECCF03F00D0165
:1036600076510026775101227851022279510322A6
:10367000000112006BCDEAFF6ACDE9FF200E006E5B
:10368000026A0B0E016E31EC13F00D016F6B180E18
:10369000706F6C6B080E6D6F68CDE9FF69CDEAFF46
:1036A000ECCF72FDED52EFCF71FD71CDE9FF72CD20
:1036B000EAFFEFCF6EFD69CD03F068CDE9FF69CD7C
:1036C000EAFF010EEE2601E3EF2A6E51200801E326
:1036D0006E6B6E5306E06E512F0803E06E515C086E
:1036E0000FE16C5301E170D00B0E6A25E96E000EFC
:1036F0006B21EA6E6F517015EF6E6ECD01F066D0E2
:103700006E51200803E26E517F0801E15DD06E51D9
:103710002E080EE16FB10BD06C51000808E26C511D
:10372000080805E3080E6C6F0B0E6D6F4CD04CD083
:103730006E51220801E148D06E51290801E335D0CD
:103740006E512C0801E340D06E51390801E32DD0B1
:103750006E513F0801E338D06FB127D06E517C081D
:1037600001E132D06E515A0804E26E515D0801E366
:103770002BD06E5140080AE26E515A0807E36D5192
:10378000080803E17097705101D070996E5160087C
:103790000CE26E517A0809E3200E6E5F6D51080845
:1037A00003E16F876F5101D06F896F916D516C5D2F
:1037B00001E30AD06C516C2B6A25E96E000E6B2177
:1037C000EA6E6ECDEFFF68D7010E016E00017FEF4C
:1037D00021F0C30E0D01AE6F500EAD6F9150916888
:1037E0009430FEE30400100E006E002EFED79150C0
:1037F00091689430FEE391CFACFDAD51D8B4AE07E3
:10380000AD07AC3D01D003D0AD51AE11EBE1ACCD75
:1038100001F0000112EF1CF0020E0D01AB6FAA6B5C
:103820000001D7D7013C01D003D0000E016E4ED06D
:103830009150A8CD91FF9430FEE30D01A851FD08F1
:1038400042E0ABCD03F0AA51D8B4AB07AA070310EE
:1038500011E0A7CD03F0A651A62BD8B4A72BE96E93
:1038600003C0EAFFEFCFACFD9150ACCD91FF943097
:10387000FEE3E7D7915091689430FEE39150916850
:103880009430FEE3915091689430FEE391CFA9FD0E
:10389000AB6BAA6BAB51C30816E303E1AA514F0807
:1038A00012E30400100E006E002EFED791509168B6
:1038B0009430FEE391CFA9FDA95301E004D0AA2BD7
:1038C000D8B4AB2BE7D7010E016E0001120008013E
:1038D00023A103D0030E016E9AD023A503D0020EBC
:1038E000016E95D00D01A55305E1040E016E08018E
:1038F0008ED00D017A9808011D5105080DE0D89071
:10390000A3CDA4FDA2CDA3FDA1CDA2FD0D01A16B70
:10391000A237A337A43708010D01A52D1FD0580EDB
:10392000AA6FA4CDAEFDA3CDADFDA2CDACFDA1CDC2
:10393000ABFD000145EC13F001520EE1A0CDA7FD57
:103940009FCDA6FDFE0E0D01A86F000165DF01529F
:1039500003E00D01A56B00014DD00D0108011D51C3
:10396000030B16E0770E0D01AA6FAE6BAD6BAC6B5F
:10397000AB6B000145EC13F0570E0D01AA6FAE6B57
:10398000AD6BAC6BA5CDABFD000145EC13F00801B0
:10399000590E0D01AA6FA4CDAEFDA3CDADFDA2CDF4
:1039A000ACFDA1CDABFD000145EC13F0015222E1CD
:1039B000A0CDA7FD9FCDA6FDFC0E0D01A86F0001B7
:1039C0002BDF015201E109D0020E0D01A027A5074E
:1039D000D8B402D00001ECD700010D01A76BA66B93
:1039E000FD0EA86F000118DF015204E1010E0D0168
:1039F000A56F00017A88915091689430FEE30D0123
:103A0000A55302E0010E01D0000E016E0801000175
:103A10001200200E0A014825E96E000E4921EA6EC7
:103A2000EFCF97FDECCF98FDECCF99FDECCF9AFD51
:103A30000D019351975D0AE19451985D07E195510D
:103A4000995D04E196519A5DD8B4EAD0060E0A0158
:103A50004825E96E000E4921EA6EEF52D8B4A5D090
:103A6000240E4825016E000E4921036E01C09DFD04
:103A70000D019E6FA06F01C09FFD9ACDA4FD99CD51
:103A8000A3FD98CDA2FD97CDA1FD010EA56F00016C
:103A90001EDF01C09BFD0D019B5303E0000E016E74
:103AA000C1D0060E0A014825E96E000E4921EA6ED2
:103AB000EF6A100E4825E96E000E4921EA6EEFCF3D
:103AC0009DFDECCF9EFDECCF9FFDECCFA0FD080E41
:103AD0004825E96E000E4921EA6EEFCF00F0ECCFE9
:103AE00001F0ECCF02F0ECCF03F00D019D51002668
:103AF0009E5101229F510222A05103229A51035C40
:103B000053E30BE19951025C4FE307E19851015CEB
:103B10004BE303E10050975D47E2030E0A0148259D
:103B2000E96E000E4921EA6EEFCF9CFD0D019C511C
:103B300001083AE2080E0A014825E96E000E492103
:103B4000EA6EEFCF00F0ECCF01F0ECCF02F0ECCF5B
:103B500003F000500D01972701509823025099233C
:103B600003509A23240E0A014825016E000E4921B4
:103B7000036E01C09DFD0D019E6FA06F01C09FFDF2
:103B80009ACDA4FD99CDA3FD98CDA2FD97CDA1FD21
:103B9000010EA56F00019BDE015203E00D0104D070
:103BA00000010D019C07C3D70A010D01935306E1E3
:103BB000945304E1955302E1965332E0240E0A0136
:103BC0004825016E000E4921036E01C09DFD0D01C7
:103BD0009E6FA06F01C09FFD96CDA4FD95CDA3FD66
:103BE00094CDA2FD93CDA1FD010EA56F0001F6ECD1
:103BF00015F0015205E0000E016E0D0113D0000119
:103C0000200E0A014825E96E000E4921EA6E93CD87
:103C1000EFFF94CDECFF95CDECFF96CDECFF0D01C1
:103C2000010E016E000112000D018F519103F3CFBF
:103C300001F0F4CF00F09203F3500026905191036D
:103C4000F3500020026E000112000D01825308E1C2
:103C5000815306E1805304E17F510108D8B088D137
:103C60000C0E0A014825E96E000E4921EA6EEFCFDD
:103C700000F0ECCF01F0ECCF02F0ECCF03F00D013F
:103C80008251035CD8A074D10EE18151025CD8A0AE
:103C90006FD109E18051015CD8A06AD104E10050E4
:103CA0007F5DD8B065D1100E0A014825E96E000E7F
:103CB0004921EA6EEFCF87FDECCF88FDECCF89FD7F
:103CC000ECCF8AFD4851E96E4951EA6EEF50010A86
:103CD000000107E0030AD8B4A7D0010AD8B4E5D0A0
:103CE00048D180CD90FD7FCD8FFD0D01926B030EED
:103CF000916F000199DFD8900D010230866F01307D
:103D0000856FD890036A8631026E87258B6F0350CA
:103D100088218C6F000E89218D6F000E8A218E6F95
:103D2000966F8DCD95FD8CCD94FD8BCD93FD0001CF
:103D300070DE015201E11DD10D018651010B8C6F26
:103D4000240E8525016E000E8C21036E01500A01A0
:103D50004825E96E49510320EA6E0D01846BEFCFCF
:103D600083FD852BD8B4862BD890036A8631026EEA
:103D700087258B6F035088218C6F000E89218D6FF2
:103D8000000E8A218E6F966F8DCD95FD8CCD94FDA2
:103D90008BCD93FD00013DDE015201E1EAD00D0122
:103DA0008651010B8C6F240E8525016E000E8C212F
:103DB000036E01500A014825E96E49510320EA6E5D
:103DC000EF500D018D6F000E83138D5184137F51C1
:103DD000010B006E016A026A036A005206E1015299
:103DE00004E1025202E1035213E08431036E833195
:103DF000026E0332023203320232033202320F0EFB
:103E0000031602C000F003C001F0026A036A0AD080
:103E100083CD00F084510F0B036E835103C001F07A
:103E2000026A036AACD0000180CD00F081CD01F0C0
:103E300082CD02F0036A00500D0187258B6F8151FE
:103E400088218C6F825189218D6F03508A218E6F5A
:103E5000966F8DCD95FD8CCD94FD8BCD93FD00019E
:103E6000D8DD015201E185D0D8900D017F358B6FEF
:103E700080358C6F010E8C17240E8B25016E000E81
:103E80008C21036E01500A014825016E495103221D
:103E900001C0E9FF03C0EAFFEFCF00F0ECCF01F073
:103EA000026A036A0D016BD000010D018231036EBD
:103EB0008131026E8031016E7F31006E0332023239
:103EC0000132003203320232013200320332023256
:103ED0000132003203320232013200320332023246
:103EE000013200320332023201320032010E031677
:103EF000005087258B6F015088218C6F02508921DB
:103F00008D6F03508A218E6F966F8DCD95FD8CCD70
:103F100094FD8BCD93FD00017CDD015201E129D0A0
:103F20000D017F358B6F80358C6F8B378C37FC0E96
:103F30008B17010E8C17240E8B25016E000E8C2121
:103F4000036E01500A014825016E4951032201C048
:103F5000E9FF03C0EAFFEFCF00F0ECCF01F0ECCFB8
:103F600002F0ECCF90FD0D0190510F0B036E07D0C6
:103F70000001010E006E016A026A036A0D01000170
:103F800012000C0E0D016825E96E000E6921EA6E23
:103F9000ECCF71FDED52EFCF70FD010E70256E6F0D
:103FA000000E71216F6F6E510F0B706F716B70533C
:103FB000D8A4C5D07153D8A4C2D0080E6825E96E24
:103FC000000E6921EA6E010EEE26000EEE22EE22B0
:103FD000ED22040E6825E96E000E6921EA6EEF52AB
:103FE0001EE1EC521CE1EC521AE1EC5218E1040E15
:103FF0000A014825E96E000E4921EA6EECCF03F074
:10400000ED52EFCF01F003500D016F5D07E303E1C7
:1040100001506E5D03E3000E016E9ED090D06F31B3
:10402000716F6E31706F7133703371337033713300
:1040300070330F0E7117020E0A014825E96E000E4B
:104040004921EA6E010EEF5C0D017017716B705320
:10405000D8A475D07153D8A472D0040E6825E96E27
:10406000000E6921EA6EEFCF7FFDECCF80FDECCF33
:1040700081FDECCF82FD0001E8DD03C06DFD02C0D3
:104080006CFD01C06BFD00C06AFD0C0E0A014825E5
:10409000E96E000E4921EA6EEFCF00F0ECCF01F09F
:1040A000ECCF02F0ECCF03F003500D016D5D0CE39B
:1040B00014E102506C5D08E310E101506B5D04E314
:1040C0000CE100506A5D09E26D530AE16C5308E1AE
:1040D0006B5306E16A51010803E3000E016E3CD008
:1040E000040E6825E96E000E6921EA6E6ACDEFFFC5
:1040F0006BCDECFF6CCDECFF6DCDECFF080E6825B1
:10410000016E000E6921036E01C070FD716F6DCDEF
:1041100075FD6CCD74FD6BCD73FD6ACD72FD000134
:10412000CEEC1AF071CDEAFF70CDE9FF00C0EFFFD1
:1041300001C0ECFF02C0ECFF03C0ECFF0D010C0E50
:104140006825E96E000E6921EA6E6FCDECFFED5235
:104150006ECDEFFF010E016E000112000D01676BC5
:10416000666B140E0A014825E96E000E4921EA6EBD
:10417000EFCF61FDECCF62FDECCF63FDECCF64FDD2
:1041800048CAE9FF49CAEAFFEF50030841E1040EBB
:104190000D015925016E000E5A2101C068FD59CD4F
:1041A000E9FF5ACDEAFF61CDEFFF62CDECFF63CDB1
:1041B000ECFF64CDECFFEA6E68CDE9FF61CDEFFF67
:1041C00062CDECFF63CDECFF64CDECFF080E59250A
:1041D000016E000E5A21036E01C068FD696F64CD47
:1041E00075FD63CD74FD62CD73FD61CD72FD00017F
:1041F000CEEC1AF069CDEAFF68CDE9FF00C0EFFF11
:1042000001C0ECFF02C0ECFF03C0ECFF31D00A019B
:10421000040E0D015925016E000E5A21036E59CD71
:10422000E9FF5ACDEAFFEE52EE52EC6AED52EF6A28
:10423000ED52EF6AED52EF6A000E03C0EAFF01C0D3
:10424000E9FF00C0EFFF01C0ECFF02C0ECFF03C0BC
:10425000ECFF080E5925E96E000E5A21EA6E61CD79
:10426000EFFF62CDECFF63CDECFF64CDECFF00010E
:104270000C0E0D015925E96E000E5A21EA6EEC6A0A
:10428000ED52EF6A5ECD03F05DCDE9FF5ECDEAFF52
:10429000EF50200812E05ECD03F05DCDE9FF5ECD6A
:1042A000EAFFEF502F0809E05ECD03F05DCDE9FF96
:1042B0005ECDEAFFEF505C0804E15D2BD8B45E2BC5
:1042C000E1D75ECD03F05DCDE9FF5ECDEAFFEF50B3
:1042D0001F080AE35FCDE9FF60CDEAFFEC6AED520B
:1042E000EF6A000E016E2CD10D0E696F5D0E686FC6
:1042F0005CCD6BFD5BCD6AFD00013AEF1BF001C0A8
:1043000065FD0D01652D03D0040E016E19D1080E57
:104310005925E96E000E5A21EA6EEFCF93FDECCFDE
:1043200094FDECCF95FDECCF96FD000109EC1DF05E
:10433000015205E1070E016E0D0102D100010C0EC4
:104340000D015925E96E000E5A21EA6EECCF69FD88
:10435000ED52EFCF68FD0F0E6817696B683769374C
:104360006837693768376937683769376837693751
:10437000E00E6817240E6825016E000E6921036E99
:1043800001500A014825016E4951032201C066FD12
:104390000D0103C067FD67CD03F066CDE9FF67CD72
:1043A000EAFFEF5207E1655302E1020E01D0030E6E
:1043B000016EC6D067CD03F066CDE9FF67CDEAFF99
:1043C000EF50E50820E00B0E6625016E000E672118
:1043D000036E01C0E9FFEA6EEFB615D067CD6DFD43
:1043E00066CD6CFD5CCD6FFD5BCD6EFD716B0B0E14
:1043F000706F000193EC16F00152D8B402D00D0199
:1044000002D015D00D015ACD69FD59CD68FD0001CE
:10441000B8DD015209E10D01655302E1020E01D040
:10442000030E016E8DD000010D0171D700010D0149
:1044300065530CE15FCDE9FF60CDEAFF67CDECFF8E
:10444000ED5266CDEFFF000E016E7AD00B0E6625A1
:10445000016E000E6721036E01C0E9FFEA6EEFB83E
:1044600003D0030E016E6CD0140E6625016E000E93
:104470006721036E01C0E9FFEA6EECCF64FDED52E7
:10448000EFCF68FD68CD63FD686B696B1A0E66251A
:10449000016E000E672101C0E9FFEA6EECCF03F068
:1044A000ED52EF506811616F03506911626F040E95
:1044B0005925016E000E5A2101C068FD59CDE9FF52
:1044C0005ACDEAFF61CDEFFF62CDECFF63CDECFF8B
:1044D00064CDECFFEA6E68CDE9FF61CDEFFF62CD00
:1044E000ECFF63CDECFF64CDECFF080E5925016EA7
:1044F000000E5A21036E01C068FD696F64CD75FD21
:1045000063CD74FD62CD73FD61CD72FD0001CEEC13
:104510001AF069CDEAFF68CDE9FF00C0EFFF01C0E6
:10452000ECFF02C0ECFF03C0ECFF0C0E0D0159259F
:10453000E96E000E5A21EA6EEC6AED52EF6AD4D6AB
:1045400000011200100E0A014825E96E000E4921F3
:10455000EA6EEFCF8BFDECCF8CFDECCF8DFDECCF79
:104560008EFD4851E96E4951EA6EEF50010A000193
:1045700007E0030AD8B4F0D0010AD8B42FD192D101
:1045800080CD90FD7FCD8FFD0D01926B030E916F5D
:10459000000114EC1EF0D8900D010230886F01303C
:1045A000876FD890036A8831026E8B258F6F035016
:1045B0008C21906F000E8D21916F000E8E21926FD5
:1045C000966F91CD95FD90CD94FD8FCD93FD00011B
:1045D00009EC1DF0015203E1000E016E72D10D01D4
:1045E0008851010B906F240E8725016E000E9021DB
:1045F000036E01500A014825016E4951032201C092
:1046000089FD0D0103C08AFD89CD8FFD8ACD90FD06
:104610007F51010B006E016A026A036A005206E1D3
:10462000015204E1025202E1035210E08ACD03F08C
:1046300089CDE9FF8ACDEAFFEF500F0B916F8339E7
:10464000006EF00E00160050911101D0835190CDF4
:10465000EAFF8FCDE9FFEF6E060E0A014825E96EED
:10466000000E4921EA6E010EEF6E0D01872BD8B4C2
:10467000882BD890036A8831026E8B258F6F035088
:104680008C21906F000E8D21916F000E8E21926F04
:10469000966F91CD95FD90CD94FD8FCD93FD00014A
:1046A00009EC1DF0015203E1000E016E0AD10D016B
:1046B0008851010B906F240E8725016E000E90210A
:1046C000036E01500A014825016E4951032201C0C1
:1046D00089FD0D0103C08AFD89CD8FFD8ACD90FD36
:1046E0007F51010B006E016A026A036A005206E103
:1046F000015204E1025202E1035218E08631036ED6
:104700008531026E8431016E8331006E03320232D4
:1047100001320032033202320132003203320232FD
:10472000013200320F0E0316005010D089CDE9FF80
:104730008ACDEAFFEF50F00B926F84CD00F085CD6B
:1047400001F086CD02F084510F0B921190CDEAFF5B
:104750008FCDE9FFEF6EAAD080CD00F081CD01F0C2
:1047600082CD02F0036A00500D018B258F6F8151BD
:104770008C21906F82518D21916F03508E21926F09
:10478000966F91CD95FD90CD94FD8FCD93FD000159
:1047900009EC1DF0015203E1000E016E92D0D89099
:1047A0000D017F358F6F8035906F010E9017240EAD
:1047B0008F25016E000E9021036E01500A014825DD
:1047C000016E4951032201C0E9FF03C0EAFF84CD15
:1047D000ECFFED5283CDEFFF0D0168D00D0182316A
:1047E000036E8131026E8031016E7F31006E0332C3
:1047F000023201320032033202320132003203321D
:10480000023201320032033202320132003203320C
:104810000232013200320332023201320032010E22
:10482000031600508B258F6F01508C21906F025022
:104830008D21916F03508E21926F966F91CD95FDD2
:1048400090CD94FD8FCD93FD000109EC1DF0015238
:1048500003E1000E016E35D00D017F358F6F80357D
:10486000906F8F379037FC0E8F17010E9017240E24
:104870008F25016E000E9021036E01500A0148251C
:10488000016E4951032201C0E9FF03C0EAFF83CD55
:10489000EFFF84CDECFF85CDECFF86CDECFF0D0165
:1048A00005D00001000E016E0CD00D01060E0A01AC
:1048B0004825E96E000E4921EA6E010EEF6E016E89
:1048C000000112000C0E0A014825E96E000E492174
:1048D000EA6EEFCF7BFDECCF7CFDECCF7DFDECCF26
:1048E0007EFD0D016B5334E16C5332E16D5330E1C9
:1048F0006E532EE11C0E0A014825E96E000E492177
:10490000EA6EEFCF77FDECCF78FDECCF79FDECCF01
:104910007AFD0D017A5307E1795305E1785303E1FC
:10492000775101080FE27E517A5D11E30BE17D5171
:10493000795D0DE307E17C51785D09E303E17B518B
:10494000775D05E37A6B796B786B010E776F42D0F8
:104950006ECD82FD6DCD81FD6CCD80FD6BCD7FFD7B
:10496000000125EC1EF003C072FD02C071FD01C004
:1049700070FD00C06FFD0D0172530CE171530AE12F
:10498000705308E16F51010805E3006A016A026A89
:10499000036AE1D072517E5D15E30BE171517D5DDB
:1049A00011E307E170517C5D0DE303E17B516F5D25
:1049B00009E26FCD00F070CD01F071CD02F072CD43
:1049C00003F0C9D06ECD7AFD6DCD79FD6CCD78FD4B
:1049D0006BCD77FD7ACD76FD79CD75FD78CD74FD03
:1049E00077CD73FD010E7327D8B0742BD8B4752B17
:1049F000D8B4762B7E51765D1EE30BE17D51755D5B
:104A00001AE307E17C51745D16E303E17B51735DAA
:104A100012E3766B756B746B020E736F772D0BD090
:104A2000785309E1795307E17A5305E1006A016A95
:104A3000026A036A90D07751735D0EE17851745D1C
:104A40000BE17951755D08E17A51765D05E1006A07
:104A5000016A026A036A7FD076CD82FD75CD81FD41
:104A600074CD80FD73CD7FFD000125EC1EF003C0E9
:104A700072FD02C071FD01C070FD00C06FFD0D012F
:104A80006F2D0BD0705309E1715307E1725305E1AB
:104A9000006A016A026A036A5ED06F53A3E1705331
:104AA000A1E171539FE172539DE176CD82FD75CDF9
:104AB00081FD74CD80FD73CD7FFD0F0E866F8569FE
:104AC0008469836900013EDD015207E1006A016AE1
:104AD000026A036A0D013FD000010D016B5306E12C
:104AE0006C5304E16D5302E16E531DE06ECD82FD07
:104AF0006DCD81FD6CCD80FD6BCD7FFD76CD86FDCE
:104B000075CD85FD74CD84FD73CD83FD00011ADD67
:104B10000152D8B402D00D0106D0006A016A026ABF
:104B2000036A0D0118D01C0E0A014825E96E000E1B
:104B30004921EA6E73CDEFFF74CDECFF75CDECFF2C
:104B400076CDECFF73CD00F074CD01F075CD02F0A1
:104B500076CD03F00D01000112000D0159CDE9FFE2
:104B60005ACDEAFFEFCF5BFDECCF5CFDECCF5DFDF6
:104B7000ECCF5EFD5B5306E15C5304E15D5302E163
:104B80005E5330E0040E5925E96E000E5A21EA6E9C
:104B90005BCDEFFF5CCDECFF5DCDECFF5ECDECFFC0
:104BA000080E5925016E000E5A21036E01C067FDE3
:104BB000686F5ECD75FD5DCD74FD5CCD73FD5BCD25
:104BC00072FD0001CEEC1AF068CDEAFF67CDE9FF77
:104BD00000C0EFFF01C0ECFF02C0ECFF03C0ECFF20
:104BE00026D00D01080E5925016E000E5A21036EC4
:104BF00001C067FD686F140E0A014825E96E000EBA
:104C00004921EA6EEFCF00F0ECCF01F0ECCF02F0DB
:104C1000ECCF03F068CDEAFF67CDE9FF00C0EFFFFE
:104C200001C0ECFF02C0ECFF03C0ECFF00010C0E62
:104C30000D015925E96E000E5A21EA6EEC6AED521B
:104C4000EF6A080E5925E96E000E5A21EA6EEFCF81
:104C500093FDECCF94FDECCF95FDECCF96FD0001DC
:104C600009EC1DF0015204E1000E016E026E15D137
:104C70000C0E0D015925E96E000E5A21EA6EECCF9B
:104C800068FDED52EFCF67FD0F0E6717686B673752
:104C90006837673768376737683767376837673720
:104CA0006837E00E6717240E6725016E000E682135
:104CB000036E01500A014825016E4951032201C0CB
:104CC00065FD0D0103C066FD65CDE9FF66CDEAFF18
:104CD000EFCF63FD635303E06351E50807E165CD62
:104CE00001F066CD02F00001D8D00D015ACD69FD6A
:104CF00059CD68FD0001C1EC1FF00152D8B402D0BB
:104D00000D019FD70D015B530CE15C530AE15D532C
:104D100008E15E5306E1000E016E026E0001BDD097
:104D20000D01040E5925E96E000E5A21EA6EEFCFEF
:104D30006BFDECCF6CFDECCF6DFDECCF6EFD00019B
:104D4000C1DD03C05EFD02C05DFD01C05CFD00C0B1
:104D50005BFD0D015B530CE15C530AE15D5308E11F
:104D60005E5306E1000E016E026E000196D00D0149
:104D7000966B956B946B936B000109EC1DF00152DF
:104D800004E1000E016E026E88D0200E0A01482553
:104D9000016E000E4921036E01C067FD0D01686FB1
:104DA0005ECD75FD5DCD74FD5CCD73FD5BCD72FD9B
:104DB0000001CEEC1AF003C062FD02C061FD01C02B
:104DC00060FD00C05FFD68CDEAFF67CDE9FF5FCD04
:104DD000EFFF60CDECFF61CDECFF62CDECFF240E68
:104DE0000A014825016E000E4921036E01C067FDCE
:104DF0000D01686FEA6E01C0E9FF006A020E026EE3
:104E0000016A000131EC13F0020E0A014825E96E37
:104E1000000E4921EA6EEFCF64FD0D0164532CE0D2
:104E2000240E0A014825016E000E4921036E01C0BF
:104E300067FD0D01686FA06F01C09FFD62CDA4FDED
:104E400061CDA3FD60CDA2FD5FCDA1FD010EA56FDB
:104E5000000167EC1CF0015204E0000E016E026ECE
:104E60001CD0010E0D015F27D8B0602BD8B4612B88
:104E7000D8B4622B6407D2D7060E0A014825E96E22
:104E8000000E4921EA6E010EEF6E240E4825016ED8
:104E9000000E4921036E026E0001120061CD82FDF9
:104EA00060CD81FD5FCD80FD5ECD7FFD25EC1EF0E8
:104EB00003C065FD02C064FD01C063FD00C062FD6A
:104EC0000D01655307E1645305E1635303E162514A
:104ED000010830E261CD82FD60CD81FD5FCD80FDB6
:104EE0005ECD7FFD866B856B846B836B0001A2ECCE
:104EF00022F0015203E1000E016E1FD065CD61FD6D
:104F000064CD60FD63CD5FFD62CD5EFD61CD82FD50
:104F100060CD81FD5FCD80FD5ECD7FFD25EC1EF077
:104F200003C065FD02C064FD01C063FD00C062FDF9
:104F3000C7D70D01010E016E000112009FEC1AF09F
:104F400001C046FD0D01465303E046CD01F0EDD111
:104F500037510A0B0BE0000198EC1AF001B402D0B3
:104F60000D0104D00A0E016E0D01DFD10D0E5A6F36
:104F7000380E596F0D0E5C6F490E5B6F36CD5EFDBE
:104F800035CD5DFD0D0E606F470E5F6F0001AEEC1D
:104F900020F001C046FD0D013751180BD8B4E6D002
:104FA000465343E037874651020803E046CD01F0FF
:104FB000BCD10D0E5A6F380E596F0001CEDD02C004
:104FC00048FD01C047FD0D01475305E1485303E18A
:104FD000050E016EAAD148CDEAFF47CDE9FF0D0EBF
:104FE000E26E490EE16E0B0E016EE6CFEEFF012E72
:104FF000FCD70C0E4725016E000E482101C0E9FFC9
:10500000EA6E54CDEFFF0D0E4725596F000E482173
:105010005A6FEA6E59CDE9FF006A026A130E016EFB
:10502000000131EC13F08AD00D01475302E14853DF
:105030000CE00B0E4725016E000E4821036E01C0E7
:10504000E9FFEA6EEF50110B03E0050E016E6DD122
:1050500037A773D0200E0A014825E96E000E4921BA
:10506000EA6EEFCF55FDECCF56FDECCF57FDECCF00
:1050700058FD140E0D014725016E000E4821036EE8
:1050800001C0E9FFEA6EECCF61FDED52EFCF59FDB3
:105090005B6B59CD60FD596B5A6B1A0E4725016E3B
:1050A000000E482101C0E9FFEA6EECCF03F0ED529B
:1050B000EF50591303505A135ACD5FFD59CD5EFD81
:1050C0000001ECDE01520CE058CD96FD57CD95FD68
:1050D00056CD94FD55CD93FD09EC1DF0015205E12F
:1050E000070E016E0D0121D10001140E0D0147259F
:1050F000016E000E482101C0E9FFEA6EEC6AED5234
:10510000EF6A1A0E4725016E000E482101C0E9FF23
:10511000EA6EEC6AED52EF6A1C0E4725016E000E36
:10512000482101C0E9FFEA6EEE52EE52EC6AED5200
:10513000EF6AED52EF6AED52EF6A00010D0137A7F9
:1051400014D00B0E4725016E000E482101C0E9FF67
:10515000EA6E200EEF6E060E0A014825E96E000E7B
:105160004921EA6E010EEF6E0D0127D0465303E090
:1051700046CD01F0DAD0475302E148530BE00B0E65
:105180004725016E000E4821036E01C0E9FFEA6E5B
:10519000EFA803D0020E016EC8D037A30ED00B0EBD
:1051A0004725016E000E4821036E01C0E9FFEA6E3B
:1051B000EFA003D0050E016EB8D01A0E3325E96EAC
:1051C000000E3421EA6E3751030BEF6E140E3325B7
:1051D000016E000E3421036E01C059FD5A6F200E7E
:1051E0000A014825E96E000E4921EA6EEFCF00F072
:1051F000ECCF01F0ECCF02F0ECCF03F05ACDEAFF98
:1052000059CDE9FF00C0EFFF01C0ECFF02C0ECFF89
:1052100003C0ECFF180E0D013325E96E000E34219A
:10522000EA6E48CDECFFED5247CDEFFF080E332577
:10523000016E000E3421036E01C059FD5A6F140E29
:105240004725016E000E4821036E01C0E9FFEA6E9A
:10525000ECCF5EFDED52EFCF5BFD5D6B5BCD5DFD99
:105260005B6B5C6B1A0E4725016E000E482101C076
:10527000E9FFEA6EECCF03F0ED52EF505B11006EE8
:1052800003505C115DCD02F05ECD03F05ACDEAFF14
:1052900059CDE9FF00C0EFFFEC6E5DCDECFF5ECDB8
:1052A000ECFF040E3325016E000E3421036E01C0A5
:1052B00059FD5A6F1C0E4725016E000E482101C092
:1052C000E9FFEA6EEFCF00F0ECCF01F0ECCF02F097
:1052D000ECCF03F05ACDEAFF59CDE9FF00C0EFFF54
:1052E00001C0ECFF02C0ECFF03C0ECFF33CDE9FFCF
:1052F00034CDEAFFEE52EE52EC6AED52EF6AED5217
:10530000EF6AED52EF6A1B0E3325E96E000E342171
:10531000EA6E010EEF6E0A014825E96E000E492182
:10532000EA6EEF2A000E016E0D01000112000A0163
:105330004851491103E10B0E016E07D1000198ECB1
:105340001AF001B008D00A0148CAE9FF49CAEAFFC9
:10535000EF5205E10001090E016E0A01F6D01A0EA6
:105360000D013625E96E000E3721EA6EEFAADCD07A
:105370001A0E3625E96E000E3721EA6EEFAC31D0F9
:105380001C0E3625016E000E3721036E01C03AFD5A
:105390003B6F100E3625E96E000E3721EA6EEFCF17
:1053A000A1FDECCFA2FDECCFA3FDECCFA4FD03C08B
:1053B000A0FD01C09FFD010EA56F000167EC1CF070
:1053C000015205E0070E016E0A01BFD000011A0E5E
:1053D0000D013625E96E000E3721EA6EEF50BF0B46
:1053E000EF6E140E3625E96E000E3721EA6EEFCF10
:1053F00093FDECCF94FDECCF95FDECCF96FD000135
:1054000009EC1DF0015205E1070E016E0A019DD065
:105410000001180E0D013625E96E000E3721EA6EE7
:10542000ECCF39FDED52EFCF38FD0B0E3825016E74
:10543000000E392101C0E9FFEA6EEF502009EF6E3E
:105440001C0E3825016E000E3921036E01C03AFD95
:105450003B6F040E3625E96E000E3721EA6EEFCF62
:1054600000F0ECCF01F0ECCF02F0ECCF03F03BCD3D
:10547000EAFF3ACDE9FF00C0EFFF01C0ECFF02C038
:10548000ECFF03C0ECFF1A0E3825016E000E392127
:10549000036E01C03AFD3B6F080E3625E96E000E23
:1054A0003721EA6EEFCF00F0ECCF01F0ECCF02F045
:1054B000ECCF03F03BCDEAFF3ACDE9FF00C0EFFFB0
:1054C00001C0ECFF140E3825016E000E3921036E69
:1054D00001C03AFD3B6F080E3625E96E000E3721FC
:1054E000EA6EEFCF3CFDECCF3DFDECCF00F0ECCF12
:1054F00001F03BCDEAFF3ACDE9FF00C0EFFF01C06C
:10550000ECFF060E0A014825E96E000E4921EA6EFD
:10551000010EEF6E1A0E0D013625E96E000E3721D1
:10552000EA6EEF50DF0BEF6E966B956B946B936B9F
:10553000000109EC1DF0015205E1070E016E0A01A0
:1055400004D00001000E016E0A010001ADEF2AF047
:1055500034CD37FD33CD36FDEAD601C035FD0D0122
:10556000355318E11A0E3325E96E000E3421EA6E28
:10557000EF6A010E0A014825E96E000E4921EA6E24
:10558000EF5207E0010E4825E96E000E4921EA6E50
:10559000EF060D0135CD01F0000112000D013A6B4F
:1055A00039513A5D20E204003A5133253B6F000E39
:1055B00034213C6F0D0E3E6F350E3D6F3A513D2547
:1055C000016E000E3E21036E01C0E9FFEA6EEFCFCF
:1055D00040FD3CCD3FFD3BCD3EFD0001EBEC0EF030
:1055E0000D013A2BDDD7000112005BCAEAFF5ACA4F
:1055F000E9FF0D0140CDEFFFE92AD8B4EA2AEF6AAE
:105600000A015A2BD8B45B2B000112000900F6CF17
:1056100034FDF7CF35FDF8CF36FDF5CF40FDE5DFA2
:1056200034CDF6FF35CDF7FF36CDF8FF0D01332F22
:1056300001D002D00001EAD700011200EACF3BFD01
:10564000E9CF3AFD0D013439F009366F3627E20F04
:10565000376F320F396F34510F0B37273727392700
:10566000E90F386F3827382733390F0B3827392798
:1056700038373937391F393733510F0B3927363718
:10568000070E356F0A0E38073927FDE3370738272D
:10569000FDE336073727FDE335073627FDE30D0E1B
:1056A000EA6E350EE96E070E3A153A9DE926000EB0
:1056B000EA22E950390804E1EA500D0801E13A8D87
:1056C000EF50006E08E13ABD06D03AB915D03AB7AE
:1056D00002D0200E03D03A873A99300E0026EACF46
:1056E00034FDE9CF33FD00C040FD00017EDF34CD45
:1056F000EAFF33CDE9FF0D01EE503AADDAD70001F4
:105700001200050E0A015B6FC10E5A6F640EF66E31
:105710001A0EF76E000EF86E040E0D01336F0001C5
:1057200075DF100EE96ED1C534FDD0C533FD86DFBF
:105730006B0EF66E1A0EF76E000EF86E040E0D016B
:10574000336F000163DF12008E0E006E34CD01F066
:1057500033CD02F0036A015209E102C001F0026A8E
:10576000080E005E015202E1006A08D0D89001BE26
:1057700004D0023601360006F9D7019E12000D0151
:105780003351D8B4A5D03F6F3751D8B4A1D03F5FC3
:1057900005E37F0E3F27D8B09BD006D0810E3F5F38
:1057A000D8A096D0D8B494D03FCD00F0016A026A58
:1057B000036A3E6B34CD3DFD3D8F35CD3CFD36CD8E
:1057C0003BFD190E3F6F3A513B5F0DE2010E3C5F0E
:1057D0000AE23D5F08E23E5F06E23E2B3D2B3C2B9A
:1057E0003A513B2728D039513C5F12E2010E3D5F10
:1057F0000FE23E5F0DE23E2B3D2B39513C273A51E3
:105800003B2719E33C2B17E13D2B15E13E2B13D031
:10581000385180093D5F0EE2010E3E5F0BE23E2BE8
:10582000385180093D2739513C27E9E33D2BE7E119
:105830003E2BE5D703803F2F01D00BD0D8903B37CC
:105840003C373D373E37D890033602360136403775
:10585000BAD740A106D0D890013202320332403389
:1058600002D0000635E040BF1ED0D8903B373C3711
:105870003D373E373A513B5F07E2010E3C5F04E2A1
:105880003D5F02E23E5F1AE339513C5F05E2010EE3
:105890003D5F02E23E5F12E3385180093D5F03E263
:1058A000010E3E5F0BE3032A09E1022A07E1012A08
:1058B00005E1002A0DE001320232033234CD3FFD12
:1058C00038513F1B3FAF02D0018E06D0019E04D05D
:1058D000006A016A026A036A000112000D01365172
:1058E000016A355D03E235CD00F00CD0006A080E88
:1058F000376F353700363651005CD8B0006E013650
:10590000372FF7D700011200015033CD35FD640E5B
:105910000D01366F0001E2DF00C033FD0150300E93
:1059200008E10D0134A30FD034B70DD034B9200EE7
:1059300004D00D01349734993481012601C040FD13
:10594000000153DE0D0133CD35FD0A0E366F000127
:10595000C5DF00C033FD0150300E08E10D0134B742
:105960000AD034A108D034B9200E0001012601C0AC
:1059700040FD3BDE0D01300E332733CD40FD0001ED
:1059800034DE12000D014051D8B471D0006E445184
:10599000D8B46DD0002604E3810E002668E204D05E
:1059A0007F0E005E64E363E041CD48FD4551481B36
:1059B000418F458F43514703F4CF4AFD425146037F
:1059C000F4CF03F0F3CF49FD4703F3504A27F450D7
:1059D0004923000E032243514603F3504A27F45053
:1059E0004923000E026A0322022241514703F35069
:1059F0004927F4500322000E022241514603F3507E
:105A00000326F4500222000E016A0122435145038D
:105A1000F3504927F4500322000E02220122425182
:105A20004503F3500326F4500222000E0122415197
:105A30004503F3500226F4500122002A01BE05D08E
:105A400049370336023601360006000E49AF0AD048
:105A5000032A02220122015005E1025003E1035012
:105A600001E1002A48BF018E48AF019E04D0006AC0
:105A7000016A026A036A000112000D014051B60872
:105A8000406F036A41CD44FD418FD890413342338A
:105A900043330332023201320032402FF6D744AF93
:105AA0000BD0001E011E021E031E002AD8B4012ABC
:105AB000D8B4022AD8B4032A00011200E9500D011B
:105AC000386F37513A6F1BE036CD43FD35CD42FD7F
:105AD00034CD41FD33CD40FD476B466B200E456F05
