:100000000A0A140C2C00350C2D00ED02050AEC0236
:10001000030A0008380C0600260406054605CF0C26
:10002000020004006800690003040604060C2A00AC
:1000300046046606030546056803EA02180A060C2C
:100040002A0046046606030546056903EA02210AFA
:100050000605E805C905090C2A000304010C080679
:10006000010F2803EA022F0A07042B000B060705DD
:10007000090C2A000304010C0906010F2903EA02F6
:100080003C0A27042B000B0627050304270603055B
:10009000090C2A00260500000000000000000000F6
:1000A0000000010909062604090726052903EA02BA
:1000B000510A00000109000026040C0C2A00010965
:1000C000EA025F0A030407060305090C2A00260555
:1000D0000000000000000000000000000109080608
:1000E0002604080726052803EA026E0A0000010913
:1000F000000026040C0C2A000109EA027C0A0A0A04
:1001000000000000000000000000000000000000EF
:1001100000000000000000000000000000000000DF
:1001200000000000000000000000000000000000CF
:1001300000000000000000000000000000000000BF
:021FFE00ED0FE5
:00000001FF
